:040000000CEF00F011
:10000800FACF2BF0FBCF2CF0E9CF2DF0F1ED3BF040
:04001800FFEF3AF0CC
:10741C0093681200956812003F0E926E1200CF0E08
:10742C00946E1200B60ECD6E1200968096829684E3
:10743C001200ACA2FED739C0ADFF12009A993E00E3
:10744C00003F00404164BD86BD84CA80CA82CA84A4
:10745C001200BA86BA84CA80CA82CA84120088EC26
:10746C003AF0B0EC3AF030EC3BF0FDD7396EFA0E56
:0C747C0000F0E82EFDD7392EFAD71200E0
:107489004361726C6F7320546F6E636865202F6E51
:107499000027C029F028C02AF02AC0D7FF29C0D662
:1074A900FF120039C03BF03AC03CF03CC0D7FF3B6B
:1074B900C0D6FF12009280928292849286010EC2F7
:1074C9006E0B0EC16EAB0EC06E1200550ED56E97C7
:1074D9000E78EC3AF0000E3A6E000E396E56EC3A20
:1074E900F0F294F28E1200396E39507F0BD56E008E
:1074F9000ED76E000ED66EF29439AE02D0F28A0122
:10750900D0F29AD58E12005FEC3AF0DEEC3AF01226
:10751900EC3AF00EEC3AF015EC3AF010EC3AF01BBC
:10752900EC3AF06AEC3AF018EC3AF01200000E3E30
:107539006E010E3D6E3B50800A3C6E3D503A5C3EFA
:1075490050800A3C58D8A006D00C0E3CEC3AF03DCD
:107559004A3E2AF0D71200800E0001CB6F250E009B
:1075690001CC6F000E0001CD6F000E0001CE6FCE71
:10757900EC3CF0000E3B6E320E3A6E9BEC3AF01288
:1075890000396E0CD084A008D005D084A205D002A1
:10759900D084A402D0010E0CD0000E0AD0395000BC
:1075A9000AD8B4F0D7010AD8B4F0D7030AD8B4F08E
:1075B900D71200DC0E0001CB6F050E0001CC6F0065
:1075C9000E0001CD6F000E0001CE6F69EC3BF0DCBF
:1075D9000E0001CB6F050E0001CC6F000E0001CD2E
:1075E9006F000E0001CE6FADEC3BF029EC3AF02FA5
:1075F900EC3AF0120000EE60F0650EEE6AE806FD66
:10760900E100EE01F0260EEE6AE806FDE1890EF6CC
:107619006E740EF76E000EF86E00EED9F010EE11D2
:10762900F00900F5CFEEFFE550E150FAE1480EF61A
:107639006E740EF76E000EF86E00EE41F010EE0A51
:10764900F00900F5CFEEFFE550E150FAE1000EF840
:107659006E000135EF3AF0000EC5EC3AF00009D89A
:10766900B40DD0000E3A6E020E396E1FEC3AF000DE
:107679000E3B6E140E3A6E9BEC3AF025D0010EC506
:10768900EC3AF00009D8B40DD0000E3A6E030E3969
:107699006E1FEC3AF0000E3B6E140E3A6E9BEC3AFC
:1076A900F012D0020EC5EC3AF00009D8B40CD000A3
:1076B9000E3A6E040E396E1FEC3AF0000E3B6E1452
:1076C9000E3A6E9BEC3AF01200000E396E6C0E3ACF
:1076D9006EDC0E3B6E020E3C6E0001CBC0CFF0009B
:1076E90001CCC0D0F00001CDC0D1F00001CEC0D294
:1076F900F0020ED8900001CF37D037D137D237E812
:107709002EF8D7040ED8900001CF37D037D137D211
:1077190037E82EF8D7CFC03DF0D0C03EF0D1C03FFA
:10772900F0D2C040F038EC3CF039C0D3F03AC0D4C4
:10773900F03BC0D5F03CC0D6F00001D305CB6ECBF1
:10774900C0EAF0CCC0EBF0CDC0ECF0CEC0EDF01249
:1077590000000E396E6C0E3A6EDC0E3B6E020E3C6A
:107769006E0001CBC0CFF00001CCC0D0F00001CD3C
:10777900C0D1F00001CEC0D2F0020ED8900001CFE6
:1077890037D037D137D237E82EF8D7040ED8900042
:1077990001CF37D037D137D237E82EF8D7CFC03D10
:1077A900F0D0C03EF0D1C03FF0D2C040F038EC3C40
:1077B900F039C0D3F03AC0D4F03BC0D5F03CC0D6C4
:1077C900F00001D305CB6ECBC0EAF0CCC0EBF0CD15
:1077D900C0ECF0CEC0EDF012000600EACF2EF0E1C9
:1077E900CF2FF0E2CF30F0D9CF31F0DACF32F0F34A
:1077F900CF33F0F4CF34F0F6CF35F0F7CF36F0F8D9
:10780900CF37F0F5CF38F0F2A411D0010E000164A2
:1078190027000E000165230001662300016723F29A
:1078290094000E286E000E276E4DEC3AF038C0F524
:10783900FF37C0F8FF36C0F7FF35C0F6FF34C0F494
:10784900FF33C0F3FF32C0DAFF31C0D9FF30C0E2E5
:10785900FF2FC0E1FF2EC0EAFF2DC0E9FF2CC0FBBE
:10786900FF2BC0FAFF1100000E0001C66F405080C7
:107879000A800F08E1000E3F5C05E1000E3E5C0244
:10788900E1000E3D5CD8B00BD0401E3F1E3E1E3DB0
:107899006C000E3E223F224022010E0001C66F3CC1
:1078A90050800A800F08E1000E3B5C05E1000E3AAA
:1078B9005C02E1000E395CD8B00BD03C1E3B1E3A8D
:1078C9001E396C000E3A223B223C22010E0001C6F1
:1078D9001B000E0001C76F000E0001C86F000E00EB
:1078E90001C96F000E0001CA6F40503D103E103FA4
:1078F90010D8B433D0010E0001C56F07D0D8903D20
:10790900363E363F3640360001C52B40AEF7D7002C
:1079190001D8900001C7370001C8370001C93700F5
:1079290001CA373D50395C3E503A583F503B5840A8
:10793900503C58D8A00AD03D50395E3E503A5A3F83
:10794900503B5A40503C5A0001C781D89040323FC1
:10795900323E323D320001C52FDAD70001C651D877
:10796900B40FD00001CA1F0001C91F0001C81F00C0
:1079790001C76D000E0001C8230001C9230001CA17
:1079890023C7C039F0C8C03AF0C9C03BF0CAC03CEF
:10799900F01200CBC03DF0CCC03EF0CDC03FF0CEE0
:1079A900C040F0000E396E6C0E3A6EDC0E3B6E0272
:1079B9000E3C6E38EC3CF039C0D3F03AC0D4F03B01
:1079C900C0D5F03CC0D6F0D3C039F0D4C03AF0D518
:1079D900C03BF0D6C03CF0400E3D6E000E3E6E003E
:1079E9000E3F6E000E406E38EC3CF039C0CFF03AD5
:1079F900C0D0F03BC0D1F03CC0D2F0FF0E0001CFA7
:107A0900250001D76FFF0E0001D0210001D86F00BA
:107A19000E0001D75D010E0001D859D8A03FD0CB87
:107A2900C03DF0CCC03EF0CDC03FF0CEC040F0002C
:107A39000E396E6C0E3A6EDC0E3B6E020E3C6E38E1
:107A4900EC3CF039C0D3F03AC0D4F03BC0D5F03C9F
:107A5900C0D6F0D3C039F0D4C03AF0D5C03BF0D687
:107A6900C03CF0100E3D6E000E3E6E000E3F6E00E3
:107A79000E406E38EC3CF039C0CFF03AC0D0F03B44
:107A8900C0D1F03CC0D2F0FF0E0001CF250001D7D4
:107A99006FFF0E0001D0210001D86FAC84000E00E9
:107AA90001D75D010E0001D859D8B008D0D7C0AFB1
:107AB900FFAC98AB8E948C948EAB88AC8A12000084
:107AC900010000000A00000064000000E803000053
:107AD90010270000A086010040420F008096980000
:107AE90000E1F50500CA9A3B00803FCDCC3DD72384
:107AF9003C12833AB7D138C62737388635C0D633D2
:107B0900CC2B32708930E7DB2EE53C1E42A20D00FA
:107B1900803F00204100C842007A44401C4650C3BF
:107B29004724744997184BBCBE4C6B6E4E031550D5
:107B390079AD60F3497155502A2A2A7C2052554E55
:107B4900207C2A2A2A2A0044574E2A2A7C2D2D2DA8
:107B59002D2D7C2A2A2A2A0044574E2A7C2D2D2D88
:107B69002D2D2D2D2D7C2A2A0055502A2A7C47504F
:107B7900494F204346477C2A2A0055502A2A7C53DC
:107B89002F52204750494F7C2A2A0055502A2A7CD7
:107B99005445535420524D547C2A2A0055502A2AC0
:107BA9007C55534320544553547C2A2A0044574E4C
:107BB9002A7C2D2D2D2D2D2D2D2D2D7C2A00555036
:107BC9002A2A7C4750494F20524541447C2A005576
:107BD900502A7C54455354204C4F43414C7C2A0035
:107BE90055502A2A7C5748454C20544553547C2AE1
:107BF900002E2E2E2E2E53595354454D2E2E2E2EF9
:107C09002E002E2E2E2E5354415254494E472E2EBD
:107C19002E2E00436F6E74726F6C2050494420768B
:107C2900312E300045313D2B2045303D4420453231
:107C39003D2D0045313D2B2045303D492045323D04
:107C49002D0045313D2B2045303D532045323D2DFA
:107C5900004170706C79204368616E6765733F00FD
:107C690045313D442045303D502045323D49004590
:107C7900312F303D4F4B2045323D53545200436F15
:107C89006E74726F6C203D20256600616463203D2F
:107C9900202566004B49203D202566004B50203D9C
:107CA900202566005369657465004E756576650023
:107CB90043696E636F0041414141004242424200C3
:107CC9004444444400454545450049494949004C17
:107CD9004C4C4C0052525252005353535300555579
:107CE9005555004F63686F005365697300556E6F92
:067CF90000446F7300005F
:020000040020DA
:08000000FFFFFFFFFFFFFFFF00
:020000040030CA
:0E000000040E191EFF8181FF0FC00FE00F409C
:00000001FF
