:040000000CEF00F011
:10000800FACF29F0FBCF2AF0E9CF2BF06DED3BF0CA
:040018004CEF3BF07E
:1074AC0093681200956812003F0E926E1200CF0E78
:1074BC00946E1200B60ECD6E120096809682968453
:1074CC001200ACA2FED737C0ADFF1200BD86BD8442
:1074DC00CA80CA82CA841200BA86BA84CA80CA8296
:1074EC00CA8412009A993E00003F00404104006497
:1074FC00C8EC3AF00CEC3BF0F0EC3AF0FDD7376E00
:10750C00FA0E00F0E82EFDD7372EFAD7120025C060
:10751C0027F026C028F028C0D7FF27C0D6FF1200BE
:10752C0037C039F038C03AF03AC0D7FF39C0D6FF6F
:10753C0012009280928292849286010EC26E0B0E81
:10754C00C16EAB0EC06E1200550ED56E970EB8EC18
:10755C003AF0000E386E000E376E96EC3AF0F2945C
:10756C00F28E1200376E37507F0BD56E000ED76E31
:10757C00000ED66EF29437AE02D0F28A01D0F29A97
:10758C00D58E12009FEC3AF02BEC3BF05AEC3AF013
:10759C0056EC3AF05DEC3AF058EC3AF063EC3AF019
:1075AC00AAEC3AF060EC3AF01200000E3C6E010EC0
:1075BC003B6E3950800A3A6E3B50385C3C50800A26
:1075CC003A58D8A006D00C0E85EC3AF03B4A3C2A2F
:1075DC00F0D71200000E3E6E000E3D6E3E50800A3B
:1075EC007F0F000ED8B43D5CD8B00FD03DC037F043
:1075FC003EC038F067EC3AF0000E396EC80E386EAB
:10760C00DBEC3AF03D4A3E2AE9D71200800E00012D
:10761C00C86F250E0001C96F000E0001CA6F000E65
:10762C000001CB6FCEEC3CF0000E236E000E226EF0
:10763C00000E386E010E376E67EC3AF0000E396EA4
:10764C00320E386EDBEC3AF01200DC0E0001C86F23
:10765C00050E0001C96F000E0001CA6F000E00017B
:10766C00CB6FB0EC3BF0DC0E0001C86F050E0001D7
:10767C00C96F000E0001CA6F000E0001CB6FF4EC55
:10768C003BF06CEC3AF072EC3AF0120000EE60F069
:10769C00620EEE6AE806FDE100EE01F0240EEE6AE1
:1076AC00E806FDE1F00EF66E740EF76E000EF86E45
:1076BC0000EE3FF010EE0CF00900F5CFEEFFE550B8
:1076CC00E150FAE1000EF86E00017EEF3AF0060090
:1076DC00EACF2CF0E1CF2DF0E2CF2EF0D9CF2FF066
:1076EC00DACF30F0F3CF31F0F4CF32F0F6CF33F015
:1076FC00F7CF34F0F8CF35F0F5CF36F0F2A40DD04B
:10770C00010E0126000E022203220422F294000E26
:10771C00266E000E256E8DEC3AF036C0F5FF35C0A6
:10772C00F8FF34C0F7FF33C0F6FF32C0F4FF31C0AE
:10773C00F3FF30C0DAFF2FC0D9FF2EC0E2FF2DC0FF
:10774C00E1FF2CC0EAFF2BC0E9FF2AC0FBFF29C0D8
:10775C00FAFF1100000E376E360E386E6E0E396E53
:10776C00010E3A6E0001C8C0CCF00001C9C0CDF0CA
:10777C000001CAC0CEF00001CBC0CFF0020ED890F1
:10778C000001CC37CD37CE37CF37E82EF8D7040EE3
:10779C00D8900001CC37CD37CE37CF37E82EF8D77D
:1077AC00CCC03BF0CDC03CF0CEC03DF0CFC03EF0E5
:1077BC0038EC3CF037C0D0F038C0D1F039C0D2F042
:1077CC003AC0D3F00001D005CB6EC8C0D6F0C9C00A
:1077DC00D7F0CAC0D8F0CBC0D9F01200000E376E6B
:1077EC00360E386E6E0E396E010E3A6E0001C8C040
:1077FC00CCF00001C9C0CDF00001CAC0CEF0000130
:10780C00CBC0CFF0020ED8900001CC37CD37CE379D
:10781C00CF37E82EF8D7040ED8900001CC37CD37EF
:10782C00CE37CF37E82EF8D7CCC03BF0CDC03CF0EC
:10783C00CEC03DF0CFC03EF038EC3CF037C0D0F0BD
:10784C0038C0D1F039C0D2F03AC0D3F00001D00525
:10785C00CB6EC8C0D6F0C9C0D7F0CAC0D8F0CBC068
:10786C00D9F01200000E0001C36F3E50800A800F49
:10787C0008E1000E3D5C05E1000E3C5C02E1000EEF
:10788C003B5CD8B00BD03E1E3D1E3C1E3B6C000E2C
:10789C003C223D223E22010E0001C36F3A50800A69
:1078AC00800F08E1000E395C05E1000E385C02E146
:1078BC00000E375CD8B00BD03A1E391E381E376C10
:1078CC00000E382239223A22010E0001C31B000E91
:1078DC000001C46F000E0001C56F000E0001C66FE1
:1078EC00000E0001C76F3E503B103C103D10D8B449
:1078FC0033D0010E0001C26F07D0D8903B363C3616
:10790C003D363E360001C22B3EAEF7D70001D89073
:10791C000001C4370001C5370001C6370001C73765
:10792C003B50375C3C5038583D5039583E503A58D3
:10793C00D8A00AD03B50375E3C50385A3D50395A8B
:10794C003E503A5A0001C481D8903E323D323C320E
:10795C003B320001C22FDAD70001C351D8B40FD08B
:10796C000001C71F0001C61F0001C51F0001C46D27
:10797C00000E0001C5230001C6230001C723C4C0AB
:10798C0037F0C5C038F0C6C039F0C7C03AF01200A5
:10799C00C8C03BF0C9C03CF0CAC03DF0CBC03EF003
:1079AC00000E376E360E386E6E0E396E010E3A6E54
:1079BC0038EC3CF037C0D0F038C0D1F039C0D2F040
:1079CC003AC0D3F0D0C037F0D1C038F0D2C039F0C3
:1079DC00D3C03AF0100E3B6E000E3C6E000E3D6EA6
:1079EC00000E3E6E38EC3CF037C0CCF038C0CDF019
:1079FC0039C0CEF03AC0CFF0FF0E0001CC2500010B
:107A0C00D46FFF0E0001CD210001D56F000E0001D7
:107A1C00D45D010E0001D559D8A03FD0C8C03BF0B1
:107A2C00C9C03CF0CAC03DF0CBC03EF0000E376E72
:107A3C00360E386E6E0E396E010E3A6E38EC3CF026
:107A4C0037C0D0F038C0D1F039C0D2F03AC0D3F042
:107A5C00D0C037F0D1C038F0D2C039F0D3C03AF032
:107A6C00100E3B6E000E3C6E000E3D6E000E3E6E18
:107A7C0038EC3CF037C0CCF038C0CDF039C0CEF08B
:107A8C003AC0CFF0FF0E0001CC250001D46FFF0EE1
:107A9C000001CD210001D56FAC84000E0001D45D36
:107AAC00010E0001D559D8B008D0D4C0AFFFAC98A6
:107ABC00AB8E948C948EAB88AC8A120000010000C3
:107ACC00000A00000064000000E80300001027001A
:107ADC0000A086010040420F008096980000E1F55E
:107AEC000500CA9A3B00803FCDCC3DD7233C128386
:107AFC003AB7D138C62737388635C0D633CC2B3277
:107B0C00708930E7DB2EE53C1E42A20D00803F0061
:107B1C00204100C842007A44401C4650C34724749C
:107B2C004997184BBCBE4C6B6E4E03155079AD602B
:107B3C00F34971436F6E74726F6C20504944207618
:107B4C00312E300055502A2A2A7C2052554E207C4A
:107B5C002A2A2A2A0044574E2A2A7C2D2D2D2D2DD7
:107B6C007C2A2A2A2A0044574E2A7C2D2D2D2D2D75
:107B7C002D2D2D7C2A2A0055502A2A7C4750494FFE
:107B8C00204346477C2A2A0055502A2A7C532F52E0
:107B9C00204750494F7C2A2A0055502A2A7C5445AC
:107BAC00535420524D547C2A2A0055502A2A7C5575
:107BBC00534320544553547C2A2A0044574E2A7C64
:107BCC002D2D2D2D2D2D2D2D2D7C2A0055502A2A75
:107BDC007C4750494F20524541447C2A0055502A3D
:107BEC007C54455354204C4F43414C7C2A005550F7
:107BFC002A2A7C5748454C20544553547C2A002E45
:107C0C002E2E2E2E53595354454D2E2E2E2E2E00E5
:107C1C002E2E2E2E5354415254494E472E2E2E2E7C
:107C2C000045313D2B2045303D442045323D2D0053
:107C3C0045313D2B2045303D492045323D2D0045F9
:107C4C00313D2B2045303D532045323D2D004170B8
:107C5C00706C79204368616E6765733F0045313DF8
:107C6C00442045303D502045323D490045312F30B0
:107C7C003D4F4B2045323D53545200436F6E74724E
:107C8C006F6C203D20256600616463203D202566D5
:107C9C00004B49203D202566004B50203D20256699
:107CAC00005369657465004E756576650043696EB1
:107CBC00636F00414141410042424242004444440E
:107CCC004400454545450049494949004C4C4C4CFC
:107CDC0000525252520053535353005555555500B0
:107CEC004F63686F005365697300556E6F00446F86
:047CFC007300000011
:020000040020DA
:08000000FFFFFFFFFFFFFFFF00
:020000040030CA
:0E000000140E191EFF8181FF0FC00FE00F408C
:00000001FF
