:020000040000FA
:060000000A128A11D12F43
:10000800643400346E34FF308316031392000530D5
:100018008312031392004F3097000800F301F40194
:100028007408803AF2007108803A7202031D1E2893
:1000380070087302031C2128222824285F285F28BF
:10004800F501F6017608803AFF0081307F02031D32
:100058002F2890307502031C3228332835284A2867
:100068004A2800000130F5070318F60A0030F607A1
:100078007608803AFF0081307F02031D45289030C2
:100088007502031C4828492835284A280130F307F7
:100098000318F40A0030F4077408803AF200710873
:1000A800803A7202031D5A2870087302031C5D28E7
:1000B8005E2824285F280800F001F00A8312031341
:1000C80020080A128A1506230A128A11F0018312DF
:1000D800031322080A128A1506230A128A11F0014C
:1000E8008312031324080A128A1506230A128A1196
:1000F800F0018312031326080A128A1506230A122E
:100108008A118312031328080A128A1529240A124D
:100118008A11003A031991289228B02883120313F0
:100128006208F1006108F0000A128A1112200A120E
:100138008A118312031328080A128A1529240A121D
:100148008A11003A0319A928AA28B62B8316031383
:100158004008B62BB62BB62B831203132A080A12B3
:100168008A1529240A128A11003A0319BC28BD28C5
:10017800DB28831203136208F1006108F0000A12F9
:100188008A1112200A128A11831203132A080A12EA
:100198008A1529240A128A11003A0319D428D52865
:1001A800B62B831603134408B62BB62BB62B831233
:1001B80003132C080A128A1529240A128A11003AF4
:1001C8000319E728E8280629831203136208F100B7
:1001D8006108F0000A128A1112200A128A11831289
:1001E80003132C080A128A1529240A128A11003AC4
:1001F8000319FF280029B62B831603134808B62BCA
:10020800B62BB62B831203132E080A128A1529243B
:100218000A128A11003A0319122913293129831263
:1002280003136208F1006108F0000A128A11122013
:100238000A128A11831203132E080A128A15292416
:100248000A128A11003A03192A292B29B62B831678
:1002580003134C08B62BB62BB62BF00183120313ED
:1002680020080A128A1506230A128A11F001F00AD8
:100278008312031322080A128A1506230A128A1106
:10028800F0018312031324080A128A1506230A129E
:100298008A11F0018312031326080A128A1506230D
:1002A8000A128A118312031328080A128A152924AC
:1002B8000A128A11003A03196229632981298312D3
:1002C80003136208F1006108F0000A128A11122073
:1002D8000A128A118312031328080A128A1529247C
:1002E8000A128A11003A03197A297B29B62B831638
:1002F80003134108B62BB62BB62B831203132A0817
:100308000A128A1529240A128A11003A03198D291A
:100318008E29AC29831203136208F1006108F000EA
:100328000A128A1112200A128A11831203132A0848
:100338000A128A1529240A128A11003A0319A529D2
:10034800A629B62B831603134508B62BB62BB62B56
:10035800831203132C080A128A1529240A128A11F7
:10036800003A0319B829B929D72983120313620857
:10037800F1006108F0000A128A1112200A128A118B
:10038800831203132C080A128A1529240A128A11C7
:10039800003A0319D029D129B62B8316031349082B
:1003A800B62BB62BB62B831203132E080A128A1506
:1003B80029240A128A11003A0319E329E429022A96
:1003C800831203136208F1006108F0000A128A110F
:1003D80012200A128A11831203132E080A128A1590
:1003E80029240A128A11003A0319FB29FC29B62B81
:1003F800831603134D08B62BB62BB62BF0018312C8
:10040800031320080A128A1506230A128A11F0011A
:100418008312031322080A128A1506230A128A1164
:10042800F001F00A8312031324080A128A1506231E
:100438000A128A11F0018312031326080A128A1578
:1004480006230A128A118312031328080A128A152E
:1004580029240A128A11003A0319332A342A522A03
:10046800831203136208F1006108F0000A128A116E
:1004780012200A128A118312031328080A128A15F5
:1004880029240A128A11003A03194B2A4C2AB62B3E
:10049800831603134208B62BB62BB62B831203130D
:1004A8002A080A128A1529240A128A11003A0319FD
:1004B8005E2A5F2A7D2A831203136208F10061080D
:1004C800F0000A128A1112200A128A1183120313E9
:1004D8002A080A128A1529240A128A11003A0319CD
:1004E800762A772AB62B831603134608B62BB62B23
:1004F800B62B831203132C080A128A1529240A1210
:100508008A11003A0319892A8A2AA82A831203130E
:100518006208F1006108F0000A128A1112200A121A
:100528008A11831203132C080A128A1529240A1225
:100538008A11003A0319A12AA22AB62B831603139B
:100548004A08B62BB62BB62B831203132E080A12B1
:100558008A1529240A128A11003A0319B42AB52ADD
:10056800D32A831203136208F1006108F0000A120B
:100578008A1112200A128A11831203132E080A12F2
:100588008A1529240A128A11003A0319CC2ACD2A7D
:10059800B62B831603134E08B62BB62BB62BF001D9
:1005A8008312031320080A128A1506230A128A11D5
:1005B800F0018312031322080A128A1506230A126D
:1005C8008A11F0018312031324080A128A150623DC
:1005D8000A128A11F001F00A8312031326080A127C
:1005E8008A1506230A128A118312031328080A128D
:1005F8008A1529240A128A11003A0319042B052B9B
:10060800232B831203136208F1006108F0000A1219
:100618008A1112200A128A118312031328080A1257
:100628008A1529240A128A11003A03191C2B1D2B3A
:10063800B62B831603134308B62BB62BB62B83129F
:1006480003132A080A128A1529240A128A11003A61
:1006580003192F2B302B4E2B831203136208F10042
:100668006108F0000A128A1112200A128A118312F4
:1006780003132A080A128A1529240A128A11003A31
:100688000319472B482BB62B831603134708B62BA1
:10069800B62BB62B831203132C080A128A152924A9
:1006A8000A128A11003A03195A2B5B2B792B8312F1
:1006B80003136208F1006108F0000A128A1112207F
:1006C8000A128A11831203132C080A128A15292484
:1006D8000A128A11003A0319722B732BB62B831650
:1006E80003134B08B62BB62BB62B831203132E0815
:1006F8000A128A1529240A128A11003A0319852B2D
:10070800862BA42B831203136208F1006108F00002
:100718000A128A1112200A128A11831203132E0850
:100728000A128A1529240A128A11003A03199D2BE4
:100738009E2BB62B831603134F08B62BB62BB62B5E
:100748006E30B62BB62BB62BB62BB62BB62BB62BDC
:10075800B62BB62BB62BB62BB62BB62BB62BB62B89
:10076800B62BB62B0800BE2F0A168A1180210A1252
:100778008A11FC01FC0A02300A168A1125220A1283
:100788008A117D3083120313BE008030BF000A1621
:100798008A1192220A128A11E52B0A128A11602004
:1007A8000A128A1183120313CD004D08E300413069
:1007B8006306031DE02BE12BE52BBB01BB0AE52BF0
:1007C800E52B831203133B03031DEB2BEC2BD12BDF
:1007D800ED2BBB01E001D02F0A168A1180210A12E5
:1007E8008A1183120313B401AC2F982FFC01FC0A61
:1007F80001300A168A1125220A128A116C308312D6
:100808000313BE008030BF000A168A1192220A1212
:100818008A11FC01FC0A02300A168A1125220A12E2
:100828008A11393083120313BE008030BF000A16C4
:100838008A1192220A128A1115300A168A11EA219F
:100848000A128A114C2C0A128A1160200A128A1183
:1008580083120313CD004D08E3002A306306031DFD
:10086800362C372C3E2C0230CD004D08B400BA018E
:10087800BA0A4C2C23306306031D432C442C4C2C01
:10088800B401BA01BA0ABB01BB0A4C2C4C2C4C2C43
:10089800831203133A03031D522C532C272C542C78
:1008A800B8010A168A1180210A128A1183120313C9
:1008B800BA01AC2FCF30BE008030BF000A168A11B3
:1008C80092220A128A116430F0000030F1000A12F4
:1008D8008A1112200A128A110A168A1180210A1214
:1008E8008A11FC01FC0A01300A168A1125220A1213
:1008F8008A11C03083120313CD004D08BE0037089B
:10090800CE00CF014E08BF004F08C0003108C2001A
:100918003008C100B0300A128A15CE200A128A1196
:10092800B03083120313BE000030BF000A168A11CC
:1009380092220A128A11FC01FC0A02300A168A1154
:1009480025220A128A118E3083120313CD004D0816
:10095800BE003608CE00CF014E08BF004F08C000C9
:100968003508D000D1015008C1005108C200A0309C
:100978000A128A15CE200A128A11A0308312031394
:10098800BE000030BF000A168A1192220A128A118C
:1009980083120313B301B62EA52EF001F00A0F300F
:1009A80084000A168A110A200A128A110A128A1564
:1009B80006230A128A11F001103084000A168A11DF
:1009C8000A200A128A110A128A1506230A128A11A3
:1009D800832D15300A168A11EA210A128A110B3062
:1009E80084000A168A110A200A128A110A128A1524
:1009F80029240A128A11013A031D032D042D3E2DC4
:100A0800FA30F0000030F1000A128A1112200A129E
:100A18008A110B3084000A168A110A200A128A11D8
:100A28000A128A1529240A128A11013A031D1D2D5A
:100A38001E2D3E2D83120313B901B90AF0010F30A0
:100A480084000A168A110A200A128A110A128A15C3
:100A580006230A128A11F001103084000A168A113E
:100A68000A200A128A110A128A1506230A128A1102
:100A78003E2D3E2D0A128A1160200A128A11831215
:100A88000313CD004D08E30023306306031D4D2DED
:100A98004E2D632DF0010F3084000A168A110A20AA
:100AA8000A128A110A128A1506230A128A11831257
:100AB8000313B901B90ABA01BA0AB401832D2A305D
:100AC8006306031D682D692D832DF0010F30840006
:100AD8000A168A110A200A128A110A128A1506238E
:100AE8000A128A1183120313B901B90ABA01BA0AA0
:100AF8000230CD004D08B400832D832D832D831241
:100B080003133903031D892D8A2DED2C8B2DB90173
:100B1800B301B30AB62EF001F00A103084000A16A9
:100B28008A110A200A128A110A128A1506230A1241
:100B38008A11F0010F3084000A168A110A200A125D
:100B48008A110A128A1506230A128A110A168A11AC
:100B580080210A128A11992E10300A168A11EA2168
:100B68000A128A1183120313CD004D08B6000A1227
:100B78008A1160200A128A1183120313CD004D08CE
:100B8800E30037083602031CCA2DCB2DF42DF001E3
:100B9800103084000A168A110A200A128A110A12D1
:100BA8008A1506230A128A11013083120313CD0015
:100BB8004D08B5073608CD00CE014D08B00703181B
:100BC800B10A4E08B107B601B30115300A168A11E9
:100BD800EA210A128A1183120313B901B90A412EB4
:100BE80023306306031DF92DFA2D182EF00110305D
:100BF80084000A168A110A200A128A110A128A1512
:100C080006230A128A1115300A168A11EA210A12D5
:100C18008A1183120313B701B501B301B901B90AE7
:100C2800BA01BA0AB401412E2A306306031D1D2EEB
:100C38001E2E412EF001103084000A168A110A2057
:100C48000A128A110A128A1506230A128A11153005
:100C58000A168A11EA210A128A1183120313B701AC
:100C6800B501B301B901B90ABA01BA0A0230CD0017
:100C78004D08B400412E412E412EFC01FC0A0130E2
:100C88000A168A1125220A128A11C1308312031307
:100C9800CD004D08BE003708CE00CF014E08BF007A
:100CA8004F08C0003108C2003008C100B0300A1235
:100CB8008A15CE200A128A11B03083120313BE009F
:100CC8000030BF000A168A1192220A128A11FC010A
:100CD800FC0A02300A168A1125220A128A11B0303B
:100CE80083120313CD004D08BE003608CE00CF0195
:100CF8004E08BF004F08C0003508D000D101500889
:100D0800C1005108C200A0300A128A15CE200A126A
:100D18008A11A03083120313BE000030BF000A16E8
:100D28008A1192220A128A11992E83120313390307
:100D3800031D9F2EA02EB02DA12EB901B601B62EEF
:100D4800B62E3308CD00CE014E08003A0319AD2E59
:100D5800B62E4D08003A0319D12C013A03198F2DEC
:100D6800B62EB62E3A03031DBA2EBB2EA52EBC2EC8
:100D7800B701B8010A168A1180210A128A11831252
:100D88000313BA01AC2FFC01FC0A01300A168A11C0
:100D980025220A128A119F3083120313BE00803065
:100DA800BF000A168A1192220A128A11732F0A1298
:100DB8008A1160200A128A1183120313CD004D088C
:100DC800E3006E3063060319EA2EEB2E5B2F233007
:100DD80063060319F02EF12E5B2F2A3063060319E0
:100DE800F62EF72E5B2F023038020318FC2EFD2E4C
:100DF800432FFC01FC0A02300A168A1125220A1226
:100E08008A11831203136308D03ECD0038083C3E94
:100E180084004D08831380000A30CD004D08F0008F
:100E28003C080A168A11D1210A128A118312031367
:100E38003D07CE004E08B700DD30CD004D08BE009E
:100E48003708CE00CF014E08BF004F08C000A030C1
:100E58000A128A15CE200A128A11A03083120313AF
:100E6800BE000030BF000A168A1192220A128A11A7
:100E7800013083120313CD004D08B807732FFC010E
:100E8800FC0A02300A168A1125220A128A11283011
:100E980083120313BE008030BF000A168A11922203
:100EA8000A128A1183120313B801732F732F233088
:100EB8006306031D602F612F652FB401BA01BA0ABA
:100EC800732F2A306306031D6A2F6B2F732FB4010B
:100ED800B40ABA01BA0A732F732F732F732F8312B0
:100EE80003133A03031D792F7A2FDB2E7B2F0A3049
:100EF800CD004D08F0003C080A168A11D1210A12CB
:100F08008A11831203133D07CE004E08B7000A1654
:100F18008A1180210A128A1183120313B901BA01B6
:100F2800B401B40AAC2FAC2F3408CD00CE014E0862
:100F3800003A0319A02FAC2F4D08003A0319FA2BD9
:100F4800013A03195E2C033A0319C72EAC2FAC2FB4
:100F58003B03031DB02FB12F982FB22F0A168A1109
:100F680080210A128A1183120313BB01E001E00AEF
:100F7800D02FD02F831203136008CD00CE014E0866
:100F8800003A0319C82FD02F4D08003A0319F02B47
:100F9800013A0319B82BD02F08008313E030FD0065
:100FA8001230FE000530FF00C03084000A168A1196
:100FB800AD210A128A116430FD000030FE000430B1
:100FC800FF00613084000A168A11AD210A128A11C5
:100FD800A0308400C0300A168A1187210A128A11AB
:100FE800203084003E300A168A1187210A128A119D
:080FF80083010A168A11BC29CD
:101004008130831203139F00C230831603139F00A1
:1010140085013F308500860100308600870100305D
:1010240087000A128A1107200A128A150A168A11E1
:101034007B210A128A158801003088088312031361
:1010440089010730831603138900080083120313F0
:10105400BF01F31F2E282F283C28F009F109F209BB
:10106400F309F00A0319F10A0319F20A0319F30A3E
:10107400BF01BF0AF71F3F2840285028F409F5098B
:10108400F609F709F40A0319F50A0319F60A03190C
:10109400F70A0130F8007808BF0650280030C30072
:1010A4000030C2000030C1000030C0007308720478
:1010B4007104700403195F286028B328BE01BE0AB6
:1010C40071280130F8000310F00DF10DF20DF30D4D
:1010D400F80B65280130F8007808BE077128F31F63
:1010E400742875286328772877280130F8000310BE
:1010F400C00DC10DC20DC30DF80B7928730877021A
:10110400031D8E2872087602031D8E28710875024D
:10111400031D8E2870087402031C91289228A228AB
:101124007008F4027108031C710FF5027208031CA5
:10113400720FF6027308031C730FF7024014A228FF
:1011440001300310F30CF20CF10CF00CFF3E031D04
:10115400A3280130BE02031DB028B1287728B32884
:10116400B3283F080319B728B828C428C009C109FF
:10117400C209C309C00A0319C10A0319C20A03191F
:10118400C30AC4284308F3004208F2004108F100EE
:101194004008F000CD28080083120313CB003F3031
:1011A400C3004308C700CB2925304C060319DB28AC
:1011B400DC28E8284C08C3004B0884004308831348
:1011C40080000130C3004308CB07CB29C801F128B4
:1011D400DF2911291129CB29481711291129013097
:1011E400BE07FF303E0784000A168A110A200A123D
:1011F4008A15CC00C300C4014408003A031903292A
:10120400CB294308003A0319DF29643A0319112949
:101214000D3A031911291C3A0319EE28CB29481B4E
:101224001429152930294708840083130008C900AC
:10123400840A0008CA000230C3004308C707CA1F53
:10124400242925293D290330C3004308C804C909BA
:10125400CA09C90A0319CA0A3D293D294708840055
:1012640083130008C900840A0008CA000230C300BE
:101274004308C7073D29CC01CC0A05304C06031DA1
:101284004429452947296F296F294C08C30043077E
:10129400013E84000A168A110A200A128A15C40023
:1012A4000A168A110A200A128A15C50045084A023C
:1012B400031D5E294408490203186129622964292F
:1012C4006F296F290130C3004308CC0705304C0651
:1012D400031D6D296E2947296F294808033903190D
:1012E4007429752981292D30C3004B0884004308D3
:1012F400831380000130C3004308CB0781294C08C5
:10130400C3004308C600C0290A30F8000030F900C1
:101314004608C3004307013E84000A168A110A20C6
:101324000A128A15F0000A168A110A200A128A156E
:10133400F1004A08F3004908F2000A168A11DA2279
:101344000A128A157108FB007008FA000A168A113D
:1013540051220A128A157808303E83120313C400FE
:101364004408CC004C08C3004B0884004308831392
:1013740080000130C3004308CB07C029FF30C300FD
:101384004308C607460A031DC829C9298629CB294B
:10139400CB290130BE07FF303E0784000A168A11AC
:1013A4000A200A128A15C3004308CC004C08031D06
:1013B400DC29DD29D628DF29DF294B0884008313A3
:1013C4008001E4290800F300B02A700C831603138B
:1013D400031C871303188717052B700C831603133C
:1013E400031C071303180717052B700C831603132C
:1013F400031C871203188716052B700C831603131E
:10140400031C071203180716052B700C831603130D
:10141400031C871103188715052B700C83160313FF
:10142400031C071103180715052B700C83160313EF
:10143400031C871003188714052B700C83160313E1
:10144400031C071003180714052B700C83160313D1
:10145400031C061003180614052B700C83160313C3
:10146400031C861003188614052B700C83160313B3
:10147400031C061103180615052B700C83160313A1
:10148400031C861103188615052B700C8316031391
:10149400031C061203180616052B700C831603137F
:1014A400031C861203188616052B700C831603136F
:1014B400031C061303180617052B700C831603135D
:1014C400031C861303188617052B700C831603134D
:1014D400031C081003180814052B700C831603133F
:1014E400031C881003188814052B700C831603132F
:1014F400031C081103180815052B700C831603131D
:10150400031C881103188815052B700C831603130C
:10151400031C081203180816052B700C83160313FA
:10152400031C881203188816052B700C83160313EA
:10153400031C081303180817052B700C83160313D8
:10154400031C881303188817052B700C83160313C8
:10155400031C051203180516052B052B7308F1004F
:10156400F2017208003A0319B82A052B7108003AEF
:101574000319E729013A0319EF29033A0319F72953
:10158400013A0319FF29073A0319072A013A0319F3
:101594000F2A033A0319172A013A03191F2A0F3A8B
:1015A4000319272A013A03192F2A033A0319372A60
:1015B400013A03193F2A073A0319472A013A031942
:1015C4004F2A033A0319572A013A03195F2A1F3A8B
:1015D4000319672A013A03196F2A033A0319772A70
:1015E400013A03197F2A073A0319872A013A031992
:1015F4008F2A033A0319972A013A03199F2A0F3AAB
:101604000319A72A052B0800F300D32B700C8312AF
:101614000313031C871303188717282C700C8312D9
:101624000313031C071303180717282C700C8312C9
:101634000313031C871203188716282C700C8312BB
:101644000313031C071203180716282C700C8312AB
:101654000313031C871103188715282C8312031303
:101664009701700C031C071103180715282C83120B
:1016740003139D01700C031C871003188714282C76
:10168400700C83120313031C071003180714282C6F
:10169400700C83120313031C061003180614282C61
:1016A400700C83120313031C861003188614282C51
:1016B400700C83120313031C061103180615282C3F
:1016C400700C83120313031C861103188615282C2F
:1016D400700C83120313031C061203180616282C1D
:1016E400700C83120313031C861203188616282C0D
:1016F400700C83120313031C061303180617282CFB
:10170400700C83120313031C861303188617282CEA
:10171400700C83120313031C081003180814282CDC
:10172400700C83120313031C881003188814282CCC
:10173400700C83120313031C081103180815282CBA
:10174400700C83120313031C881103188815282CAA
:10175400700C83120313031C081203180816282C98
:10176400700C83120313031C881203188816282C88
:10177400700C83120313031C081303180817282C76
:10178400700C83120313031C881303188817282C66
:10179400700C83120313031C051203180516282C5E
:1017A400282C7308F100F2017208003A0319DB2BAC
:1017B400282C7108003A0319082B013A0319102B3D
:1017C400033A0319182B013A0319202B073A03197A
:1017D400282B013A0319302B033A0319392B013A08
:1017E4000319422B0F3A03194A2B013A0319522BBE
:1017F400033A03195A2B013A0319622B073A0319C6
:101804006A2B013A0319722B033A03197A2B013A12
:101814000319822B1F3A03198A2B013A0319922BBD
:10182400033A03199A2B013A0319A22B073A031915
:10183400AA2B013A0319B22B033A0319BA2B013A22
:101844000319C22B0F3A0319CA2B282C0800F200E3
:10185400FC2C83120313070D070D0139512D512D53
:10186400512D83120313070EF000F00C700C013994
:10187400512D512D512D83120313070EF000700CBE
:101884000139512D512D512D83120313070E0139A6
:10189400512D512D512D83120313070CF000F00C20
:1018A400700C0139512D512D512D83120313070C46
:1018B400F000700C0139512D512D512D8312031359
:1018C400070C0139512D512D512D83120313070893
:1018D4000139512D512D512D83120313060801395D
:1018E400512D512D512D83120313060C0139512D05
:1018F400512D512D83120313060CF000700C013985
:10190400512D512D512D83120313060CF000F00CB0
:10191400700C0139512D512D512D83120313060ED4
:101924000139512D512D512D83120313060EF00050
:10193400700C0139512D512D512D83120313060EB4
:10194400F000F00C700C0139512D512D512D8312E2
:101954000313060D060D0139512D512D512D8312FE
:10196400031308080139512D512D512D83120313EE
:10197400080C0139512D512D512D83120313080CDC
:10198400F000700C0139512D512D512D8312031388
:10199400080CF000F00C700C0139512D512D512D13
:1019A40083120313080E0139512D512D512D831229
:1019B4000313080EF000700C0139512D512D512DD7
:1019C40083120313080EF000F00C700C0139512D32
:1019D400512D512D83120313080D080D0139512D7A
:1019E400512D512D83120313050E0139512D512D03
:1019F400512D512D7208F000F1017108003A0319BC
:101A0400042D512D7008003A03192B2C013A0319A7
:101A1400332C033A03193D2C013A0319462C073A97
:101A240003194D2C013A0319572C033A0319602C5E
:101A3400013A0319672C0F3A03196E2C013A031962
:101A4400752C033A03197C2C013A0319852C073AA7
:101A540003198F2C013A0319962C033A03199F2C6E
:101A6400013A0319A92C1F3A0319B12C013A03199D
:101A7400B82C033A0319BF2C013A0319C82C073AAE
:101A84000319D22C013A0319D92C033A0319E22C75
:101A9400013A0319EC2C0F3A0319F42C512D0800C8
:101AA400F600C52FF0018312031352080A128A1597
:101AB40006230A128A15F0018312031354080A122A
:101AC4008A1506230A128A15F00183120313560895
:101AD4000A128A1506230A128A15F00183120313C7
:101AE40058080A128A1506230A128A15FF2FF001D4
:101AF4008312031352080A128A1506230A128A153E
:101B0400F0018312031354080A128A1506230A12D9
:101B14008A15F0018312031356080A128A15062344
:101B24000A128A15F001F00A8312031358080A12E4
:101B34008A1506230A128A15FF2FF0018312031354
:101B440052080A128A1506230A128A15F001831212
:101B5400031354080A128A1506230A128A15F0017F
:101B6400F00A8312031356080A128A1506230A126E
:101B74008A15F0018312031358080A128A150623E2
:101B84000A128A15FF2FF0018312031352080A1256
:101B94008A1506230A128A15F001831203135408C6
:101BA4000A128A1506230A128A15F001F00A831212
:101BB400031356080A128A1506230A128A15F0011D
:101BC400F00A8312031358080A128A1506230A120C
:101BD4008A15FF2FF0018312031352080A128A1583
:101BE40006230A128A15F001F00A8312031354081B
:101BF4000A128A1506230A128A15F00183120313A6
:101C040056080A128A1506230A128A15F00183124D
:101C1400031358080A128A1506230A128A15FF2F7D
:101C2400F0018312031352080A128A1506230A12BA
:101C34008A15F001F00A8312031354080A128A1554
:101C440006230A128A15F0018312031356080A1296
:101C54008A1506230A128A15F001F00A8312031367
:101C640058080A128A1506230A128A15FF2FF00152
:101C74008312031352080A128A1506230A128A15BC
:101C8400F001F00A8312031354080A128A1506237A
:101C94000A128A15F001F00A8312031356080A1275
:101CA4008A1506230A128A15F001831203135808B1
:101CB4000A128A1506230A128A15FF2FF0018312CD
:101CC400031352080A128A1506230A128A15F00110
:101CD400F00A8312031354080A128A1506230A12FF
:101CE4008A15F001F00A8312031356080A128A15A2
:101CF40006230A128A15F001F00A83120313580806
:101D04000A128A1506230A128A15FF2FF001F00A17
:101D14008312031352080A128A1506230A128A151B
:101D2400F0018312031354080A128A1506230A12B7
:101D34008A15F0018312031356080A128A15062322
:101D44000A128A15F0018312031358080A128A151D
:101D540006230A128A15FF2FF001F00A83120313D7
:101D640052080A128A1506230A128A15F0018312F0
:101D7400031354080A128A1506230A128A15F0015D
:101D84008312031356080A128A1506230A128A15A7
:101D9400F001F00A8312031358080A128A15062365
:101DA4000A128A15FF2FF001F00A83120313520856
:101DB4000A128A1506230A128A15F00183120313E4
:101DC40054080A128A1506230A128A15F001F00A29
:101DD4008312031356080A128A1506230A128A1557
:101DE400F0018312031358080A128A1506230A12F3
:101DF4008A15FF2FF001F00A8312031352080A1206
:101E04008A1506230A128A15F00183120313540853
:101E14000A128A1506230A128A15F001F00A83129F
:101E2400031356080A128A1506230A128A15F001AA
:101E3400F00A8312031358080A128A1506230A1299
:101E44008A15FF2FF001F00A8312031352080A12B5
:101E54008A1506230A128A15F001F00A8312031365
:101E640054080A128A1506230A128A15F0018312ED
:101E7400031356080A128A1506230A128A15F0015A
:101E84008312031358080A128A1506230A128A15A4
:101E9400FF2FF001F00A8312031352080A128A1565
:101EA40006230A128A15F001F00A83120313540858
:101EB4000A128A1506230A128A15F00183120313E3
:101EC40056080A128A1506230A128A15F001F00A26
:101ED4008312031358080A128A1506230A128A1554
:101EE400FF2FF001F00A8312031352080A128A1515
:101EF40006230A128A15F001F00A83120313540808
:101F04000A128A1506230A128A15F001F00A8312AE
:101F1400031356080A128A1506230A128A15F001B9
:101F24008312031358080A128A1506230A128A1503
:101F3400FF2FF001F00A8312031352080A128A15C4
:101F440006230A128A15F001F00A831203135408B7
:101F54000A128A1506230A128A15F001F00A83125E
:101F6400031356080A128A1506230A128A15F00169
:101F7400F00A8312031358080A128A1506230A1258
:101F84008A15FF2FFF2F7608F400F5017508003A33
:101F94000319CD2FFF2F7408003A0319542D013A69
:101FA4000319792D033A03199F2D013A0319C52DFD
:101FB400073A0319EC2D013A0319122E033A0319B7
:101FC400392E013A0319602E0F3A0319882E013A6B
:101FD4000319AE2E033A0319D52E013A0319FC2E28
:101FE400073A0319242F013A03194B2F033A031913
:101FF400732F013A03199B2FFF2F0800FF1B0A2898
:1020040083137F1883170008840A0319FF0A080042
:1020140010308A000408840A820700340134003432
:102024000A34003464340034E8340334103427347C
:1020340007341834053404340234033408340934BE
:102044000A340B340D340C340E341034003411348F
:10205400003412340034133400341434003415348E
:10206400003416340034173400342034203420343F
:1020740020342034203420342034203420342034BC
:1020840020342034203420342034003420342334C9
:1020940020342D342D342D343E34203441347034E6
:1020A4006134673461347234203420340034203491
:1020B400453451345534493450344F342034203469
:1020C4005734693443346F34523465342034003423
:1020D40020344D346134723462346C3465342034C9
:1020E40043346F3475346E3474346534723420344C
:1020F400003420342A3420342D342D343E3420341A
:1021040043346F346E3466346934673475347234EE
:10211400203400342034273441342734203420340C
:1021240074346F342034203453347434613472344E
:1021340074342034003469344D3443343A3425340F
:102144006934203420342034203442346F347834D9
:102154003A34253469340034433461346E3474348D
:1021640069346434613464342034433461346E3407
:10217400693463346134733400344D3443343A3451
:1021840025346934203420342034203442346F34EC
:1021940078343A3425347534003469344D34513448
:1021A4003A34253469342034203454344D3443349F
:1021B4003A342534693400344D346F3464346F3424
:1021C400203441347234723461346E347134753471
:1021D40065340034253469342034433461346E3436
:0A21E400693463346134733400344D
:1022F6004F30831203139D00080001300A168A111D
:1023060025230A168A11080064008001840A04063F
:102316000319003404068829831603138116011253
:1023260081150111811001100800FC000830F00031
:102336000030F1000A128A1112200A168A117C084E
:102346000A168A11A7230A168A1108007E088A002F
:102356007F0882000A168A11A9210A168A118000AE
:10236600840A04087D0603190034FF0A0319FE0ACD
:10237600AD290A128A1502200A168A110A168A112E
:10238600EE260A168A11C7290A128A11B7230A16D7
:102396008A11C729C7290A128A110028F300F201F7
:1023A600D429731CD729D829DD297008F1007108B2
:1023B600F207DD290310F00D0310F30C7308031D5B
:1023C600E529E629D429E7297208E9290800F00059
:1023D60010307006031DF029F129F7298312031323
:1023E6000108042A042A042A15307006031DFC2954
:1023F600FD29042A8312031381010030042A042ACA
:10240600042A080030343034303430343034303438
:102416003034303430343034303430343034303496
:102426003034303431343234333441343434353466
:102436003634423437343834393443342A34303439
:102446002334443483120313BE00BF013E03031D2D
:102456002D2A2E2A3A2A7C087F3EFD007D08BF00E1
:102466003F080A168A1125230A168A11502A0230B5
:10247600831203133E06031D412A422A502A7C0872
:10248600BF3EFD007D08BF003F080A168A112523BE
:102496000A168A11502A502A502A08007808790408
:1024A6000319562A572A8C2AFD01FD0A662A01308D
:1024B6000310F80DF90DFF3E031D5B2A0130FC00E9
:1024C6007C08FD07662AF91F692A6A2A5A2A6C2A95
:1024D6006C2A79087B02031D722A78087A02031C8B
:1024E600752A762A7D2A7808FA027908031CFB03E6
:1024F600FB027D2A01300310F90CF80CFF3E031D88
:102506007E2A0130FD02031D892A8A2A6C2A8C2A1A
:102516008C2A7B08F9007A08F800912A08008312B1
:102526000313C301C401BC2A43083E07C1003F0888
:10253600C0000318C00AC31FA12AC00383120313D5
:102546004008C2004208FF00410884000A168A11AA
:1025560000200A168A110A168A1198210A168A116B
:10256600013083120313C3070318C40A0030C407DB
:10257600BC2A43083E07C1003F08C0000318C00A32
:10258600C31FC62AC003831203134008C2004208B1
:10259600FF00410884000A168A1100200A168A11D3
:1025A600003A031DD72AD82A972AD92A0800F50106
:1025B600F601700871040319E12AE22A1F2BF701BC
:1025C600F70AF12A01300310F00DF10DFF3E031D4D
:1025D600E62A0130F4007408F707F12AF11FF42AFD
:1025E600F52AE52AF72AF72A01300310F50DF60D2C
:1025F600FF3E031DF82A71087302031D042B7008A1
:102606007202031C072B082B102B7008F2027108AC
:10261600031CF303F3027514102B01300310F10CA5
:10262600F00CFF3E031D112B0130F702031D1C2B7E
:102636001D2BF72A1F2B1F2B7608F1007508F000BB
:10264600242B0800FA00FB01F9017A08F039F7009B
:102656007708FB007B08F70004300310F70CFF3EF9
:10266600031D302B7708F8007808FB007A080F392D
:10267600F7007708F9007B080A128A1552250A1610
:102686008A11F001831203135E080A128A150623C3
:102696000A168A11F001831203135A080A128A15C0
:1026A60006230A168A11F001F00A831203135C0846
:1026B6000A128A1506230A168A110530F000003020
:1026C600F1000A128A1112200A168A11F0018312E9
:1026D60003135C080A128A1506230A168A110530A6
:1026E600F0000030F1000A128A1112200A168A112F
:1026F60079080A128A1552250A168A11F001F00A7B
:10270600831203135C080A128A1506230A168A1115
:102716000530F0000030F1000A128A1112200A1664
:102726008A11F001831203135C080A128A15062324
:102736000A168A110330F0000030F1000A128A11DD
:1027460012200A168A110800FA00FB01F9017A081C
:10275600F039F7007708FB007B08F7000430031018
:10276600F70CFF3E031DB22B7708F8007808FB0034
:102776007A080F39F7007708F9007B080A128A15DC
:1027860052250A168A11F001F00A831203135E0815
:102796000A128A1506230A168A11F00183120313F8
:1027A6005A080A128A1506230A168A11F001F00A37
:1027B600831203135C080A128A1506230A168A1165
:1027C6000530F0000030F1000A128A1112200A16B4
:1027D6008A11F001831203135C080A128A15062374
:1027E6000A168A110530F0000030F1000A128A112B
:1027F60012200A168A1179080A128A1552250A1613
:102806008A11F001F00A831203135C080A128A1572
:1028160006230A168A110530F0000030F1000A126C
:102826008A1112200A168A11F001831203135C081A
:102836000A128A1506230A168A110330F0000030A0
:10284600F1000A128A1112200A168A110800F001F4
:102856000F3084000A168A110A200A168A110A12F3
:102866008A15E5210A168A11F001103084000A162D
:102876008A110A200A168A110A128A15E5210A16F1
:102886008A11F0010D3084000A168A110A200A16F0
:102896008A110A128A15E5210A168A11F0010E30EC
:1028A60084000A168A110A200A168A110A128A1543
:1028B600E5210A168A11F001F00A0C3084000A1686
:1028C6008A110A200A168A110A128A15E5210A16A1
:1028D6008A11F001F00A0B3084000A168A110A20C8
:1028E6000A168A110A128A15E5210A168A11F001BA
:1028F600103084000A168A110A200A168A110A1252
:102906008A1506230A168A11F0010F3084000A166A
:102916008A110A200A168A110A128A1506230A162D
:102926008A11F0010E3084000A168A110A200A164E
:102936008A110A128A1506230A168A11F0010D3029
:1029460084000A168A110A200A168A110A128A15A2
:1029560006230A168A11080083120313C4004408CA
:10296600FC00FD017C08DE007D08DF003E08FC005F
:10297600FD017C08DC007D08DD003F08FC00FD0150
:102986007C08DA007D08DB004008FC00FD017C08BD
:10299600D8007D08D9004108FC00FD017C08D6005E
:1029A6007D08D7004208FC00FD017C08D4007D08A4
:1029B600D5004308FC00FD017C08D2007D08D30049
:1029C600F00144080A128A15E5210A168A11F00157
:1029D600831203133E080A128A15E5210A168A1184
:1029E600F001831203133F080A128A15E5210A161D
:1029F6008A11F0018312031340080A128A15E52191
:102A06000A168A11F0018312031341080A128A1565
:102A1600E5210A168A11F0018312031342080A12ED
:102A26008A15E5210A168A11F00183120313430859
:102A36000A128A15E5210A168A110F30F0000030B5
:102A4600F1000A128A1112200A168A1102300A1699
:102A56008A1125230A168A110530F0000030F1008C
:102A66000A128A1112200A168A1128300A168A11A9
:102A760025230A168A1101300A168A1125230A16F9
:102A86008A110C300A168A1125230A168A11063075
:102A96000A168A1125230A168A11080083160313BB
:102AA6001811831203134408F9004508FA00460872
:102AB600FB004708FC0006300310F90DFA0DFB0D6C
:102AC600FC0DFF3E031D5F2D7C08F3007B08F20022
:102AD6007A08F1007908F0000130F7003130F6008D
:102AE6002D30F5000030F4000A128A1528200A1647
:102AF6008A117008FF3E83120313C8007108031879
:102B0600013EFF3EC9000130490200300319480268
:102B1600031C8E2D8F2DDD2D83160313181583129E
:102B260003134408F9004508FA004608FB00470865
:102B3600FC0004300310F90DFA0DFB0DFC0DFF3EF1
:102B4600031D9D2D7C08F3007B08F2007A08F10036
:102B56007908F0000130F7003130F6002D30F5002D
:102B66000030F4000A128A1528200A168A11700805
:102B7600FF3E83120313C80071080318013EFF3E8F
:102B8600C900480883160313990018128312031309
:102B9600981783160313871707178312031318163C
:102BA6008316031398168312031399019A01F52DC0
:102BB600F52DF52D48088316031399001812831274
:102BC6000313981783160313871707178312031324
:102BD60018168316031398168312031399019A0184
:102BE600F52DF52D080083120313BE00C301C401A1
:102BF6004408803AFF0080307F02031D042E043013
:102C06004302031C072E082E0A2E752E752E8312DC
:102C160003134308F60076073E0784000A168A1156
:102C26000A200A168A11F7000A168A110A200A16BD
:102C36008A11F8004308F9007907283E84007708CE
:102C460083138000840A780880004308F60076071C
:102C5600740784000A168A110A200A168A11F700D8
:102C66000A168A110A200A168A11F8004308F90082
:102C76007907203E840077088000840A780880005F
:102C8600F001F00A4308F6007607283E84000008A3
:102C96000A128A15E5210A168A11F0018312031316
:102CA6004308F6007607203E8400831300080A12C4
:102CB6008A15E5210A168A11013083120313C30708
:102CC6000318C40A0030C4074408803AFF00803065
:102CD6007F02031D702E04304302031C732E742ED4
:102CE6000A2E752E83120313BF01C0014008803AD5
:102CF600FF0080307F02031D822E04303F02031C3A
:102D0600852E862E882EED2EED2E83120313C101FD
:102D1600C2014208803AFF0080307F02031D952ED3
:102D260004304102031C982E992E9B2ED72ED72EA7
:102D3600831203133F08F60001300310F60DFF3E21
:102D4600031DA02E0310760D7507F70041087707BF
:102D5600F8007808840083130008F9003F08FA0099
:102D660002300310FA0DFF3E031DB42EC0307A0761
:102D7600FB0041087B07FC007C0884007908800082
:102D86000130C1070318C20A0030C2074208803A60
:102D9600FF0080307F02031DD22E04304102031C47
:102DA600D52ED62E9B2ED72E013083120313BF07A6
:102DB6000318C00A0030C0074008803AFF00803080
:102DC6007F02031DE82E04303F02031CEB2EEC2E7F
:102DD600882EED2E080083120313E001E00A153059
:102DE60084000A168A110A200A168A11CA004A089D
:102DF600BE00163084000A168A110A200A168A11A5
:102E0600CB004B08BF00143084000A168A110A2032
:102E16000A168A11CC004C08C000133084000A162A
:102E26008A110A200A168A11CD004D08C1001230F7
:102E360084000A168A110A200A168A11CE004E0844
:102E4600C200113084000A168A110A200A168A1155
:102E5600CF004F08C300173084000A168A110A20D3
:102E66000A168A110A168A11AF240A168A11183010
:102E760083120313CA004A08F400D030CB004B0873
:102E8600F50020300A168A11F6250A168A11003036
:102E960083120313C7000030C6002530C5008030FA
:102EA600C4000A168A1151250A168A110A168A11B1
:102EB6008F210A168A110A168A112A240A168A11DD
:102EC60083120313BB01BA01B9010A168A118021C4
:102ED6000A168A11FC01FC0A01300A168A112522FB
:102EE6000A168A114A3083120313BE008030BF00CF
:102EF6000A168A1192220A168A11FC01FC0A02306D
:102F06000A168A1125220A168A1183120313D00182
:102F160010305002031C902F912F932FAF2FAF2FFD
:102F26002E300A168A1198210A168A116430F0008A
:102F36000030F1000A128A1112200A168A11013095
:102F460083120313CA004A08D00710305002031C2C
:102F5600AD2FAE2F932FAF2F0A168A1180210A1696
:102F66008A11FC01FC0A01300A168A1125220A166A
:102F76008A115B3083120313BE008030BF000A162D
:102F86008A1192220A168A11FC01FC0A02300A16DC
:102F96008A1125220A168A1183120313D1011030D1
:102FA6005102031CD72FD82FDA2FF62FF62F2E30EB
:102FB6000A168A1198210A168A116430F000003028
:102FC600F1000A128A1112200A168A1101308312A0
:102FD6000313CA004A08D10710305102031CF42F0C
:102FE600F52FDA2FF62FFA30F0000030F1000A1232
:0A2FF6008A1112200A168A11080041
:02400E00BA3FB7
:00000001FF
