:100000000C9462000C948A000C948A000C948A0070
:100010000C948A000C948A000C948A000C948A0038
:100020000C948A000C948A000C948A000C948A0028
:100030000C948A000C948A000C948A000C948A0018
:100040000C94A8030C948A000C9418040C94F203EA
:100050000C948A000C948A000C948A000C948A00F8
:100060000C948A000C948A000000000023002600F3
:10007000290000000008000201000003040700003E
:1000800000000000000000000000250028002B00F8
:1000900000000000240027002A00040404040404D3
:1000A0000404020202020202030303030303010227
:1000B00004081020408001020408102001020408F6
:1000C00010204A0411241FBECFEFD8E0DEBFCDBF01
:1000D00011E0A0E0B1E0E6E7FBE002C005900D9280
:1000E000A833B107D9F721E0A8E3B1E001C01D9220
:1000F000A43EB207E1F710E0C2E6D0E004C02197C9
:10010000FE010E94AE05C136D107C9F70E94AA04BC
:100110000C94B9050C94000090E0FC01E255FF4FEF
:100120002491FC01E656FF4F8491882399F090E0DA
:10013000880F991FFC01E057FF4FA591B491FC0176
:10014000EA57FF4F859194918FB7F894EC91E22B89
:10015000EC938FBF0895FC018081823069F018F420
:10016000813031F00895833059F0843061F0089582
:1001700088EC8093B300089588EC8093B4000895D0
:1001800088EC87BD089588EC88BD0895833081F0A0
:1001900028F4813099F08230A1F008958730A9F0D9
:1001A0008830B9F08430D1F4809180008F7D03C015
:1001B000809180008F7780938000089584B58F7739
:1001C00002C084B58F7D84BD08958091B0008F7783
:1001D00003C08091B0008F7D8093B0000895CF93CD
:1001E000DF93282F30E0F901EE58FF4F8491F90199
:1001F000E255FF4FD491F901E656FF4FC491CC234D
:1002000091F081110E94C600EC2FF0E0EE0FFF1F6D
:10021000E859FF4FA591B491EC91ED2381E090E076
:1002200021F480E002C080E090E0DF91CF9108955A
:100230001F93CF93DF93282F30E0F901EE58FF4F43
:100240008491F901E255FF4FD491F901E656FF4F31
:10025000C491CC23C1F0162F81110E94C600EC2F4F
:10026000F0E0EE0FFF1FEA57FF4FA591B4919FB743
:10027000F894111104C08C91D095D82302C0EC9150
:10028000DE2BDC939FBFDF91CF911F910895CF9319
:10029000DF9360E08CE00E94180160E088E00E943B
:1002A0001801C7E0D0E060E084E00E94180180916E
:1002B000DE0190E00C2E02C0959587950A94E2F736
:1002C00080FF02C061E001C060E088E00E94180188
:1002D00061E084E00E941801219728F761E08CE03A
:1002E000DF91CF910C9418018CE00E948C0087E084
:1002F0000E948C0088E00E948C0084E00E948C00A8
:100300001092DE010E94470160E087E00C94180122
:100310003FB7F89480913D0190913E01A0913F013B
:10032000B091400126B5A89B05C02F3F19F001965A
:10033000A11DB11D3FBFBA2FA92F982F8827820F6B
:10034000911DA11DB11DBC01CD0142E0660F771FBB
:10035000881F991F4A95D1F70895CF92DF92EF92A7
:10036000FF920F931F93CF93DF936C017A018B0160
:10037000C0E0D0E0CE15DF0581F0D8016D918D0190
:10038000D601ED91FC910190F081E02DC601099517
:10039000892B11F02196EECF7E01C701DF91CF911D
:1003A0001F910F91FF90EF90DF90CF9008950895E7
:1003B00080E090E00895FC01538D448D252F30E0BE
:1003C000842F90E0821B930B541710F0CF96089562
:1003D00001970895FC01918D828D981761F0828DAF
:1003E000DF01A80FB11D5D968C91928D9F5F9F7369
:1003F000928F90E008958FEF9FEF0895FC01918D0B
:10040000828D981731F0828DE80FF11D858D90E077
:1004100008958FEF9FEF0895FC01918D228D892F14
:1004200090E0805C9F4F821B91098F7399270895FC
:1004300081E491E00E940C0221E0892B09F420E084
:10044000822F0895FC01848DDF01A80FB11DA35AEE
:10045000BF4F2C91848D90E001968F739927848FE4
:10046000A689B7892C93A089B1898C918370806407
:100470008C93938D848D981306C00288F389E02DA8
:1004800080818F7D80830895EF92FF920F931F9359
:10049000CF93DF93EC0181E0888F9B8D8C8D981337
:1004A00005C0E889F989808185FD26C0F62E0B8D6F
:1004B00010E00F5F1F4F0F731127E02E8C8DE81295
:1004C0000CC00FB607FCFACFE889F989808185FF57
:1004D000F5CFCE010E942202F1CF8B8DFE01E80FF5
:1004E000F11DE35AFF4FF0829FB7F8940B8FEA8912
:1004F000FB89808180620AC09FB7F894EE89FF89EA
:100500006083E889F98980818370806480839FBFDC
:1005100081E090E0DF91CF911F910F91FF90EF90DC
:100520000895CF93DF93EC01888D8823C9F0EA8981
:10053000FB89808185FD05C0A889B9898C9186FDDC
:100540000FC00FB607FCF5CF808185FFF2CFA889D9
:10055000B9898C9185FFEDCFCE010E942202E7CFB1
:10056000DF91CF91089580E090E0892B29F00E94DF
:10057000180281110C9400000895FC0180818230E2
:1005800049F018F4813079F00895833031F08430E7
:1005900039F0089524E031E008C027E035E005C0D7
:1005A00026E030E002C023E032E06230A9F064309F
:1005B00029F16130B9F581E090E0AC0101C0440F50
:1005C0003A95EAF73091DE01432B01C0880F2A9556
:1005D000EAF78095842322C081E090E0AC0101C05D
:1005E000440F3A95EAF7342F30954091DE013423D9
:1005F00001C0880F2A95EAF7832B10C041E050E034
:10060000CA0101C0880F3A95EAF701C0440F2A9544
:10061000EAF7842B80959091DE0189238093DE0197
:100620000C94470108958F929F92AF92BF92CF9200
:10063000DF92EF92FF92CF93C82F0E94EF00892B99
:1006400089F10E9488014B015C0188ECC82ED12CF5
:10065000E12CF12C0E948801DC01CB018819990959
:10066000AA09BB09883E9340A105B10598F321E092
:10067000C21AD108E108F10888EE880E83E0981EBE
:10068000A11CB11CC114D104E104F10419F78C2F91
:100690000E94EF0031E020E0892B09F430E0832F45
:1006A000922F00C0CF91FF90EF90DF90CF90BF903E
:1006B000AF909F908F90089564E082EE91E00E9449
:1006C000BD0264E080EE91E00C94BD028E3008F033
:1006D0008E508770806480937C0080917A00806463
:1006E00080937A0080917A0086FDFCCF209178007B
:1006F0008091790030E0382B81E090E0283C310592
:1007000010F480E090E00895CF93DF93009779F0A4
:10071000FC0101900020E9F73197AF01481B590B0C
:10072000BC0181E491E00E94AD01EC0102C0C0E097
:10073000D0E042E050E062E171E081E491E00E94AB
:10074000AD018C0F9D1FDF91CF9108950E94B405DC
:100750001F920F920FB60F9211242F933F938F93F6
:100760009F93AF93BF938091390190913A01A091EB
:100770003B01B0913C013091380123E0230F2D372C
:1007800020F40196A11DB11D05C026E8230F029695
:10079000A11DB11D209338018093390190933A0136
:1007A000A0933B01B0933C0180913D0190913E01AB
:1007B000A0913F01B09140010196A11DB11D809310
:1007C0003D0190933E01A0933F01B0934001BF9142
:1007D000AF919F918F913F912F910F900FBE0F90EE
:1007E0001F9018951F920F920FB60F9211242F93FE
:1007F0003F934F935F936F937F938F939F93AF93A9
:10080000BF93EF93FF9381E491E00E942202FF9156
:10081000EF91BF91AF919F918F917F916F915F9178
:100820004F913F912F910F900FBE0F901F901895F1
:100830001F920F920FB60F9211242F938F939F93B5
:10084000EF93FF93E0915101F09152018081E0918B
:100850005701F091580182FD12C0908180915A0198
:100860008F5F8F7320915B01821751F0E0915A01E5
:10087000F0E0EF5BFE4F958F80935A0101C08081BD
:10088000FF91EF919F918F912F910F900FBE0F903D
:100890001F901895CF93E1E4F1E01382128288EE65
:1008A00093E0A0E0B0E084839583A683B78384E0DF
:1008B00091E09183808385EC90E09587848784EC38
:1008C00090E09787868780EC90E0918B808B81EC1D
:1008D00090E0938B828B82EC90E0958B848B86ECFE
:1008E00090E0978B868B118E128E138E148E109241
:1008F000DF01E2EEF1E081E08083C2E0C1830E948B
:1009000074018091DE01837F8093DE010E944701A4
:10091000E0EBF0E0808183688083C093B1001092A7
:10092000B3008BE00E948C00E0EEF1E084E0808375
:10093000C1830E9474018091DE018E7B8093DE0171
:100940000E94470184B5836284BD18BC85E0CF91C5
:100950000C948C00789484B5826084BD84B58160E9
:1009600084BD85B5826085BD85B5816085BD80917A
:100970006E00816080936E001092810080918100F2
:1009800082608093810080918100816080938100EA
:10099000809180008160809380008091B1008460AC
:1009A0008093B1008091B00081608093B00080910D
:1009B0007A00846080937A0080917A0082608093CC
:1009C0007A0080917A00816080937A0080917A0029
:1009D000806880937A001092C1000E945C03E091CD
:1009E0005101F091520182E08083E0914D01F0913C
:1009F0004E011082E0914F01F09150018FEC808305
:100A000010925901E0915501F091560186E08083E2
:100A1000E0915301F0915401808180618083E091E5
:100A20005301F0915401808188608083E0915301EB
:100A3000F0915401808180688083E0915301F091AE
:100A4000540180818F7D808380E090E00E94660366
:100A50000197D1F481E090E00E9466030197A1F430
:100A600085E191E00E94840387E090E00E941303F7
:100A7000019709F470C088E090E00E941303019789
:100A800009F469C061E02BC080E090E00E94660339
:100A9000019731F481E090E00E946603892B69F0B0
:100AA00080E090E00E946603892B69F581E090E088
:100AB0000E946603019739F537C08DE191E00E94ED
:100AC000840387E090E00E941303019709F443C078
:100AD00088E090E00E9413030197E9F162E082EE62
:100AE00091E00E94BD0261E080EE91E00E94BD02B3
:100AF00082EE91E00E94AB0080EE91E00E94AB009C
:100B00000E94B302A1CF80E090E00E946603892B8F
:100B1000B9F781E090E00E946603892B89F78FE2A4
:100B200091E00E94840317C087E291E00E94840351
:100B300087E090E00E941303019769F088E090E05D
:100B40000E941303019739F061E082EE91E00E9468
:100B5000BD0262E0C9CF0E945C03D2CFEE0FFF1F3F
:100B60000590F491E02D099481E090E0F8940C94C4
:060B7000B905F894FFCF67
:100B7600000000004402AD01DB0191020C02EA0113
:100B8600FE010D0A004176616E7A617200497A7142
:100B960075696572646100446572656368610044E5
:080BA6006574656E65720000C4
:107E0000112484B714BE81FFF0D085E080938100F7
:107E100082E08093C00088E18093C10086E0809377
:107E2000C20080E18093C4008EE0C9D0259A86E02C
:107E300020E33CEF91E0309385002093840096BBD3
:107E4000B09BFECF1D9AA8958150A9F7CC24DD24C4
:107E500088248394B5E0AB2EA1E19A2EF3E0BF2EE7
:107E6000A2D0813461F49FD0082FAFD0023811F036
:107E7000013811F484E001C083E08DD089C08234E0
:107E800011F484E103C0853419F485E0A6D080C0E4
:107E9000853579F488D0E82EFF2485D0082F10E0AE
:107EA000102F00270E291F29000F111F8ED06801E7
:107EB0006FC0863521F484E090D080E0DECF843638
:107EC00009F040C070D06FD0082F6DD080E0C81688
:107ED00080E7D80618F4F601B7BEE895C0E0D1E017
:107EE00062D089930C17E1F7F0E0CF16F0E7DF06D8
:107EF00018F0F601B7BEE89568D007B600FCFDCFD4
:107F0000A601A0E0B1E02C9130E011968C91119780
:107F100090E0982F8827822B932B1296FA010C0160
:107F200087BEE89511244E5F5F4FF1E0A038BF0790
:107F300051F7F601A7BEE89507B600FCFDCF97BE46
:107F4000E89526C08437B1F42ED02DD0F82E2BD052
:107F50003CD0F601EF2C8F010F5F1F4F84911BD097
:107F6000EA94F801C1F70894C11CD11CFA94CF0C13
:107F7000D11C0EC0853739F428D08EE10CD085E9AC
:107F80000AD08FE07ACF813511F488E018D01DD067
:107F900080E101D065CF982F8091C00085FFFCCF94
:107FA0009093C60008958091C00087FFFCCF809118
:107FB000C00084FD01C0A8958091C6000895E0E648
:107FC000F0E098E1908380830895EDDF803219F02E
:107FD00088E0F5DFFFCF84E1DECF1F93182FE3DFCA
:107FE0001150E9F7F2DF1F91089580E0E8DFEE27F6
:047FF000FF270994CA
:027FFE00040479
:0400000300007E007B
:00000001FF
