:020000040000FA
:060000000A128A11ED2F27
:10000C000134FF308316031392000530831203135F
:10001C0092004F3097000800D6280A128A15C82281
:10002C000A128A110D3084000A128A150A200A124B
:10003C008A110A128A151B230A128A11013A031D0E
:10004C00282829284D28C830F0000030F1000A1269
:10005C008A151D240A128A110D3084000A128A1581
:10006C000A200A128A110A128A151B230A128A11F3
:10007C00013A031D42284328E82883120313E301A5
:10008C000A128A156D220A128A11E828E8288312AE
:10009C000313E301E30AE828E8280A128A11E9218C
:1000AC000A128A110D3084000A128A150A200A12CB
:1000BC008A110A128A151B230A128A11013A031D8E
:1000CC0068286928D028C830F0000030F1000A12E6
:1000DC008A151D240A128A110D3084000A128A1501
:1000EC000A200A128A110A128A151B230A128A1173
:1000FC00013A031D82288328E8280A128A156D22EA
:10010C000A128A1183120313D40105305402031C02
:10011C00902891289328CC28CC28F001F00A0F3095
:10012C0084000A128A150A200A128A110A128A11EC
:10013C001C240A128A11FA30F0000030F1000A1265
:10014C008A151D240A128A11F0010F3084000A123C
:10015C008A150A200A128A110A128A111C240A1200
:10016C008A11FA30F0000030F1000A128A151D24B1
:10017C000A128A11013083120313D2005208D407D9
:10018C0005305402031CCB28CC289328E301E30A46
:10019C00E828E82883120313E301E828E828E82874
:1001AC00831203136308D200D3015308003A0319D6
:1001BC00E028E8285208003A03195328013A031999
:1001CC001328E828080083120313CF004530C7001A
:1001DC004708CA00CF29253050060319F628F728FE
:1001EC0003295008C7004F08840047088313800078
:1001FC000130C7004708CF07CF29CB010A29E329D3
:10020C0027292729CF2927290130C407FF30440784
:10021C0084000A128A150A200A128A11D000C7001B
:10022C00C8014808003A03191C29CF294708003A8D
:10023C000319E329643A031927290D3A03192729CD
:10024C00CF294A08840083130008CD00840A0008D3
:10025C00CE000230C7004708CA07CE1F36293729FF
:10026C0041290330C7004708CB04CD09CE09CD0A7C
:10027C000319CE0A4129D001D00A05305006031DBE
:10028C00482949294B29732973295008C700470766
:10029C00013E84000A128A150A200A128A11C8002B
:1002AC000A128A150A200A128A11C90049084E023C
:1002BC00031D622948084D0203186529662968291F
:1002CC00732973290130C7004708D0070530500641
:1002DC00031D712972294B2973294B080339031902
:1002EC007829792985292D30C7004F0884004708C3
:1002FC00831380000130C7004708CF0785295008B9
:10030C00C7004708CC00C4290A30F8000030F900B7
:10031C004C08C7004707013E84000A128A150A20C0
:10032C000A128A11F0000A128A150A200A128A117E
:10033C00F1004E08F3004D08F2000A128A15D22380
:10034C000A128A117108FB007008FA000A128A1549
:10035C0049230A128A117808303E83120313C8000D
:10036C004808D0005008C7004F0884004708831382
:10037C0080000130C7004708CF07C429FF30C700F1
:10038C004708CC074C0A031DCC29CD298A29CF2933
:10039C00CF290130C407FF30440784000A128A15A4
:1003AC000A200A128A11C7004708D0005008031D02
:1003BC00E029E129F128E329E3294F08840083137C
:1003CC008001E82908000030F700F8000A128A15AD
:1003DC00D1240A128A11780883120313B300770808
:1003EC00B200FC01FC0A01300A128A15EF220A1233
:1003FC008A11483083120313D1005108C40033080A
:10040C00C6003208C50034300A128A11E9200A12DB
:10041C008A11343083120313C4000030C5000A1251
:10042C008A158A230A128A11FC01FC0A02300A126C
:10043C008A15EF220A128A11DF2AF0011730840084
:10044C000A128A150A200A128A110A128A111C240D
:10045C000A128A110030F400F5000A128A156B2476
:10046C000A128A11803083120313C4008030C50035
:10047C000A128A158A230A128A11FA2AF001F00A42
:10048C00173084000A128A150A200A128A110A12DD
:10049C008A111C240A128A110230F4000030F50073
:1004AC000A128A156B240A128A11723083120313F2
:1004BC00C4008030C5000A128A158A230A128A11D8
:1004CC00FA2AF001173084000A128A150A200A123F
:1004DC008A110A128A111C240A128A110230F400A1
:1004EC000030F5000A128A156B240A128A118E301C
:1004FC0083120313C4008030C5000A128A158A23A4
:10050C000A128A11FA2AF001F00A173084000A1232
:10051C008A150A200A128A110A128A111C240A123C
:10052C008A110030F400F5000A128A156B240A12A5
:10053C008A11563083120313C4008030C5000A128E
:10054C008A158A230A128A11FA2AF001F00A173046
:10055C0084000A128A150A200A128A110A128A11B8
:10056C001C240A128A110130F4000030F5000A1222
:10057C008A156B240A128A11643083120313C40087
:10058C008030C5000A128A158A230A128A11FA2AA7
:10059C000130F7000030F8000A128A15D1240A1233
:1005AC008A11780883120313B3007708B200FA2A71
:1005BC00FA2A831203133308003A0319E62AFA2A9B
:1005CC003208003A0319232A013A0319442A033A40
:1005DC000319672A013A0319892A073A0319AB2A26
:1005EC00013A0319CE2AFA2A0800F300C62B700C24
:1005FC0083160313031C8713031887171B2C700C0B
:10060C0083160313031C0713031807171B2C700CFA
:10061C0083160313031C8712031887161B2C700CEC
:10062C0083160313031C0712031807161B2C700CDC
:10063C0083160313031C8711031887151B2C700CCE
:10064C0083160313031C0711031807151B2C700CBE
:10065C0083160313031C8710031887141B2C700CB0
:10066C0083160313031C0710031807141B2C700CA0
:10067C0083160313031C0610031806141B2C700C92
:10068C0083160313031C8610031886141B2C700C82
:10069C0083160313031C0611031806151B2C700C70
:1006AC0083160313031C8611031886151B2C700C60
:1006BC0083160313031C0612031806161B2C700C4E
:1006CC0083160313031C8612031886161B2C700C3E
:1006DC0083160313031C0613031806171B2C700C2C
:1006EC0083160313031C8613031886171B2C700C1C
:1006FC0083160313031C0810031808141B2C700C0E
:10070C0083160313031C8810031888141B2C700CFD
:10071C0083160313031C0811031808151B2C700CEB
:10072C0083160313031C8811031888151B2C700CDB
:10073C0083160313031C0812031808161B2C700CC9
:10074C0083160313031C8812031888161B2C700CB9
:10075C0083160313031C0813031808171B2C700CA7
:10076C0083160313031C8813031888171B2C700C97
:10077C0083160313031C0512031805161B2C1B2CC4
:10078C007308F100F2017208003A0319CE2B1B2CEE
:10079C007108003A0319FD2A013A0319052B033A93
:1007AC0003190D2B013A0319152B073A03191D2BAD
:1007BC00013A0319252B033A03192D2B013A03197E
:1007CC00352B0F3A03193D2B013A0319452B033AEC
:1007DC0003194D2B013A0319552B073A03195D2BBD
:1007EC00013A0319652B033A03196D2B013A0319CE
:1007FC00752B1F3A03197D2B013A0319852B033AEC
:10080C0003198D2B013A0319952B073A03199D2BCC
:10081C00013A0319A52B033A0319AD2B013A03191D
:10082C00B52B0F3A0319BD2B1B2C0800F300E92C38
:10083C00700C83120313031C8713031887173E2DA8
:10084C00700C83120313031C0713031807173E2D98
:10085C00700C83120313031C8712031887163E2D8A
:10086C00700C83120313031C0712031807163E2D7A
:10087C00700C83120313031C8711031887153E2D6C
:10088C00831203139701700C031C0711031807152F
:10089C003E2D831203139D01700C031C871003184B
:1008AC0087143E2D700C83120313031C07100318BE
:1008BC0007143E2D700C83120313031C061003182F
:1008CC0006143E2D700C83120313031C86100318A0
:1008DC0086143E2D700C83120313031C061103188F
:1008EC0006153E2D700C83120313031C861103187E
:1008FC0086153E2D700C83120313031C061203186D
:10090C0006163E2D700C83120313031C861203185B
:10091C0086163E2D700C83120313031C061303184A
:10092C0006173E2D700C83120313031C8613031839
:10093C0086173E2D700C83120313031C081003182A
:10094C0008143E2D700C83120313031C881003181B
:10095C0088143E2D700C83120313031C081103180A
:10096C0008153E2D700C83120313031C88110318F9
:10097C0088153E2D700C83120313031C08120318E8
:10098C0008163E2D700C83120313031C88120318D7
:10099C0088163E2D700C83120313031C08130318C6
:1009AC0008173E2D700C83120313031C88130318B5
:1009BC0088173E2D700C83120313031C05120318A9
:1009CC0005163E2D3E2D7308F100F2017208003A17
:1009DC000319F12C3E2D7108003A03191E2C013A13
:1009EC000319262C033A03192E2C013A0319362C21
:1009FC00073A03193E2C013A0319462C033A031902
:100A0C004F2C013A0319582C0F3A0319602C013A58
:100A1C000319682C033A0319702C013A0319782C2A
:100A2C00073A0319802C013A0319882C033A03194D
:100A3C00902C013A0319982C1F3A0319A02C013A57
:100A4C000319A82C033A0319B02C013A0319B82C3A
:100A5C00073A0319C02C013A0319C82C033A03199D
:100A6C00D02C013A0319D82C0F3A0319E02C3E2D47
:100A7C000800F600B22FF0018312031355080A1276
:100A8C008A111C240A128A11F001831203135708CD
:100A9C000A128A111C240A128A11F0018312031300
:100AAC0059080A128A111C240A128A11F0018312A5
:100ABC0003135B080A128A111C240A128A11EC2FE8
:100ACC00F0018312031355080A128A111C240A120E
:100ADC008A11F0018312031357080A128A111C247D
:100AEC000A128A11F0018312031359080A128A118F
:100AFC001C240A128A11F001F00A831203135B08FA
:100B0C000A128A111C240A128A11EC2FF00183128A
:100B1C00031355080A128A111C240A128A11F001B7
:100B2C008312031357080A128A111C240A128A1101
:100B3C00F001F00A8312031359080A128A111C24BB
:100B4C000A128A11F001831203135B080A128A112C
:100B5C001C240A128A11EC2FF0018312031355087E
:100B6C000A128A111C240A128A11F001831203132F
:100B7C0057080A128A111C240A128A11F001F00A71
:100B8C008312031359080A128A111C240A128A119F
:100B9C00F001F00A831203135B080A128A111C2459
:100BAC000A128A11EC2FF0018312031355080A1252
:100BBC008A111C240A128A11F001F00A8312031301
:100BCC0057080A128A111C240A128A11F001831286
:100BDC00031359080A128A111C240A128A11F001F3
:100BEC00831203135B080A128A111C240A128A113D
:100BFC00EC2FF0018312031355080A128A111C24DE
:100C0C000A128A11F001F00A8312031357080A1210
:100C1C008A111C240A128A11F00183120313590839
:100C2C000A128A111C240A128A11F001F00A83128A
:100C3C0003135B080A128A111C240A128A11EC2F66
:100C4C00F0018312031355080A128A111C240A128C
:100C5C008A11F001F00A8312031357080A128A1141
:100C6C001C240A128A11F001F00A8312031359088A
:100C7C000A128A111C240A128A11F001831203131E
:100C8C005B080A128A111C240A128A11EC2FF0013B
:100C9C008312031355080A128A111C240A128A1192
:100CAC00F001F00A8312031357080A128A111C244C
:100CBC000A128A11F001F00A8312031359080A125E
:100CCC008A111C240A128A11F001F00A83120313F0
:100CDC005B080A128A111C240A128A11EC2FF001EB
:100CEC00F00A8312031355080A128A111C240A12E3
:100CFC008A11F0018312031357080A128A111C245B
:100D0C000A128A11F0018312031359080A128A116C
:100D1C001C240A128A11F001831203135B080A12B5
:100D2C008A111C240A128A11EC2FF001F00A83128A
:100D3C00031355080A128A111C240A128A11F00195
:100D4C008312031357080A128A111C240A128A11DF
:100D5C00F0018312031359080A128A111C240A1277
:100D6C008A11F001F00A831203135B080A128A112C
:100D7C001C240A128A11EC2FF001F00A83120313BF
:100D8C0055080A128A111C240A128A11F0018312C6
:100D9C00031357080A128A111C240A128A11F00133
:100DAC00F00A8312031359080A128A111C240A121E
:100DBC008A11F001831203135B080A128A111C2496
:100DCC000A128A11EC2FF001F00A83120313550852
:100DDC000A128A111C240A128A11F00183120313BD
:100DEC0057080A128A111C240A128A11F001F00AFF
:100DFC008312031359080A128A111C240A128A112D
:100E0C00F001F00A831203135B080A128A111C24E6
:100E1C000A128A11EC2FF001F00A83120313550801
:100E2C000A128A111C240A128A11F001F00A831288
:100E3C00031357080A128A111C240A128A11F00192
:100E4C008312031359080A128A111C240A128A11DC
:100E5C00F001831203135B080A128A111C240A1274
:100E6C008A11EC2FF001F00A8312031355080A12B1
:100E7C008A111C240A128A11F001F00A831203133E
:100E8C0057080A128A111C240A128A11F0018312C3
:100E9C00031359080A128A111C240A128A11F00130
:100EAC00F00A831203135B080A128A111C240A121B
:100EBC008A11EC2FF001F00A8312031355080A1261
:100ECC008A111C240A128A11F001F00A83120313EE
:100EDC0057080A128A111C240A128A11F001F00A0E
:100EEC008312031359080A128A111C240A128A113C
:100EFC00F001831203135B080A128A111C240A12D4
:100F0C008A11EC2FF001F00A8312031355080A1210
:100F1C008A111C240A128A11F001F00A831203139D
:100F2C0057080A128A111C240A128A11F001F00ABD
:100F3C008312031359080A128A111C240A128A11EB
:100F4C00F001F00A831203135B080A128A111C24A5
:100F5C000A128A11EC2FEC2F7608F400F5017508B3
:100F6C00003A0319BA2FEC2F7408003A0319412DDB
:100F7C00013A0319662D033A03198C2D013A031912
:100F8C00B22D073A0319D92D013A0319FF2D033A53
:100F9C000319262E013A03194D2E0F3A0319752EFB
:100FAC00013A03199B2E033A0319C22E013A031975
:100FBC00E92E073A0319112F013A0319382F033A76
:100FCC000319602F013A0319882FEC2F08000A121D
:100FDC008A1106200A128A11E30083132030840040
:100FEC0044300A128A1574220A128A1183010A12D9
:100FFC008A158D2AFF1B0A2883137F188317000874
:10100C00840A0319FF0A080008308A000408840ABD
:10101C0082070034013400340A3400346434003460
:10102C00E8340334103427341434003400340034DE
:10103C0006340034013400340434003403340034F6
:10104C000234003408340034093400340A340034D7
:10105C000B3400340C3400340D3400340E340034B2
:10106C002034453471347534693470346F34203421
:10107C0044346934763469346E34613473342034D6
:10108C000034313438343A344634653462343A34CA
:10109C00323430342D3435344234493445344534CB
:1010AC00003443346F346E347434613464346F34CC
:1010BC0072342034253469343A34203400344434C6
:1010CC0043342D344F34463446342F344134433476
:1010DC002D344F344E3420340034443443342D34C6
:1010EC0049345A3451342F34413443342D344F3431
:1010FC004E3420340034443443342D344434453499
:10110C0052342F34413443342D344F344E34203444
:10111C000034443443342D344F34463446342F3465
:10112C00413443342D344F34463446340034443443
:10113C0043342D344434453452342F344134433405
:0A114C002D344F344634463400348D
:1014D0004F30831203139D00080001300A128A1551
:1014E00051250A128A15080064008001840A040646
:1014F000031900340406752AFC000830F00000309F
:10150000F1000A128A151D240A128A157C080A1293
:101510008A15D3250A128A1508000A128A15A222F2
:101520000A128A150A128A15DC260A128A15982AC6
:101530000A128A1112200A128A15982A982A0A1267
:101540008A1100288130831203139F00C230831652
:1015500003139F0085013F3085008601003086001F
:101560008701003087000A128A1107200A128A15A3
:101570000A128A1568220A128A1588010030880822
:1015800083120313890107308316031389000800AF
:10159000FC01FC0A01300A128A15EF220A128A1590
:1015A000273083120313C4008030C5000A128A1545
:1015B0008A230A128A15FC01FC0A02300A128A15D3
:1015C000EF220A128A15383083120313C4008030C8
:1015D000C5000A128A158A230A128A150800831286
:1015E0000313C400C5014403031DF72AF82A042B82
:1015F0007C087F3EFD007D08C50045080A128A155B
:1016000051250A128A151A2B02308312031344063D
:10161000031D0B2B0C2B1A2B7C08BF3EFD007D08F5
:10162000C50045080A128A1551250A128A151A2B77
:101630001A2B1A2B0800F200352B8312031309080A
:101640000139482B482B482B83120313090C01390D
:10165000482B482B482B83120313090CF000700C05
:101660000139482B482B482B482B7208F000F10118
:101670007108003A03193D2B482B7008003A0319F2
:101680001D2B013A0319242B033A03192B2B482B4A
:1016900008007808790403194E2B4F2B842BFD0189
:1016A000FD0A5E2B01300310F80DF90DFF3E031DFE
:1016B000532B0130FC007C08FD075E2BF91F612BCA
:1016C000622B522B642B642B79087B02031D6A2B3F
:1016D00078087A02031C6D2B6E2B752B7808FA02A2
:1016E0007908031CFB03FB02752B01300310F90C76
:1016F000F80CFF3E031D762B0130FD02031D812BEC
:10170000822B642B842B842B7B08F9007A08F80049
:10171000892B080083120313C901CA01B42B49089D
:101720004407C7004508C6000318C60AC91F992BFD
:10173000C603831203134608C8004808FF00470881
:1017400084000A128A1500200A128A150A128A15C4
:101750007C220A128A15013083120313C907031869
:10176000CA0A0030CA07B42B49084407C700450815
:10177000C6000318C60AC91FBE2BC6038312031373
:101780004608C8004808FF00470884000A128A1566
:1017900000200A128A15003A031DCF2BD02B8F2B65
:1017A000D12B0800F501F601700871040319D92B3B
:1017B000DA2B172CF701F70AE92B01300310F00D93
:1017C000F10DFF3E031DDE2B0130F4007408F70716
:1017D000E92BF11FEC2BED2BDD2BEF2BEF2B013049
:1017E0000310F50DF60DFF3E031DF02B710873027B
:1017F000031DFC2B70087202031CFF2B002C082C0D
:101800007008F2027108031CF303F3027514082C2C
:1018100001300310F10CF00CFF3E031D092C0130C8
:10182000F702031D142C152CEF2B172C172C760800
:10183000F1007508F0001C2C0800F301F401740895
:10184000803AF2007108803A7202031D292C700858
:101850007302031C2C2C2D2C2F2C6A2C6A2CF501C6
:10186000F6017608803AFF0081307F02031D3A2C92
:1018700090307502031C3D2C3E2C402C552C552CD1
:1018800000000130F5070318F60A0030F607760865
:10189000803AFF0081307F02031D502C903075028A
:1018A000031C532C542C402C552C0130F3070318E7
:1018B000F40A0030F4077408803AF2007108803AA4
:1018C0007202031D652C70087302031C682C692CBE
:1018D0002F2C6A2C0800C02CF001F00A1330840071
:1018E0000A128A150A200A128A150A128A111C2461
:1018F0000A128A15F001153084000A128A150A208E
:101900000A128A150A128A111C240A128A15D02C6E
:10191000F001133084000A128A150A200A128A156F
:101920000A128A111C240A128A15F001F00A1530D5
:1019300084000A128A150A200A128A150A128A11CC
:101940001C240A128A15D02CF001133084000A12CC
:101950008A150A200A128A150A128A111C240A12F0
:101960008A15F001153084000A128A150A200A121D
:101970008A150A128A111C240A128A15D02CD02C1E
:101980007508003A0319C52CD02C7408003A0319C5
:10199000A42C013A03196C2C033A0319882CD02C7F
:1019A000080077087804031DD62CD72C412D0B3066
:1019B00084000A128A150A200A128A15F9000A12EE
:1019C0008A150A200A128A15FA00113084000A12B8
:1019D0008A150A200A128A150A128A1556260A1230
:1019E0008A157A087102031DF72C79087002031C0E
:1019F000FA2CFB2C382D0F30F0000030F1000A12C9
:101A00008A151D240A128A150B3084000A128A15C1
:101A10000A200A128A15F9000A128A150A200A12E7
:101A20008A15FA00113084000A128A150A200A1257
:101A30008A150A128A1556260A128A157A08710220
:101A4000031D242D79087002031C272D282D502DED
:101A5000831203133108FA003008F900B00A0319A1
:101A6000B10A7908F7007A08F800502D502D502D52
:101A7000831203133108F8003008F700502D502D61
:101A8000502D77037804031D462D472D502D8312CA
:101A90000313B001B101F701F801502D502D502D65
:101AA0000800FA00FB01F9017A08F039F70077081D
:101AB000FB007B08F70004300310F70CFF3E031D0A
:101AC0005C2D7708F8007808FB007A080F39F700DA
:101AD0007708F9007B080A128A113F250A128A1535
:101AE000F0018312031361080A128A111C240A12DE
:101AF0008A15F001831203135D080A128A111C244F
:101B00000A128A15F001F00A831203135F080A1201
:101B10008A111C240A128A150530F0000030F100E9
:101B20000A128A151D240A128A15F0018312031362
:101B30005F080A128A111C240A128A150530F00067
:101B40000030F1000A128A151D240A128A1579083C
:101B50000A128A113F250A128A15F001F00A83122F
:101B600003135F080A128A111C240A128A15053011
:101B7000F0000030F1000A128A151D240A128A159D
:101B8000F001831203135F080A128A111C240A123F
:101B90008A150330F0000030F1000A128A151D2466
:101BA0000A128A150800FA00FB01F9017A08F039D7
:101BB000F7007708FB007B08F70004300310F70CF0
:101BC000FF3E031DDE2D7708F8007808FB007A0839
:101BD0000F39F7007708F9007B080A128A113F25B0
:101BE0000A128A15F001F00A8312031361080A121F
:101BF0008A111C240A128A15F001831203135D084E
:101C00000A128A111C240A128A15F001F00A8312A2
:101C100003135F080A128A111C240A128A15053060
:101C2000F0000030F1000A128A151D240A128A15EC
:101C3000F001831203135F080A128A111C240A128E
:101C40008A150530F0000030F1000A128A151D24B3
:101C50000A128A1579080A128A113F250A128A1572
:101C6000F001F00A831203135F080A128A111C2480
:101C70000A128A150530F0000030F1000A128A15A8
:101C80001D240A128A15F001831203135F080A1239
:101C90008A111C240A128A150330F0000030F1006A
:101CA0000A128A151D240A128A150800F400C22E91
:101CB000831203139F121F129F111F155F2E1F19EE
:101CC000622E632E5F2E642E1E08F100831603130E
:101CD0001E08F000DB2EDB2EDB2E831203139F1277
:101CE0001F129F151F15742E1F19772E782E742E14
:101CF000792E1E08F100831603131E08F000DB2E58
:101D0000DB2EDB2E831203139F121F169F111F154C
:101D1000892E1F198C2E8D2E892E8E2E1E08F100D5
:101D2000831603131E08F000DB2EDB2EDB2E83123E
:101D300003139F121F169F151F159E2E1F19A12EEC
:101D4000A22E9E2EA32E1E08F100831603131E083A
:101D5000F000DB2EDB2EDB2E831203139F161F12E7
:101D60009F111F15B32E1F19B62EB72EB32EB82EE6
:101D70001E08F100831603131E08F000DB2EDB2E75
:101D8000DB2EDB2E7408F200F3017308003A03190E
:101D9000CA2EDB2E7208003A0319582E013A031995
:101DA0006D2E033A0319822E013A0319972E073A32
:101DB0000319AC2EDB2E080083120313E301E30AA0
:101DC000233084000A128A150A200A128A15CB00D1
:101DD0004B08C400213084000A128A150A200A1216
:101DE0008A15CC004C08C5001F3084000A128A15E1
:101DF0000A200A128A15CD004D08C6001D30840045
:101E00000A128A150A200A128A15CE004E08C70047
:101E10001B3084000A128A150A200A128A15CF0084
:101E20004F08C800193084000A128A150A200A12C5
:101E30008A15D0005008C900253084000A128A157E
:101E40000A200A128A150A128A1567270A128A15A9
:101E50000A128A156D220A128A15F0010F308400C9
:101E60000A128A150A200A128A150A128A11FB22FE
:101E70000A128A15F001153084000A128A150A2008
:101E80000A128A150A128A11FB220A128A15F00117
:101E9000133084000A128A150A200A128A150A12BF
:101EA0008A11FB220A128A15F001173084000A12E7
:101EB0008A150A200A128A150A128A11FB220A12AE
:101EC0008A150A128A156D220A128A1508008312D1
:101ED0000313CA004A08FC00FD017C08E1007D08EC
:101EE000E2004408FC00FD017C08DF007D08E00002
:101EF0004508FC00FD017C08DD007D08DE00460889
:101F0000FC00FD017C08DB007D08DC004708FC00CC
:101F1000FD017C08D9007D08DA004808FC00FD01BD
:101F20007C08D7007D08D8004908FC00FD017C082A
:101F3000D5007D08D600F0014A080A128A11FB225A
:101F40000A128A15F0018312031344080A128A1137
:101F5000FB220A128A15F0018312031345080A12A4
:101F60008A11FB220A128A15F00183120313460814
:101F70000A128A11FB220A128A15F0018312031336
:101F800047080A128A11FB220A128A15F0018312ED
:101F9000031348080A128A11FB220A128A15F0015B
:101FA0008312031349080A128A11FB220A128A15A6
:101FB0000F30F0000030F1000A128A151D240A12B9
:101FC0008A1502300A128A1551250A128A152830FC
:101FD0000A128A1551250A128A1501300A128A1529
:101FE00051250A128A150C300A128A1551250A1237
:101FF0008A1506300A128A1551250A128A15080018
:02400E00BA3FB7
:00000001FF
