:020000040000FA
:100000000A128A11F22F00308A000408840A82073B
:1000100000341234113410340F340C3413341434CB
:0E0020004334613472346C346F347334003402
:1009BA004F30831203139D00080064008001840AEB
:1009CA000406031900340406E32CFF3083160313CC
:1009DA00920005308312031392004F3097000800EB
:1009EA00F62C831203138C1EFB2CFC2CF62CFD2CEC
:1009FA001A08FF2C0800F000022D831203130C1EA4
:100A0A00072D082D022D092D700899000800F30002
:100A1A00F501F40171080F39F2007208F400730845
:100A2A0070041038F2007208F5007408F2007208B7
:100A3A00F5047508202D08000A128A117F250A126A
:100A4A008A110A128A1136250A128A112C2D0A12C3
:100A5A008A1151260A128A112C2D2C2D0A128A115A
:100A6A000028003083120313B9000030B800253083
:100A7A00B7008030B6000A128A11A7260A128A1114
:100A8A0008300A128A11A5250A128A110800F001F3
:100A9A00F00A831203138C1A532D542D622D0C1E47
:100AAA00572D582D5F2D8316031398185D2D5E2D33
:100ABA00622D5F2DF001622D622D0800F400F6010F
:100ACA00F5017108F20004300310F20CFF3E031D19
:100ADA00692D7208F3007308F50074087004103861
:100AEA00F2007208F6007508F2007208F604760839
:100AFA007E2D08008130831203139F00C2308316B3
:100B0A0003139F0085013F3085008601003086006F
:100B1A008701003087000A128A11EA240A128A1110
:100B2A000A128A11DD240A128A1188010030880803
:100B3A0083120313890107308316031389000800FF
:100B4A00F300F101F201BD2D7108730784000A1246
:100B5A008A1103200A128A110A128A1100250A121E
:100B6A008A110130F1070318F20A0030F207BD2D8D
:100B7A007108730784000A128A1103200A128A1163
:100B8A00003A031DC92DCA2DA92DCB2D0800F50148
:100B9A00F601E92D75087107F30076080318760A3D
:100BAA007207F400730884008317741C8313000807
:100BBA000A128A1100250A128A110130F507031850
:100BCA00F60A0030F607E92D75087107F300760872
:100BDA000318760A7207F400730884008317741CDA
:100BEA0083130008031DFA2DFB2DCF2DFC2D0A308F
:100BFA000A128A1100250A128A110800F301F40167
:100C0A007408803AF2007108803A7202031D0F2EAE
:100C1A0070087302031C122E132E152E502E502EFE
:100C2A00F501F6017608803AFF0081307F02031D44
:100C3A00202E90307502031C232E242E262E3B2EA6
:100C4A003B2E00000130F5070318F60A0030F607BC
:100C5A007608803AFF0081307F02031D362E9030DD
:100C6A007502031C392E3A2E262E3B2E0130F3072D
:100C7A000318F40A0030F4077408803AF200710885
:100C8A00803A7202031D4B2E70087302031C4E2E0B
:100C9A004F2E152E502E08000A128A114C250A12C0
:100CAA008A110A128A11F5240A128A11F7007708A2
:100CBA00FD002030F7007708F0007D08F80078087A
:100CCA00F10040300A128A1163250A128A11F900CA
:100CDA00790883120313AF002F08F700F801770889
:100CEA00F1007808F2000A128A11CC250A128A1138
:100CFA006430F0000030F1000A128A1103260A1249
:100D0A008A112030F7007708F0007D08F80078088B
:100D1A00F10040300A128A110C250A128A11F900D0
:100D2A00790883120313AE002E08F700F80177083A
:100D3A00F1007808F2000A128A11CC250A128A11E7
:100D4A00A62E0800831603131811831203133608FC
:100D5A00F9003708FA003808FB003908FC000630A9
:100D6A000310F90DFA0DFB0DFC0DFF3E031DB52E08
:100D7A007C08F3007B08F2007A08F1007908F00099
:100D8A000130F7003130F6002D30F5000030F40064
:100D9A000A128A114C270A128A117008FF3E83121E
:100DAA000313BA0071080318013EFF3EBB0001306D
:100DBA003B02003003193A02031CE42EE52E332FBE
:100DCA00831603131815831203133608F90037081C
:100DDA00FA003808FB003908FC0004300310F90D4A
:100DEA00FA0DFB0DFC0DFF3E031DF32E7C08F300EC
:100DFA007B08F2007A08F1007908F0000130F70068
:100E0A003130F6002D30F5000030F4000A128A1154
:100E1A004C270A128A117008FF3E83120313BA0084
:100E2A0071080318013EFF3EBB003A0883160313FC
:100E3A00990018128312031398178316031387173E
:100E4A0007178312031318168316031398168312AF
:100E5A00031399019A014B2F4B2F4B2F3A088316F4
:100E6A000313990018128312031398178316031396
:100E7A008717071783120313181683160313981676
:100E8A008312031399019A014B2F4B2F08008312E7
:100E9A000313B101F31F522F532F602FF009F109E9
:100EAA00F209F309F00A0319F10A0319F20A0319FC
:100EBA00F30AB101B10AF71F632F642F742FF409E3
:100ECA00F509F609F709F40A0319F50A0319F60AE6
:100EDA000319F70A0130F8007808B106742F0030B8
:100EEA00B5000030B4000030B3000030B20073081F
:100EFA007204710470040319832F842FD72FB00151
:100F0A00B00A952F0130F8000310F00DF10DF20D23
:100F1A00F30DF80B892F0130F8007808B007952FE8
:100F2A00F31F982F992F872F9B2F9B2F0130F800A3
:100F3A000310B20DB30DB40DB50DF80B9D2F730848
:100F4A007702031DB22F72087602031DB22F7108B1
:100F5A007502031DB22F70087402031CB52FB62F39
:100F6A00C62F7008F4027108031C710FF50272088B
:100F7A00031C720FF6027308031C730FF702321474
:100F8A00C62F01300310F30CF20CF10CF00CFF3EEB
:100F9A00031DC72F0130B002031DD42FD52F9B2F5D
:100FAA00D72FD72F31080319DB2FDC2FE82FB209EF
:100FBA00B309B409B509B20A0319B30A0319B40A81
:100FCA000319B50AE82F3508F3003408F20033088C
:100FDA00F1003208F000F12F0800FD0183132030E0
:100FEA00840030300A128A11E2240A128A1183011B
:060FFA000A128A11212DEC
:02400E00BA3FB7
:00000001FF
