:060000000A128A11FA2F1A
:10034A00831603138C150800013070067104031D0F
:10035A00B0298B1708008B1308000130700671044E
:10036A00031DB9290B1708000B130800013070068A
:10037A007104031DC2298B1508008B110800831212
:10038A0003131308F200F3017208F0007308F10076
:10039A0008008316031314080139F200F3017208E6
:1003AA00F0007308F10008000A128A1126220A12C4
:1003BA008A110A128A11F5210A128A11DE29F0001D
:1003CA007008683A031DED298312031314160800F6
:1003DA0070086C3A031D08008312031314120800F4
:1003EA000A128A11CE210A128A110130700671048A
:1003FA00031D082A0A128A11C421700883120313E2
:10040A0086000815080083120313081108000E302D
:10041A00F0000030F1000A128A11962283160313A3
:10042A00941383120313941683160313871507165E
:10043A00871285168312031394111415941014103D
:10044A00080083160313081109120130F000003066
:10045A00F1000A128A11A9210A128A110130F00048
:10046A000030F1000A128A11B2210A128A110030F0
:10047A00F0000030F1000A128A11BB210A128A1117
:10048A000A128A11A5210A128A110A128A110C2249
:10049A000A128A110230F0000030F1004F30F400E5
:1004AA007408F2000A128A1144240A128A110230CC
:1004BA00F0000030F1004430F4007408F2006C30AF
:1004CA00F5007508F3000A128A114C250A128A11DE
:1004DA006C300A128A11E4210A128A11F601F70114
:1004EA007708803AFF0080307F02031D7E2A083099
:1004FA007602031808007708F101F1077608F0017F
:10050A00F0074F30F4007408F2000A128A113C23F3
:10051A000A128A110130F6070318F70A0030F707A2
:10052A00752A072B831603139F111F119F101F1083
:10053A000800831603139F111F119F101F14080030
:10054A00831603139F111F119F141F10080083168F
:10055A0003139F111F119F141F14080083160313FE
:10056A009F111F159F101F100800831603139F1158
:10057A001F159F101F140800831603139F111F15C0
:10058A009F141F100800831603139F151F119F1035
:10059A001F100800831603139F151F119F101F14A5
:1005AA000800831603139F151F119F141F100800BC
:1005BA00831603139F151F119F141F140800831617
:1005CA0003139F151F159F101F100800831603138E
:1005DA009F151F159F101F140800831603139F15DC
:1005EA001F159F141F100800831603139F151F154C
:1005FA009F141F140800831603139F111F119F10C5
:10060A001F1008007108003A03190C2B002B700800
:10061A00003A0319972A013A03199E2A033A031941
:10062A00A52A013A0319AC2A073A0319B32A013A4F
:10063A000319BA2A033A0319C12A013A0319C82A23
:10064A000F3A0319CF2A013A0319D62A033A031992
:10065A00DD2A013A0319E42A073A0319EB2A013A77
:10066A000319F22A033A0319F92A002B0800710820
:10067A00803AFF0080307F02031D452B083070024C
:10068A00031C232C0730F0000030F1007208493AAD
:10069A000319532B7208693A031D572B8316031348
:1006AA008617080072084F3A03195F2B72086F3ACF
:1006BA00031D080083160313861308007208493ABB
:1006CA0003196B2B7208693A031D6F2B83160313E8
:1006DA000614080072084F3A0319772B72086F3A0A
:1006EA00031D080083160313061008007208493A0E
:1006FA000319832B7208693A031D872B8316031388
:10070A008614080072084F3A03198F2B72086F3A41
:10071A00031D080083160313861008007208493A5D
:10072A0003199B2B7208693A031D9F2B8316031327
:10073A000615080072084F3A0319A72B72086F3A78
:10074A00031D080083160313061108007208493AAC
:10075A000319B32B7208693A031DB72B83160313C7
:10076A008615080072084F3A0319BF2B72086F3AB0
:10077A00031D080083160313861108007208493AFC
:10078A000319CB2B7208693A031DCF2B8316031367
:10079A000616080072084F3A0319D72B72086F3AE7
:1007AA00031D080083160313061208007208493A4B
:1007BA000319E32B7208693A031DE72B8316031307
:1007CA008616080072084F3A0319EF2B72086F3A1F
:1007DA00031D080083160313861208007208493A9B
:1007EA000319FB2B7208693A031DFF2B83160313A7
:1007FA000617080072084F3A0319072C72086F3A55
:10080A00031D080083160313061308007208493AE9
:10081A000319132C7208693A031D172C8316031344
:10082A008617080072084F3A03191F2C72086F3A8C
:10083A00031D080083160313861308007108003A83
:10084A000319282C432C7008003A0319632B013A28
:10085A0003197B2B033A0319932B013A0319AB2B88
:10086A00073A0319C32B013A0319DB2B033A03197D
:10087A00F32B013A03190B2C432C080008007108CA
:10088A00803AFF0080307F02031D4D2C0830700231
:10089A00031C2B2D0730F0000030F1007208493A92
:1008AA0003195B2C7208693A031D5F2C8316031324
:1008BA008717080072084F3A0319672C72086F3AB3
:1008CA00031D080083160313871308007208493AA8
:1008DA000319732C7208693A031D772C83160313C4
:1008EA000714080072084F3A03197F2C72086F3AEE
:1008FA00031D080083160313071008007208493AFB
:10090A0003198B2C7208693A031D8F2C8316031363
:10091A008714080072084F3A0319972C72086F3A25
:10092A00031D080083160313871008007208493A4A
:10093A000319A32C7208693A031DA72C8316031303
:10094A000715080072084F3A0319AF2C72086F3A5C
:10095A00031D080083160313071108007208493A99
:10096A000319BB2C7208693A031DBF2C83160313A3
:10097A008715080072084F3A0319C72C72086F3A94
:10098A00031D080083160313871108007208493AE9
:10099A000319D32C7208693A031DD72C8316031343
:1009AA000716080072084F3A0319DF2C72086F3ACB
:1009BA00031D080083160313071208007208493A38
:1009CA000319EB2C7208693A031DEF2C83160313E3
:1009DA008716080072084F3A0319F72C72086F3A03
:1009EA00031D080083160313871208007208493A88
:1009FA000319032D7208693A031D072D8316031381
:100A0A000717080072084F3A03190F2D72086F3A38
:100A1A00031D080083160313071308007208493AD6
:100A2A0003191B2D7208693A031D1F2D8316031320
:100A3A008717080072084F3A0319272D72086F3A70
:100A4A00031D080083160313871308007108003A70
:100A5A000319302D4B2D7008003A03196B2C013AFB
:100A6A000319832C033A03199B2C013A0319B32C5B
:100A7A00073A0319CB2C013A0319E32C033A031959
:100A8A00FB2C013A0319132D4B2D08000800E82FFF
:100A9A007308683A031D552D8312031305140800C1
:100AAA0073086C3A031D080083120313051008002B
:100ABA007308683A031D652D831203138514080011
:100ACA0073086C3A031D080083120313851008008B
:100ADA007308683A031D752D831203130515080060
:100AEA0073086C3A031D08008312031305110800EA
:100AFA007308683A031D852D8312031385150800B0
:100B0A0073086C3A031D0800831203138511080049
:100B1A007308683A031D952D8312031305160800FE
:100B2A0073086C3A031D08008312031305120800A8
:100B3A007308683A031DA52D83120313851608004E
:100B4A0073086C3A031D0800831203138512080008
:100B5A007108003A0319B22DF92F7008003A0319E7
:100B6A004D2D013A03195D2D033A03196D2D013AF2
:100B7A0003197D2D073A03198D2D013A03199D2D6D
:100B8A00F92F08007308683A031DCF2D8312031347
:100B9A000614080073086C3A031D08008312031335
:100BAA00061008007308683A031DDF2D8312031329
:100BBA008614080073086C3A031D08008312031395
:100BCA00861008007308683A031DEF2D8312031379
:100BDA000615080073086C3A031D080083120313F4
:100BEA00061108007308683A031DFF2D83120313C8
:100BFA008615080073086C3A031D08008312031354
:100C0A00861108007308683A031D0F2E8312031316
:100C1A000616080073086C3A031D080083120313B2
:100C2A00061208007308683A031D1F2E8312031365
:100C3A008616080073086C3A031D08008312031312
:100C4A00861208007308683A031D2F2E83120313B5
:100C5A000617080073086C3A031D08008312031371
:100C6A00061308007308683A031D3F2E8312031304
:100C7A008617080073086C3A031D080083120313D1
:100C8A00861308007108003A03194C2EF92F7008D0
:100C9A00003A0319C72D013A0319D72D033A03194C
:100CAA00E72D013A0319F72D073A0319072E013ADE
:100CBA000319172E033A0319272E013A0319372E5F
:100CCA00F92F08007308683A031D6F2E8312031365
:100CDA000714080073086C3A031D080083120313F3
:100CEA00071008007308683A031D7F2E8312031346
:100CFA008714080073086C3A031D08008312031353
:100D0A00871008007308683A031D8F2E8312031395
:100D1A000715080073086C3A031D080083120313B1
:100D2A00071108007308683A031D9F2E83120313E4
:100D3A008715080073086C3A031D08008312031311
:100D4A00871108007308683A031DAF2E8312031334
:100D5A000716080073086C3A031D08008312031370
:100D6A00071208007308683A031DBF2E8312031383
:100D7A008716080073086C3A031D080083120313D0
:100D8A00871208007308683A031DCF2E83120313D3
:100D9A000717080073086C3A031D0800831203132F
:100DAA00071308007308683A031DDF2E8312031322
:100DBA008717080073086C3A031D0800831203138F
:100DCA00871308007108003A0319EC2EF92F7008EE
:100DDA00003A0319672E013A0319772E033A0319C9
:100DEA00872E013A0319972E073A0319A72E013ABB
:100DFA000319B72E033A0319C72E013A0319D72E3E
:100E0A00F92F08007308683A031D0F2F8312031382
:100E1A000814080073086C3A031D080083120313B0
:100E2A00081008007308683A031D1F2F8312031362
:100E3A008814080073086C3A031D08008312031310
:100E4A00881008007308683A031D2F2F83120313B2
:100E5A000815080073086C3A031D0800831203136F
:100E6A00081108007308683A031D3F2F8312031301
:100E7A008815080073086C3A031D080083120313CF
:100E8A00881108007308683A031D4F2F8312031351
:100E9A000816080073086C3A031D0800831203132E
:100EAA00081208007308683A031D5F2F83120313A0
:100EBA008816080073086C3A031D0800831203138E
:100ECA00881208007308683A031D6F2F83120313F0
:100EDA000817080073086C3A031D080083120313ED
:100EEA00081308007308683A031D7F2F831203133F
:100EFA008817080073086C3A031D0800831203134D
:100F0A00881308007108003A03198C2FF92F70080A
:100F1A00003A0319072F013A0319172F033A031945
:100F2A00272F013A0319372F073A0319472F013A96
:100F3A000319572F033A0319672F013A0319772F19
:100F4A00F92F08007308683A031DAF2F83120313A1
:100F5A000914080073086C3A031D0800831203136E
:100F6A00091008007308683A031DBF2F8312031380
:100F7A008914080073086C3A031D080083120313CE
:100F8A00891008007308683A031DCF2F83120313D0
:100F9A000915080073086C3A031D0800831203132D
:100FAA00091108007108003A0319DC2FF92F70089B
:100FBA00003A0319A72F013A0319B72F033A031965
:100FCA00C72FF92F08007208413A0319AD2D033AC9
:100FDA000319472E013A0319E72E073A0319872FF7
:100FEA00013A0319D72FF92F0800F801F9018301F3
:060FFA000A128A11D92938
:02400E003AFF77
:00000001FF
