:020000040000FA
:100000000A128A11DE2F0428831203138C1E09287A
:100010000A2804280B281A080D280800F001F00A05
:10002000831203138C1A1528162824280C1E19284D
:100030001A2821288316031398181F2820282428FB
:100040002128F0012428242808008130831203137A
:100050009F00C230831603139F0085013F30850047
:100060008601003086008701003087000A128A1559
:1000700081270A128A110A128A157C270A128A110C
:100080008801003088088312031389010730831622
:10009000031389000800F500F401AF288316031349
:1000A00087107108F3007008F2000310F30CF20CD3
:1000B0000310F30CF20C7208831203139B00F60179
:1000C000700871040319652866286928F601F60A84
:1000D0006928760C031C9D1203189D16F701700801
:1000E00071040319742875287828F701F70A78280D
:1000F000770C031C1D1203181D16BF28831603134B
:1001000007117108F3007008F2000310F30CF20CF1
:100110000310F30CF20C7208831203139500F8011C
:10012000700871040319952896289928F801F80A8F
:100130009928780C031C971203189716F901700878
:1001400071040319A428A528A828F901F90AA828E8
:10015000790C031C171203181716BF28BF2875083F
:10016000F200F3017308003A0319B728BF28720898
:10017000163A03194E28013A03197E28BF280800B1
:10018000F4002C29831203139F121F129F111F15B5
:10019000C9281F19CC28CD28C928CE281E08F1004F
:1001A000831603131E08F0004529452945298312AB
:1001B00003139F121F129F151F15DE281F19E12818
:1001C000E228DE28E3281E08F100831603131E0828
:1001D000F000452945294529831203139F121F1654
:1001E0009F111F15F3281F19F628F728F328F82860
:1001F0001E08F100831603131E08F0004529452947
:100200004529831203139F121F169F151F150829D6
:100210001F190B290C2908290D291E08F100831626
:1002200003131E08F00045294529452983120313AD
:100230009F161F129F111F151D291F1920292129E3
:100240001D2922291E08F100831603131E08F00041
:1002500045294529452945297408F200F301730809
:10026000003A0319342945297208003A0319C228B3
:10027000013A0319D728033A0319EC28013A031964
:100280000129073A03191629452908008316031383
:100290001811831203133208F9003308FA003408E6
:1002A000FB003508FC0006300310F90DFA0DFB0DBC
:1002B000FC0DFF3E031D54297C08F3007B08F2006F
:1002C0007A08F1007908F0000130F7003130F600CB
:1002D0002D30F5000030F4000A128A11EB210A12C9
:1002E0008A117008FF3E83120313B60071080318C9
:1002F000013EFF3EB70001303702003003193602DD
:10030000031C83298429D229831603131815831209
:1003100003133208F9003308FA003408FB003508EB
:10032000FC0004300310F90DFA0DFB0DFC0DFF3E2F
:10033000031D92297C08F3007B08F2007A08F10083
:100340007908F0000130F7003130F6002D30F5006B
:100350000030F4000A128A11EB210A128A11700887
:10036000FF3E83120313B60071080318013EFF3EDF
:10037000B70036088316031399001812831203136B
:10038000981783160313871707178312031318167A
:100390008316031398168312031399019A01EA290D
:1003A000EA29EA29360883160313990018128312E2
:1003B0000313981783160313871707178312031362
:1003C00018168316031398168312031399019A01C2
:1003D000EA29EA29080083120313AD01F31FF1296A
:1003E000F229FF29F009F109F209F309F00A0319CA
:1003F000F10A0319F20A0319F30AAD01AD0AF71F56
:10040000022A032A132AF409F509F609F709F40A5E
:100410000319F50A0319F60A0319F70A0130F8005F
:100420007808AD06132A0030B1000030B00000306B
:10043000AF000030AE007308720471047004031939
:10044000222A232A762AAC01AC0A342A0130F80089
:100450000310F00DF10DF20DF30DF80B282A013009
:10046000F8007808AC07342AF31F372A382A262ADE
:100470003A2A3A2A0130F8000310AE0DAF0DB00D44
:10048000B10DF80B3C2A73087702031D512A72083C
:100490007602031D512A71087502031D512A700846
:1004A0007402031C542A552A652A7008F402710844
:1004B000031C710FF5027208031C720FF602730819
:1004C000031C730FF7022E14652A01300310F30C7E
:1004D000F20CF10CF00CFF3E031D662A0130AC0259
:1004E000031D732A742A3A2A762A762A2D080319BC
:1004F0007A2A7B2A872AAE09AF09B009B109AE0A68
:100500000319AF0A0319B00A0319B10A872A31087F
:10051000F3003008F2002F08F1002E08F000902AB6
:10052000080083120313AE00AF01B001252B193070
:100530007A02031C9C2A9D2AA22A1830AC002C089F
:10054000FA00A22A7C08AC002C08F0007A080A12F3
:100550008A115E250A128A110130FA000030FB0070
:100560003E2B3E2B3E2B19307A02031CB82AB92AA7
:10057000C02A183083120313AC002C08FA00C02ADA
:100580007C0883120313AC002C08F0007A080A12CE
:100590008A1127240A128A117C0883120313AC00E3
:1005A000AD012C08FA002D08FB003E2B3E2B3E2B04
:1005B00019307A02031CDD2ADE2AE32A1830AC0047
:1005C0002C08FA00E32A7A080A128A119D260A12D8
:1005D0008A1183120313AC00AD012C08FA002D0818
:1005E000FB003E2B3E2B3E2B7A080A128A11C020BC
:1005F0000A128A117108FB007008FA003E2B3E2B8C
:100600003E2B7B0883120313AC00AD012C08AD0018
:10061000AC017C082C07AF000030031801302D0717
:10062000B0003008F1002F08F0007A080A128A1191
:100630004B200A128A11831203133008FB002F0883
:10064000FA003E2B3E2B3E2B3E2B2E08AC00AD017C
:100650002D08003A03192D2B3E2B2C08053A0319BF
:10066000972A033A0319B32A013A0319D82A0F3AF1
:100670000319F42A013A0319012B3E2B08000A1230
:100680008A110E200A128A11102C831203132108DA
:10069000B1003108FA002208B2003208FB0023083A
:1006A000B3003308FC0020080A128A1191220A12B2
:1006B0008A117B0883120313A5007A08A400A601FF
:1006C0002508B1003108A6002408B1003108A700B0
:1006D000AB01262CA72BB401B501832B0A128A117A
:1006E00003200A128A1183120313B1003408203E3A
:1006F00084003108831380000130B4070318B50A61
:100700000030B507832B3508803AB10080303102C4
:10071000031D8C2B3A083402031C8F2B902B6E2B5D
:10072000912B0A128A1103200A128A1183120313D1
:10073000B1003108A8006B302806031DA02BA12BA7
:10074000A42BA901A90AA72BA901A72BA72B290331
:10075000031DAB2BAC2B6B2BAD2BA801A9010230D9
:10076000B1003108AB00262C042CB601B7013708C4
:10077000803AFF0080307F02031DC02B023036021A
:10078000031CC32BC42BC62BE82BE82B83120313AB
:100790003608263E8400831300080A128A158C2727
:1007A0000A128A11013083120313B6070318B70A1D
:1007B0000030B7073708803AFF0080307F02031D02
:1007C000E32B02303602031CE62BE72BC62BE82B6B
:1007D0003B300A128A158C270A128A110A128A11D2
:1007E00003200A128A1183120313B1003108A800F2
:1007F0006B302806031DFD2BFE2B012CA901A90A35
:10080000042CA901042C042C2903031D082C092CF9
:10081000B52B0A2CA901A801AB01AB0A262C262C6A
:10082000831203132B08B100B2013208003A0319F6
:100830001A2C262C3108003A0319042C013A03190A
:10084000A72B033A0319452B262C262C0800F3006E
:10085000022D700C83120313031C871303188717D0
:100860005D2D700C83120313031C07130318071765
:100870005D2D700C83120313031C08110318081557
:100880005D2D700C83120313031C88110318881547
:100890005D2D700C83120313031C07120318071637
:1008A0005D2D700C83120313031C87120318871627
:1008B0005D2D700C83120313031C08120318081615
:1008C0005D2D700C83120313031C88120318881605
:1008D0005D2D700C83120313031C081303180817F3
:1008E0005D2D700C83120313031C881303188817E3
:1008F0005D2D700C83120313031C061003180614DD
:100900005D2D700C83120313031C861003188614CC
:100910005D2D700C83120313031C061103180615BA
:100920005D2D700C83120313031C061203180616A8
:100930005D2D700C83120313031C8611031886159A
:100940005D2D700C83120313031C86120318861688
:100950005D2D700C83120313031C06130318061776
:100960005D2D700C83120313031C87110318871568
:100970005D2D700C83120313031C86130318861756
:100980005D2D700C83120313031C0512031805164A
:100990005D2D700C83120313031C8512031885163A
:1009A0005D2D700C83120313031C0710031807142A
:1009B0005D2D700C83120313031C8710031887141A
:1009C0005D2D700C83120313031C07110318071508
:1009D0005D2D700C83120313031C881003188814F8
:1009E0005D2D700C83120313031C081003180814E8
:1009F0005D2D700C83120313031C051103180515DC
:100A00005D2D5D2D7308F100F2017208003A0319A3
:100A10000A2D5D2D7108003A0319292C013A03199A
:100A2000312C033A0319392C013A0319412C073AA6
:100A30000319492C013A0319512C033A0319592C73
:100A4000013A0319612C0F3A0319692C013A031971
:100A5000712C033A0319792C013A0319812C073AB6
:100A60000319892C013A0319912C033A0319992C83
:100A7000013A0319A12C1F3A0319A92C013A0319B1
:100A8000B12C033A0319B92C013A0319C12C073AC6
:100A90000319C92C013A0319D12C033A0319D92C93
:100AA000013A0319E12C0F3A0319E92C013A031911
:100AB000F12C033A0319F92C5D2D0800F300412EA7
:100AC000700C83160313031C8713031887179C2EBF
:100AD000700C83160313031C0713031807179C2EAF
:100AE000700C83160313031C0811031808159C2EA1
:100AF000700C83160313031C8811031888159C2E91
:100B0000700C83160313031C0712031807169C2E80
:100B1000700C83160313031C8712031887169C2E70
:100B2000700C83160313031C0812031808169C2E5E
:100B3000700C83160313031C8812031888169C2E4E
:100B4000700C83160313031C0813031808179C2E3C
:100B5000700C83160313031C8813031888179C2E2C
:100B6000700C83160313031C0610031806149C2E26
:100B7000700C83160313031C8610031886149C2E16
:100B8000700C83160313031C0611031806159C2E04
:100B9000700C83160313031C0612031806169C2EF2
:100BA000700C83160313031C8611031886159C2EE4
:100BB000700C83160313031C8612031886169C2ED2
:100BC000700C83160313031C0613031806179C2EC0
:100BD000700C83160313031C8711031887159C2EB2
:100BE000700C83160313031C8613031886179C2EA0
:100BF000700C83160313031C0512031805169C2E94
:100C0000831603139F111F159F101F10700C031CD8
:100C10008512031885169C2E700C83160313031C73
:100C20000710031807149C2E700C83160313031C63
:100C30008710031887149C2E700C83160313031C53
:100C40000711031807159C2E700C83160313031C41
:100C50008810031888149C2E700C83160313031C31
:100C60000810031808149C2E831603139F111F15D8
:100C70009F101F10700C031C0511031805159C2EE6
:100C80009C2E7308F100F2017208003A0319492EF4
:100C90009C2E7108003A0319602D013A0319682D42
:100CA000033A0319702D013A0319782D073A0319F5
:100CB000802D013A0319882D033A0319902D013A2A
:100CC0000319982D0F3A0319A02D013A0319A82DE5
:100CD000033A0319B02D013A0319B82D073A031945
:100CE000C02D013A0319C82D033A0319D02D013A3A
:100CF0000319D82D1F3A0319E02D013A0319E82DE5
:100D0000033A0319F02D013A0319F82D073A031994
:100D1000002E013A03190C2E033A0319142E013A3E
:100D200003191C2E0F3A0319242E013A03192C2EF5
:100D3000033A0319342E9C2E0800F200822F8312EE
:100D40000313070D070D0139DD2FDD2FDD2F831272
:100D50000313070EF000F00C700C0139DD2FDD2FAE
:100D6000DD2F83120313080CF000700C0139DD2F06
:100D7000DD2FDD2F83120313080CF000F00C700C34
:100D80000139DD2FDD2FDD2F83120313070E01390B
:100D9000DD2FDD2FDD2F83120313070EF000700C03
:100DA0000139DD2FDD2FDD2F83120313080E0139EA
:100DB000DD2FDD2FDD2F83120313080EF000700CE2
:100DC0000139DD2FDD2FDD2F83120313080EF00014
:100DD000F00C700C0139DD2FDD2FDD2F8312031392
:100DE000080D080D0139DD2FDD2FDD2F83120313D0
:100DF00006080139DD2FDD2FDD2F83120313060CCA
:100E00000139DD2FDD2FDD2F83120313060CF000D7
:100E1000700C0139DD2FDD2FDD2F83120313060E39
:100E20000139DD2FDD2FDD2F83120313060CF000B7
:100E3000F00C700C0139DD2FDD2FDD2F8312031331
:100E4000060EF000700C0139DD2FDD2FDD2F83122F
:100E50000313060EF000F00C700C0139DD2FDD2FAE
:100E6000DD2F83120313070CF000F00C700C013916
:100E7000DD2FDD2FDD2F83120313060D060D013943
:100E8000DD2FDD2FDD2F83120313050E0139DD2F3A
:100E9000DD2FDD2F83120313050EF000700C0139D6
:100EA000DD2FDD2FDD2F8312031307080139DD2F1E
:100EB000DD2FDD2F83120313070C0139DD2FDD2F0A
:100EC000DD2F83120313070CF000700C0139DD2FA6
:100ED000DD2FDD2F83120313080C0139DD2FDD2FE9
:100EE000DD2F8312031308080139DD2FDD2FDD2FDD
:100EF00083120313050CF000700C0139DD2FDD2F78
:100F0000DD2FDD2F7208F000F1017108003A03199E
:100F10008A2FDD2F7008003A03199F2E013A03191A
:100F2000A72E033A0319B12E013A0319BA2E073A34
:100F30000319C42E013A0319CB2E033A0319D42EF8
:100F4000013A0319DB2E0F3A0319E42E013A031973
:100F5000EE2E033A0319F62E013A0319FD2E073A35
:100F60000319042F013A03190D2F033A0319142F03
:100F7000013A03191E2F1F3A0319272F013A0319AB
:100F8000312F033A03193B2F013A0319432F073A34
:100F900003194A2F013A0319532F033A03195A2F01
:100FA000013A0319612F0F3A03196A2F013A031905
:100FB000712F033A0319782FDD2F08000A128A15C2
:100FC00079270A128A11B8000A128A157A270A129A
:100FD0008A11B9000A128A157B270A128A11BA00EF
:100FE000A001A101A201A301A401A501A601A701DD
:100FF000A801A901AA01AB0183010A128A15982F41
:101EF2003034303404344F30831203139D00080011
:101F0200FF308316031392000530831203139200ED
:101F12004F3097000800F0008E2F831203130C1E1F
:101F2200932F942F8E2F952F7008990008000A1274
:101F32008A1125200A128A150A128A15AD270A1259
:101F42008A15A32F0A128A113F230A128A15A32F78
:101F5200A32F0A128A110028003083120313B5003E
:101F62000030B4002530B3008030B2000A128A116A
:101F720046210A128A15F0010E300A128A115E25D4
:101F82000A128A15EA2FF001F00A0E300A128A119B
:101F920027240A128A150A128A1103200A128A15A4
:101FA200FD007D0883120313A8006B300A128A1504
:101FB2008C270A128A156B30831203132806031D1D
:101FC200E32FE42FE72FA901A90AEA2FA901EA2F9B
:101FD200EA2F831203132903031DF02FF12FC42FBD
:101FE200F22FA901A801F0010E300A128A1127244A
:0E1FF2000A128A1583120313AB01AB0A080012
:02400E00BA3FB7
:00000001FF
