:020000040000FA
:060000000A128A11DE2F36
:10000800303430340434F0000928831203130C1EF2
:100018000E280F2809281028700899000800813038
:10002800831203139F00C230831603139F008501B8
:100038003F30850086010030860087010030870048
:100048000A128A156B270A128A110A128A1566275C
:100058000A128A1188010030880883120313890163
:1000680007308316031389000800F500F4019D2862
:100078008316031387107108F3007008F200031049
:10008800F30CF20C0310F30CF20C72088312031336
:100098009B00F60170087104031953285428572847
:1000A800F601F60A5728760C031C9D1203189D16B4
:1000B800F701700871040319622863286628F7019C
:1000C800F70A6628770C031C1D1203181D16AD28A5
:1000D8008316031307117108F3007008F200031068
:1000E800F30CF20C0310F30CF20C720883120313D6
:1000F8009500F8017008710403198328842887285B
:10010800F801F80A8728780C031C97120318971629
:10011800F901700871040319922893289628F901A7
:10012800F90A9628790C031C171203181716AD281C
:10013800AD287508F200F3017308003A0319A528E1
:10014800AD287208163A03193C28013A03196C289D
:10015800AD280800F4001A29831203139F121F12F6
:100168009F111F15B7281F19BA28BB28B728BC2804
:100178001E08F100831603131E08F00033293329E3
:100188003329831203139F121F129F151F15CC28A2
:100198001F19CF28D028CC28D1281E08F100831693
:1001A80003131E08F000332933293329831203135C
:1001B8009F121F169F111F15E1281F19E428E52813
:1001C800E128E6281E08F100831603131E08F00034
:1001D800332933293329831203139F121F169F15BE
:1001E8001F15F6281F19F928FA28F628FB281E08D3
:1001F800F100831603131E08F0003329332933292D
:10020800831203139F161F129F111F150B291F1905
:100218000E290F290B2910291E08F1008316031334
:100228001E08F00033293329332933297408F200D2
:10023800F3017308003A0319222933297208003A96
:100248000319B028013A0319C528033A0319DA2813
:10025800013A0319EF28073A03190429332908003A
:10026800831603131811831203133208F900330895
:10027800FA003408FB003508FC0006300310F90DBD
:10028800FA0DFB0DFC0DFF3E031D42297C08F3000F
:100298007B08F2007A08F1007908F0000130F700D5
:1002A8003130F6002D30F5000030F4000A128A11C2
:1002B800D9210A128A117008FF3E83120313B6006F
:1002C80071080318013EFF3EB700013037020030C5
:1002D80003193602031C71297229C02983160313D6
:1002E8001815831203133208F9003308FA0034088A
:1002F800FB003508FC0004300310F90DFA0DFB0D66
:10030800FC0DFF3E031D80297C08F3007B08F200EA
:100318007A08F1007908F0000130F7003130F60072
:100328002D30F5000030F4000A128A11D9210A1282
:100338008A117008FF3E83120313B6007108031870
:10034800013EFF3EB70036088316031399001812C2
:10035800831203139817831603138717071783123B
:10036800031318168316031398168312031399019F
:100378009A01D829D829D829360883160313990051
:100388001812831203139817831603138717071776
:100398008312031318168316031398168312031374
:1003A80099019A01D829D829080083120313AD01AD
:1003B800F31FDF29E029ED29F009F109F209F30912
:1003C800F00A0319F10A0319F20A0319F30AAD0135
:1003D800AD0AF71FF029F129012AF409F509F609F0
:1003E800F709F40A0319F50A0319F60A0319F70AB3
:1003F8000130F8007808AD06012A0030B10000305D
:10040800B0000030AF000030AE0073087204710411
:1004180070040319102A112A642AAC01AC0A222A92
:100428000130F8000310F00DF10DF20DF30DF80B8B
:10043800162A0130F8007808AC07222AF31F252A6B
:10044800262A142A282A282A0130F8000310AE0D7B
:10045800AF0DB00DB10DF80B2A2A73087702031DF2
:100468003F2A72087602031D3F2A71087502031D90
:100478003F2A70087402031C422A432A532A700830
:10048800F4027108031C710FF5027208031C720F45
:10049800F6027308031C730FF7022E14532A013057
:1004A8000310F30CF20CF10CF00CFF3E031D542A60
:1004B8000130AC02031D612A622A282A642A642AB0
:1004C8002D080319682A692A752AAE09AF09B009E7
:1004D800B109AE0A0319AF0A0319B00A0319B10A20
:1004E800752A3108F3003008F2002F08F1002E08B1
:1004F800F0007E2A080083120313AE00AF01B0019A
:10050800292B19307A02031C8A2A8B2A902A183040
:10051800AC002C08FA00902A7C08AC002C08F000EB
:100528007A080A128A115E250A128A110130FA0025
:100538000030FB00442B442B442B19307A02031C57
:10054800A62AA72AAE2A183083120313AC002C0857
:10055800FA00AE2A7C0883120313AC002C08F000C2
:100568007A080A128A1127240A128A110130FA001D
:100578000030FB00442B442B442B19307A02031C17
:10058800C62AC72ACE2A183083120313AC002C08B7
:10059800FA00CE2A7A080A128A119D260A128A11AE
:1005A80083120313AC00AD012C08FA002D08FB00E0
:1005B800442B442B442B7A080A128A11AE200A12C3
:1005C8008A117108FB007008FA00442B442B442B55
:1005D80007307A02031CF12AF22AF92A063083121C
:1005E8000313AC002C08FA00072B05307A02031815
:1005F800FE2AFF2A072B053083120313AC002C08B0
:10060800FA00072B072B7B0883120313AC00AD01FC
:100618002C08AD00AC017C082C07AF000030031893
:1006280001302D07B0003008F1002F08F0007A08DB
:100638000A128A1139200A128A110130FA00003090
:10064800FB00442B442B442B442B831203132E080A
:10065800AC00AD012D08003A0319332B442B2C08AC
:10066800053A0319852A033A0319A12A013A0319FD
:10067800C12A0F3A0319DF2A013A0319EC2A442B3D
:1006880008000A128A1596270A128A11102C83125A
:1006980003132108B1003108FA002208B200320819
:1006A800FB002308B3003308FC0020080A128A1153
:1006B8007F220A128A117B0883120313A5007A0885
:1006C800A400A6012508B1003108A6002408B1003D
:1006D8003108A700AB01262CAD2BB401B501892B3D
:1006E8000A128A1576270A128A1183120313B10097
:1006F8003408203E84003108831380000130B40799
:100708000318B50A0030B507892B3508803AB100BF
:1007180080303102031D922B3A083402031C952BBA
:10072800962B742B972B0A128A1576270A128A1190
:1007380083120313B1003108A8006B302806031D8B
:10074800A62BA72BAA2BA901A90AAD2BA901AD2B72
:10075800AD2B2903031DB12BB22B712BB32BA80191
:10076800A9010230B1003108AB00262C042CB601D7
:10077800B7013708803AFF0080307F02031DC62B7F
:1007880002303602031CC92BCA2BCC2BEE2BEE2BC6
:10079800831203133608263E8400831300080A12C6
:1007A8008A1107200A128A11013083120313B6072F
:1007B8000318B70A0030B7073708803AFF008030BF
:1007C8007F02031DE92B02303602031CEC2BED2BB4
:1007D800CC2BEE2B0A128A1576270A128A1183125D
:1007E8000313B1003108A8006B302806031DFD2B48
:1007F800FE2B012CA901A90A042CA901042C042C04
:100808002903031D082C092CBB2B0A2CA901A801BC
:10081800AB01AB0A262C262C831203132B08B1003C
:10082800B2013208003A03191A2C262C3108003A72
:100838000319042C013A0319AD2B033A03194B2B66
:10084800262C262C0800F300022D700C83120313AB
:10085800031C8713031887175D2D700C831203136D
:10086800031C0713031807175D2D700C831203135D
:10087800031C0811031808155D2D700C831203134F
:10088800031C8811031888155D2D700C831203133F
:10089800031C0712031807165D2D700C831203132F
:1008A800031C8712031887165D2D700C831203131F
:1008B800031C0812031808165D2D700C831203130D
:1008C800031C8812031888165D2D700C83120313FD
:1008D800031C0813031808175D2D700C83120313EB
:1008E800031C8813031888175D2D700C83120313DB
:1008F800031C0610031806145D2D700C83120313D5
:10090800031C8610031886145D2D700C83120313C4
:10091800031C0611031806155D2D700C83120313B2
:10092800031C0612031806165D2D700C83120313A0
:10093800031C8611031886155D2D700C8312031392
:10094800031C8612031886165D2D700C8312031380
:10095800031C0613031806175D2D700C831203136E
:10096800031C8711031887155D2D700C8312031360
:10097800031C8613031886175D2D700C831203134E
:10098800031C0512031805165D2D700C8312031342
:10099800031C8512031885165D2D700C8312031332
:1009A800031C0710031807145D2D700C8312031322
:1009B800031C8710031887145D2D700C8312031312
:1009C800031C0711031807155D2D700C8312031300
:1009D800031C8810031888145D2D700C83120313F0
:1009E800031C0810031808145D2D700C83120313E0
:1009F800031C0511031805155D2D5D2D7308F10005
:100A0800F2017208003A03190A2D5D2D7108003AA7
:100A18000319292C013A0319312C033A0319392CEB
:100A2800013A0319412C073A0319492C013A0319D1
:100A3800512C033A0319592C013A0319612C0F3A26
:100A48000319692C013A0319712C033A0319792CFB
:100A5800013A0319812C073A0319892C013A031921
:100A6800912C033A0319992C013A0319A12C1F3A26
:100A78000319A92C013A0319B12C033A0319B92C0B
:100A8800013A0319C12C073A0319C92C013A031971
:100A9800D12C033A0319D92C013A0319E12C0F3A46
:100AA8000319E92C013A0319F12C033A0319F92C1B
:100AB8005D2D0800F300412E700C83160313031CF0
:100AC8008713031887179C2E700C83160313031CB7
:100AD8000713031807179C2E700C83160313031CA7
:100AE8000811031808159C2E700C83160313031C99
:100AF8008811031888159C2E700C83160313031C89
:100B08000712031807169C2E700C83160313031C78
:100B18008712031887169C2E700C83160313031C68
:100B28000812031808169C2E700C83160313031C56
:100B38008812031888169C2E700C83160313031C46
:100B48000813031808179C2E700C83160313031C34
:100B58008813031888179C2E700C83160313031C24
:100B68000610031806149C2E700C83160313031C1E
:100B78008610031886149C2E700C83160313031C0E
:100B88000611031806159C2E700C83160313031CFC
:100B98000612031806169C2E700C83160313031CEA
:100BA8008611031886159C2E700C83160313031CDC
:100BB8008612031886169C2E700C83160313031CCA
:100BC8000613031806179C2E700C83160313031CB8
:100BD8008711031887159C2E700C83160313031CAA
:100BE8008613031886179C2E700C83160313031C98
:100BF8000512031805169C2E831603139F111F1543
:100C08009F101F10700C031C8512031885169C2E4C
:100C1800700C83160313031C0710031807149C2E6B
:100C2800700C83160313031C8710031887149C2E5B
:100C3800700C83160313031C0711031807159C2E49
:100C4800700C83160313031C8810031888149C2E39
:100C5800700C83160313031C0810031808149C2E29
:100C6800831603139F111F159F101F10700C031C70
:100C78000511031805159C2E9C2E7308F100F2012E
:100C88007208003A0319492E9C2E7108003A03197C
:100C9800602D013A0319682D033A0319702D013AA2
:100CA8000319782D073A0319802D013A0319882D65
:100CB800033A0319902D013A0319982D0F3A031995
:100CC800A02D013A0319A82D033A0319B02D013AB2
:100CD8000319B82D073A0319C02D013A0319C82D75
:100CE800033A0319D02D013A0319D82D1F3A0319D5
:100CF800E02D013A0319E82D033A0319F02D013AC2
:100D08000319F82D073A0319002E013A03190C2E7E
:100D1800033A0319142E013A03191C2E0F3A03192A
:100D2800242E013A03192C2E033A0319342E9C2E33
:100D38000800F200822F83120313070D070D0139F3
:100D4800DD2FDD2FDD2F83120313070EF000F00CCB
:100D5800700C0139DD2FDD2FDD2F83120313080CF2
:100D6800F000700C0139DD2FDD2FDD2F8312031306
:100D7800080CF000F00C700C0139DD2FDD2FDD2F91
:100D880083120313070E0139DD2FDD2FDD2F8312A8
:100D98000313070EF000700C0139DD2FDD2FDD2F56
:100DA80083120313080E0139DD2FDD2FDD2F831287
:100DB8000313080EF000700C0139DD2FDD2FDD2F35
:100DC80083120313080EF000F00C700C0139DD2FAC
:100DD800DD2FDD2F83120313080D080D0139DD2FD8
:100DE800DD2FDD2F8312031306080139DD2FDD2FD8
:100DF800DD2F83120313060C0139DD2FDD2FDD2FC4
:100E080083120313060CF000700C0139DD2FDD2F5F
:100E1800DD2F83120313060E0139DD2FDD2FDD2FA1
:100E280083120313060CF000F00C700C0139DD2F4F
:100E3800DD2FDD2F83120313060EF000700C01392D
:100E4800DD2FDD2FDD2F83120313060EF000F00CCB
:100E5800700C0139DD2FDD2FDD2F83120313070CF2
:100E6800F000F00C700C0139DD2FDD2FDD2F83121F
:100E78000313060D060D0139DD2FDD2FDD2F83123B
:100E88000313050E0139DD2FDD2FDD2F8312031328
:100E9800050EF000700C0139DD2FDD2FDD2F8312D8
:100EA800031307080139DD2FDD2FDD2F831203130C
:100EB800070C0139DD2FDD2FDD2F83120313070CFB
:100EC800F000700C0139DD2FDD2FDD2F83120313A5
:100ED800080C0139DD2FDD2FDD2F831203130808DD
:100EE8000139DD2FDD2FDD2F83120313050CF000F0
:100EF800700C0139DD2FDD2FDD2FDD2F7208F0009A
:100F0800F1017108003A03198A2FDD2F7008003AA1
:100F180003199F2E013A0319A72E033A0319B12E7C
:100F2800013A0319BA2E073A0319C42E013A0319D4
:100F3800CB2E033A0319D42E013A0319DB2E0F3AAC
:100F48000319E42E013A0319EE2E033A0319F62E7B
:100F5800013A0319FD2E073A0319042F013A031920
:100F68000D2F033A0319142F013A03191E2F1F3AA4
:100F78000319272F013A0319312F033A03193B2F7D
:100F8800013A0319432F073A03194A2F013A031963
:100F9800532F033A03195A2F013A0319612F0F3AB5
:100FA80003196A2F013A0319712F033A0319782F8D
:100FB800DD2F08000A128A1104200A128A11B800CB
:100FC8000A128A1105200A128A11B9000A128A1116
:100FD80006200A128A11BA00A001A101A201A301E8
:100FE800A401A501A601A701A801A901AA01AB01B5
:080FF80083010A128A15812F02
:101ECC004F30831203139D000800FF308316031359
:101EDC00920005308312031392004F3097000800D4
:101EEC00772F831203138C1E7C2F7D2F772F7E2F41
:101EFC001A08802F08000A128A1113200A128A1558
:101F0C000A128A15AD270A128A158C2F0A128A1109
:101F1C0045230A128A158C2F8C2F0A128A1100283D
:101F2C00F001F00A831203138C1A9D2F9E2FAC2FF5
:101F3C000C1EA12FA22FA92F831603139818A72FBD
:101F4C00A82FAC2FA92FF001AC2FAC2F080000301C
:101F5C0083120313B5000030B4002530B300803079
:101F6C00B2000A128A1134210A128A15F0010D30BE
:101F7C000A128A115E250A128A15EA2FF001F00A5C
:101F8C000D300A128A1127240A128A150A128A1590
:101F9C0076270A128A15FD007D0883120313A80008
:101FAC006B300A128A1107200A128A156B308312C1
:101FBC0003132806031DE32FE42FE72FA901A90A19
:101FCC00EA2FA901EA2FEA2F831203132903031D19
:101FDC00F02FF12FC42FF22FA901A801F0010D3021
:101FEC000A128A1127240A128A1583120313AB01D1
:041FFC00AB0A080024
:02400E00BA3FB7
:00000001FF
