:1000000049EF02F043504502F3CF01F0F4CF00F086
:100010004602F350002644504502F3500020026E81
:10002000AFEF02F08E0E006E42C001F041C002F050
:10003000036A015209E102C001F0026A080E005E83
:10004000015202E1006A08D0D89001BE04D0023605
:1000500001360006F9D7019EB6EF02F0800ED8B245
:100060004A1A4F6A506A46C04EF04A504E1A4550DE
:10007000D8B4DCD04D6E006E4950D8B4E0D04D5E9F
:10008000D8B481D03DE34AC053F0538E4BC052F0F8
:100090004CC051F0506AD8905332523251325032E3
:1000A0004D2EF8D74EAE03D04F80DDD04F904D90FF
:1000B0004F88EA6A480EE96EE9D04F984EBE0AD0E2
:1000C0004DA013D05332523251325032002AD8B49C
:1000D000C5D00BD053BE0CD0D890503651365236C6
:1000E00053360006D8B4BAD0F5D74F8C6BD04F9C9E
:1000F00046C04EF046AE02D0538EA9D0539EA7D034
:1001000049C04DF049C000F045504D5E46C053F027
:10011000538E47C052F048C051F0506AD8905332C5
:100120005232513250324D2EF8D74EAE03D04F825C
:100130009AD04F924D904F8AEA6A4C0EE96EA6D043
:100140004F9A4EBE0AD04DA013D053325232513284
:100150005032002AD8B482D00BD053BE0CD0D890E5
:1001600050365136523653360006D8B477D0F5D7CC
:100170004F8E28D04F9E4AC04EF04AAE02D0538ECA
:1001800066D0539E64D04AC053F0538E4BC052F099
:100190004CC051F04EAE04D0539E4F8464D04F9467
:1001A000506A4D90EA6A480EE96E70D04EBE1CD07F
:1001B00046C04EF04DA006D053325232513250322A
:1001C000002A4CE050AE0BD0512A09E1522A07E137
:1001D000532A05E1533252325132002A3FE04FBCDC
:1001E00086D74FBEC7D71CD0800E531A53AE04D04B
:1001F0003AD04AC04EF00AD046C04EF0535206E103
:10020000525204E1515202E1006A21D053BE08D09B
:10021000D8905036513652365336002EF7D71ED06E
:100220004EAE02D0538E13D0539E11D049C000F071
:100230004AC053F04BC052F04CC051F008D045C0FA
:1002400000F046C053F047C052F048C051F053C0D0
:1002500001F052C002F051C003F034D0006A016ACC
:10026000026A036A2FD0506A511E521E531E501E3E
:10027000502A05E1512A03E1522A01E1532A4FB0E5
:1002800015D74FB256D74FB48AD7B3D7EF505126B0
:1002900005E3522A03E1532AD8B44D80ED52EF50C2
:1002A000522603E3532AD8B44D80ED52EF50EFBEEF
:1002B00001D0800A5326D8B04D804FB8FED64FBA31
:1002C0003FD774D7000C4150D8B471D0006E455060
:1002D000D8B46DD0002604E3810E002668E204D075
:1002E0007F0E005E64E363E042C049F04650491A65
:1002F000428E468E44504802F4CF4BF043504702A2
:10030000F4CF03F0F3CF4AF04802F3504B26F450F9
:100310004A22000E032244504702F3504B26F45069
:100320004A22000E026A0322022242504802F3507F
:100330004A26F4500322000E022242504702F35094
:100340000326F4500222000E016A012244504602A4
:10035000F3504A26F4500322000E02220122435099
:100360004602F3500326F4500222000E01224250AE
:100370004602F3500226F4500122002A01BE05D0A5
:100380004A360336023601360006000E4AAE0AD05F
:10039000032A02220122015005E1025003E1035029
:1003A00001E1002A49BE018E49AE019E04D0006AD7
:1003B000016A026A036A000C42C049F04650491AB9
:1003C00049AE05D0D894D89042BED8802FD042C034
:1003D00049F045C04AF041504A5E06E049AE26D099
:1003E000D850010AD86E22D046C04AF042504A5E28
:1003F00006E049AE1BD0D850010AD86E17D047C0CE
:100400004AF043504A5E06E049AE10D0D850010A87
:10041000D86E0CD048C04AF044504A5E06E049AE5F
:1004200005D0D850010AD86E01D0D890000C8E0E9D
:10043000006E4150005E42C002F043C001F0028EE7
:10044000005209E0D890025202E1015204E0023267
:100450000132002EF7D742AE05D0011E021E012A3E
:10046000D8B4022AC1EF03F0EA6A410EE96EEF50F8
:100470000EE00F0E016E006A002EFED7012EFBD794
:100480008F0E006E002EFED70000EF2EF2D7EBEF9E
:1004900003F0F86AD09EEA6AE96AC150C00B0F09FE
:1004A000C16E070EB46E406A3F6A3E6A3D6A3C6A9E
:1004B0003B6A7A0E3A6E880E396E346A336A326A53
:1004C000316A386A376A366A356A0C6A910E0B6E81
:1004D0007E0E0A6E7B0E096E5F0E106E290E0F6E79
:1004E0004B0E0E6E770E0D6EA00E146E1A0E136E5E
:1004F0001F0E126E7E0E116E186A176A160E166E99
:10050000890E156E000E0509CA6EF90ECB6E949415
:100510008B94969C0C0EBD6EB76AB66AC290000EA4
:10052000016EC250C30B0110C26EC282C2B2FED7AE
:10053000C3CF05F0C4CF06F0036A0630026E023264
:100540003F0E021602C041F003C042F0130E446E8B
:10055000880E436E03C046F002C045F053D502C07A
:1005600003F001C041F002C042F05CD503C02CF0A2
:1005700002C02BF001C02AF000C029F018C01CF006
:1005800017C01BF016C01AF015C019F0D8821CC095
:1005900048F01BC047F01AC046F019C045F02CC007
:1005A0004CF02BC04BF02AC04AF029C049F056DD70
:1005B00003C020F002C01FF001C01EF000C01DF0FB
:1005C00010C044F00FC043F00EC042F00DC041F027
:1005D00020C048F01FC047F01EC046F01DC045F0C7
:1005E00072DE00C041F001C042F002C043F003C01F
:1005F00044F0D89203C048F002C047F001C046F072
:1006000000C045F034C04CF033C04BF032C04AF06B
:1006100031C049F023DD03C024F002C023F001C043
:1006200022F000C021F0D88220C048F01FC047F05F
:100630001EC046F01DC045F038C04CF037C04BF02E
:1006400036C04AF035C049F009DD14C044F013C08B
:1006500043F012C042F011C041F003C048F002C0A4
:1006600047F001C046F000C045F02DDE03C028F081
:1006700002C027F001C026F000C025F00CC044F0F5
:100680000BC043F00AC042F009C041F020C048F05E
:100690001FC047F01EC046F01DC045F014DED892C2
:1006A00024C048F023C047F022C046F021C045F0E6
:1006B00003C04CF002C04BF001C04AF000C049F04A
:1006C000CDDC00C041F001C042F002C043F003C0E5
:1006D00044F0D89203C048F002C047F001C046F091
:1006E00000C045F028C04CF027C04BF026C04AF0AF
:1006F00025C049F0B3DC03C030F002C02FF001C0C8
:100700002EF000C02DF03CC044F03BC043F03AC096
:1007100042F039C041F030C048F02FC047F02EC041
:1007200046F02DC045F048DE09E33CC030F03BC048
:100730002FF03AC02EF039C02DF01AD030C044F05E
:100740002FC043F02EC042F02DC041F040C048F011
:100750003FC047F03EC046F03DC045F02DDE08E307
:1007600040C030F03FC02FF03EC02EF03DC02DF015
:1007700030C044F02FC043F02EC042F02DC041F0F5
:1007800056D602C008F001C007F008C002F007C04A
:1007900001F00232013202320132023201C0BEFFE8
:1007A00002320230300B006EBD50CF0B0010BD6E18
:1007B00024C034F023C033F022C032F021C031F025
:1007C00020C038F01FC037F01EC036F01DC035F015
:0A07D000640E416E49D6A9D603005D
:020000040030CA
:0E00000020C23E1E008581000FC00FE00F40A1
:00000001FF
;PIC18F4550
;CRC=D54C  CREATED="15-Dec-16 21:07"
