:020000040000FA
:0400000007EF00F016
:0A0008001382E4ED3DF0C9EF3DF076
:107B5E0012001200B60ECD6E12003F0E926E93689A
:107B6E00CF0E946E956896809682968412009280BF
:107B7E00928292849286010EC26E0B0EC16EAB0E75
:107B8E00C06E120000EE01F00A0EEE6AE806FDE18C
:107B9E0013901392000EF86E0001D6EF3DF0FBEC41
:107BAE003DF0B0EC3DF0DCEF3DF0AFEC3DF0DCEF46
:107BBE003DF0DCEF3DF007EF00F00600F2A4EAEF37
:107BCE003DF0ECEF3DF0F9EF3DF0010E0526000E15
:107BDE00062207220822F294000ED66E000ED76EF1
:107BEE00F9EF3DF013921100BEEC3DF0E80E0B6E76
:107BFE00030E0C6E000E0D6E000E0E6E000E106E4D
:107C0E00100E0F6E3EEC3EF0B4EC3DF0000E13EC99
:107C1E003EF0B1EC3DF012000D6E28EF3EF0170E67
:107C2E00D56EF28AD58EC40ED56E000ED66E000EAF
:107C3E00D76EF294F28E3DEF3EF03DEF3EF03DEF0B
:107C4E003EF00D500B6E0C6A0C50000AD8B432EF99
:107C5E003EF03DEF3EF00B50000AD8B43DEF3EF043
:107C6E00010AD8B416EF3EF03DEF3EF012009480BC
:107C7E004FEF3EF0CA90CA9269EF3EF0CA80CA92A8
:107C8E0069EF3EF0CA80CA8269EF3EF069EF3EF0BE
:107C9E000FC011F010C012F01250000AD8B45AEFF3
:107CAE003EF069EF3EF01150010AD8B441EF3EF0BC
:107CBE00050AD8B445EF3EF0140AD8B449EF3EF0A9
:107CCE0069EF3EF0AA0ECB6EBD9EBD9CBD86BD84F7
:107CDE00000EBE6E000EBB6EBA98BA9ABD9ABD98D3
:107CEE00BA90BA92BA84BA869E92CA8494909492AA
:027CFE00120072
:020000040020DA
:08000000FFFFFFFFFFFFFFFF00
:020000040030CA
:0E000000140E191EFF8181FF0FC00FE00F408C
:00000001FF
