:020000040000FA
:060000000A128A11FA2F1A
:100848004F30831203139D0008000E300A128A11DC
:100858003B240A128A110800FF3083160313920002
:1008680005308312031392004F3097000800F500FB
:100878007508F4007408FA00F00175080A128A1164
:10088800BB260A128A1108000A128A115D240A126C
:100898008A110A128A1129240A128A11532C0A125F
:1008A8008A1183240A128A11532C532C0A128A1192
:1008B80000288130831203139F00C230831603136C
:1008C8009F0085013F308500860100308600870142
:1008D800003087000A128A1130240A128A110A127B
:1008E8008A1124240A128A11880100308808831288
:1008F8000313890107308316031389000800643045
:10090800F4000030F5000A128A1108250A128A112B
:100918006430F0000030F1000A128A11BA240A1279
:100928008A11C830F4000030F5000A128A1108252F
:100938000A128A116430F0000030F1000A128A119C
:10094800BA240A128A112C30F4000130F5000A1278
:100958008A1108250A128A116430F0000030F1006B
:100968000A128A11BA240A128A110800F301F40142
:100978007408803AF2007108803A7202031DC62C8E
:1009880070087302031CC92CCA2CCC2C072D072D08
:10099800F501F6017608803AFF0081307F02031DD9
:1009A800D72C90307502031CDA2CDB2CDD2CF22CB2
:1009B800F22C00000130F5070318F60A0030F6079C
:1009C8007608803AFF0081307F02031DED2C9030BD
:1009D8007502031CF02CF12CDD2CF22C0130F307EE
:1009E8000318F40A0030F4077408803AF20071081A
:1009F800803A7202031D022D70087302031C052D34
:100A0800062DCC2C072D08007408AF3E8312031363
:100A1800A60075080318013E003EA7002609F60047
:100A28002709F700F60A0319F70A7608FE3EA00020
:100A380077080318013E103EA100A801A901003063
:100A480029020A3003192802031C2B2D2C2D2E2DC8
:100A5800832D832DF001F00A7A080A128A11842561
:100A68000A128A1183120313A201A301462D3C2DF9
:100A78003D2D0000013083120313A2070318A30AB7
:100A88000030A30727082302031D4C2D2608220245
:100A9800031C4F2D502D3B2D512DF0017A080A12C1
:100AA8008A1184250A128A1183120313A401A5014D
:100AB800682D5E2D5F2D0000013083120313A407FB
:100AC8000318A50A0030A50721082502031D6E2D6D
:100AD80020082402031C712D722D5D2D732D013009
:100AE800A8070318A90A0030A907003029020A300C
:100AF80003192802031C812D822D2E2D832D080019
:100B0800F3005F2E700C83120313031C8713031862
:100B18008717BA2E700C83120313031C07130318CC
:100B28000717BA2E700C83120313031C081103183D
:100B38000815BA2E700C83120313031C88110318AE
:100B48008815BA2E700C83120313031C071203189E
:100B58000716BA2E700C83120313031C871203188E
:100B68008716BA2E700C83120313031C081203187D
:100B78000816BA2E700C83120313031C881203186C
:100B88008816BA2E700C83120313031C081303185B
:100B98000817BA2E700C83120313031C881303184A
:100BA8008817BA2E700C83120313031C061003183F
:100BB8000614BA2E700C83120313031C8610031834
:100BC8008614BA2E700C83120313031C0611031823
:100BD8000615BA2E700C83120313031C0612031891
:100BE8000616BA2E700C83120313031C8611031801
:100BF8008615BA2E700C83120313031C8612031871
:100C08008616BA2E700C83120313031C06130318DE
:100C18000617BA2E700C83120313031C87110318CE
:100C28008715BA2E700C83120313031C861303183E
:100C38008617BA2E700C83120313031C05120318AF
:100C48000516BA2E700C83120313031C85120318A1
:100C58008516BA2E700C83120313031C0710031891
:100C68000714BA2E700C83120313031C8710031881
:100C78008714BA2E700C83120313031C0711031870
:100C88000715BA2E700C83120313031C881003185F
:100C98008814BA2E700C83120313031C081003184F
:100CA8000814BA2E700C83120313031C05110318C1
:100CB8000515BA2EBA2E7308F100F2017208003A2F
:100CC8000319672EBA2E7108003A0319862D013AC6
:100CD80003198E2D033A0319962D013A03199E2DF7
:100CE800073A0319A62D013A0319AE2D033A031941
:100CF800B62D013A0319BE2D0F3A0319C62D013A34
:100D08000319CE2D033A0319D62D013A0319DE2D06
:100D1800073A0319E62D013A0319EE2D033A031990
:100D2800F62D013A0319FE2D1F3A0319062E013A32
:100D380003190E2E033A0319162E013A03191E2E13
:100D4800073A0319262E013A03192E2E033A0319DE
:100D5800362E013A03193E2E0F3A0319462E013A50
:100D680003194E2E033A0319562EBA2E0800F30023
:100D78009E2F700C83160313031C87130318871701
:100D8800F92F700C83160313031C07130318071796
:100D9800F92F700C83160313031C08110318081588
:100DA800F92F700C83160313031C88110318881578
:100DB800F92F700C83160313031C07120318071668
:100DC800F92F700C83160313031C87120318871658
:100DD800F92F700C83160313031C08120318081646
:100DE800F92F700C83160313031C88120318881636
:100DF800F92F700C83160313031C08130318081724
:100E0800F92F700C83160313031C88130318881713
:100E1800F92F700C83160313031C0610031806140D
:100E2800F92F700C83160313031C861003188614FD
:100E3800F92F700C83160313031C061103180615EB
:100E4800F92F700C83160313031C061203180616D9
:100E5800F92F700C83160313031C861103188615CB
:100E6800F92F700C83160313031C861203188616B9
:100E7800F92F700C83160313031C061303180617A7
:100E8800F92F700C83160313031C87110318871599
:100E9800F92F700C83160313031C86130318861787
:100EA800F92F700C83160313031C0512031805167B
:100EB800F92F831603139F111F159F101F10700C15
:100EC800031C851203188516F92F700C831603135B
:100ED800031C071003180714F92F700C831603134B
:100EE800031C871003188714F92F700C831603133B
:100EF800031C071103180715F92F700C8316031329
:100F0800031C881003188814F92F700C8316031318
:100F1800031C081003180814F92F831603139F11D4
:100F28001F159F101F10700C031C051103180515C1
:100F3800F92FF92F7308F100F2017208003A03192A
:100F4800A62FF92F7108003A0319BD2E013A03198B
:100F5800C52E033A0319CD2E013A0319D52E073AA7
:100F68000319DD2E013A0319E52E033A0319ED2E74
:100F7800013A0319F52E0F3A0319FD2E013A031908
:100F8800052F033A03190D2F013A0319152F073AB4
:100F980003191D2F013A0319252F033A03192D2F81
:100FA800013A0319352F1F3A03193D2F013A031946
:100FB800452F033A03194D2F013A0319552F073AC4
:100FC80003195D2F013A0319692F033A0319712F89
:100FD800013A0319792F0F3A0319812F013A03199E
:100FE800892F033A0319912FF92F0800F801F90105
:080FF80083010A128A11482C42
:02400E00BA3FB7
:00000001FF
