:100000000C9461000C9473000C9473000C947300B6
:100010000C9473000C9473000C9473000C94730094
:100020000C9473000C9473000C9473000C94730084
:100030000C9473000C9473000C9473000C94730074
:100040000C9430010C9473000C9473000C947300A6
:100050000C9473000C9473000C9473000C94730054
:100060000C9473000C94730000000000240027001F
:100070002A000000000023002600290000000000E4
:10008000250028002B0004040404040404040202D4
:100090000202020203030303030301020408102007
:1000A0004080010204081020010204081020000012
:1000B0000008000201000003040700000000000027
:1000C000000011241FBECFEFD8E0DEBFCDBF21E07E
:1000D000A0E0B1E001C01D92AB30B207E1F70E9491
:1000E0007A010C9421020C940000833081F028F4F2
:1000F000813099F08230A1F008958730A9F08830DE
:10010000B9F08430D1F4809180008F7D03C080915C
:1001100080008F7780938000089584B58F7702C028
:1001200084B58F7D84BD08958091B0008F7703C022
:100130008091B0008F7D8093B00008951F93CF937E
:10014000DF93E3EBF0E09491EFE9F0E0D491EBE89A
:10015000F0E0C491CC23D9F0182F992319F0892FFE
:100160000E947500EC2FF0E0EE0FFF1FE458FF4FE8
:10017000A591B4918FB7F894111105C09C91ED2F02
:10018000E095E92302C0EC91ED2BEC938FBFDF915A
:10019000CF911F910895CF93DF93282F30E0F9017D
:1001A000E255FF4F8491F901E656FF4FD491F901D2
:1001B000EA57FF4FC491CC2391F081110E94750042
:1001C000EC2FF0E0EE0FFF1FEE58FF4FA591B4911A
:1001D000EC91ED2381E090E021F480E002C080E02A
:1001E00090E0DF91CF910895CF93DF9390E0FC01F1
:1001F000E656FF4F2491FC01EA57FF4F8491882374
:1002000061F190E0880F991FFC01E859FF4FC591FB
:10021000D491FC01E458FF4FA591B491611109C03C
:100220009FB7F8948881209582238883EC912E23B0
:100230000BC0623061F49FB7F8943881822F8095AB
:1002400083238883EC912E2B2C939FBF06C08FB7FE
:10025000F894E8812E2B28838FBFDF91CF910895EA
:100260001F920F920FB60F9211242F933F938F93EB
:100270009F93AF93BF938091070190910801A09144
:100280000901B0910A013091060123E0230F2D37B7
:1002900020F40196A11DB11D05C026E8230F02968A
:1002A000A11DB11D209306018093070190930801C1
:1002B000A0930901B0930A0180910201909103017A
:1002C000A0910401B09105010196A11DB11D80937B
:1002D000020190930301A0930401B0930501BF9123
:1002E000AF919F918F913F912F910F900FBE0F90E3
:1002F0001F901895789484B5826084BD84B5816020
:1003000084BD85B5826085BD85B5816085BD8091E0
:100310006E00816080936E00109281008091810058
:100320008260809381008091810081608093810050
:10033000809180008160809380008091B100846012
:100340008093B1008091B00081608093B000809173
:100350007A00846080937A0080917A008260809332
:100360007A0080917A00816080937A0080917A008F
:10037000806880937A001092C10060E082E00E9461
:10038000F40060E083E00E94F40060E084E00E94FA
:10039000F40061E085E00E94F40081E090E0909339
:1003A000010180930001C0E0D0E003E010E082E0B2
:1003B000E82EF12CCC24C394D12C84E00E94CB00F5
:1003C0004C0183E00E94CB005C0182E00E94CB00E4
:1003D00020910001309101012230310569F0233074
:1003E000310589F02130310589F4892899F4F0929A
:1003F0000101E09200010EC0892B61F4109301010C
:100400000093000107C0AB2891F304C0D092010112
:10041000C092000180910001909101019C01215046
:1004200031092230310510F480E003C0039719F43C
:1004300081E00E949E00209709F4BFCF0E94000037
:06044000BCCFF894FFCFD1
:00000001FF
