:020000040000FA
:060000000A128A11D12F43
:10000A0090280A168A1144270A128A11FC01FC0A4E
:10001A0002300A128A1562200A128A113F300A1621
:10002A008A11D5270A128A112E280A128A117A24CD
:10003A000A128A1183120313B6003608B20041303D
:10004A003206031D29282A282E28D601D60A2E2848
:10005A002E28831203135603031D342835281A2821
:10006A003628D601E501A2280A168A1144270A125F
:10007A008A117C280A128A117A240A128A11831296
:10008A000313B6003608B2006E30320603194E2842
:10009A004F287C280730B6003608FC0001300A12C7
:1000AA008A1562200A128A118312031332080A1669
:1000BA008A1163270A128A11FA30F0000030F1001F
:1000CA000A128A158E200A128A110A168A114427E0
:1000DA000A128A112330831203133206031D76286B
:1000EA0077287C28D601D60A7C287C287C2883128B
:1000FA0003135603031D822883283F2884280A16DF
:10010A008A1144270A128A1183120313D601E501C0
:10011A00E50AA228A228831203136508B600B701CC
:10012A003708003A03199A28A2283608003A031910
:10013A003928013A03190628A2280800F20076296C
:10014A0083120313070D070D0139CB29CB29CB29BC
:10015A0083120313070EF000F00C700C0139CB293F
:10016A00CB29CB2983120313070EF000700C013937
:10017A00CB29CB29CB2983120313070E0139CB29AB
:10018A00CB29CB2983120313070CF000F00C700C57
:10019A000139CB29CB29CB2983120313070CF00091
:1001AA00700C0139CB29CB29CB2983120313070CF5
:1001BA000139CB29CB29CB2983120313070801392B
:1001CA00CB29CB29CB298312031306080139CB2962
:1001DA00CB29CB2983120313060C0139CB29CB294E
:1001EA00CB2983120313060CF000700C0139CB29BA
:1001FA00CB29CB2983120313060CF000F00C700CE8
:10020A000139CB29CB29CB2983120313060E0139D5
:10021A00CB29CB29CB2983120313060EF000700CCD
:10022A000139CB29CB29CB2983120313060EF000FF
:10023A00F00C700C0139CB29CB29CB29831203137B
:10024A00060D060D0139CB29CB29CB2983120313BD
:10025A0008080139CB29CB29CB2983120313080CAF
:10026A000139CB29CB29CB2983120313080CF000BF
:10027A00700C0139CB29CB29CB2983120313080C23
:10028A00F000F00C700C0139CB29CB29CB29831251
:10029A000313080E0139CB29CB29CB298312031367
:1002AA00080EF000700C0139CB29CB29CB29831217
:1002BA000313080EF000F00C700C0139CB29CB297E
:1002CA00CB2983120313080D080D0139CB29CB2939
:1002DA00CB2983120313050E0139CB29CB29CB294C
:1002EA00CB297208F000F1017108003A03197E293E
:1002FA00CB297008003A0319A528013A0319AD2839
:10030A00033A0319B728013A0319C028073A03190F
:10031A00C728013A0319D128033A0319DA28013AFE
:10032A000319E1280F3A0319E828013A0319EF28BB
:10033A00033A0319F628013A0319FF28073A031961
:10034A000929013A03191029033A03191929013A0B
:10035A00031923291F3A03192B29013A03193229B0
:10036A00033A03193929013A03194229073A0319A9
:10037A004C29013A03195329033A03195C29013A12
:10038A00031966290F3A03196E29CB290800F600CA
:10039A003F2CF0018312031357080A128A15DD262F
:1003AA000A128A11F0018312031359080A128A15D4
:1003BA00DD260A128A11F001831203135B080A125E
:1003CA008A15DD260A128A11F001831203135D08C9
:1003DA000A128A15DD260A128A11792CF001831273
:1003EA00031357080A128A15DD260A128A11F00128
:1003FA008312031359080A128A15DD260A128A1172
:10040A00F001831203135B080A128A15DD260A1209
:10041A008A11F001F00A831203135D080A128A1581
:10042A00DD260A128A11792CF00183120313570868
:10043A000A128A15DD260A128A11F00183120313A1
:10044A0059080A128A15DD260A128A11F001F00AE1
:10045A00831203135B080A128A15DD260A128A110F
:10046A00F001831203135D080A128A15DD260A12A7
:10047A008A11792CF0018312031357080A128A157C
:10048A00DD260A128A11F0018312031359080A128F
:10049A008A15DD260A128A11F001F00A8312031363
:1004AA005B080A128A15DD260A128A11F001F00A7F
:1004BA00831203135D080A128A15DD260A128A11AD
:1004CA00792CF0018312031357080A128A15DD26C4
:1004DA000A128A11F001F00A8312031359080A1248
:1004EA008A15DD260A128A11F001831203135B08AA
:1004FA000A128A15DD260A128A11F00183120313E1
:10050A005D080A128A15DD260A128A11792CF00171
:10051A008312031357080A128A15DD260A128A1152
:10052A00F001F00A8312031359080A128A15DD260C
:10053A000A128A11F001831203135B080A128A1540
:10054A00DD260A128A11F001F00A831203135D08EC
:10055A000A128A15DD260A128A11792CF0018312F1
:10056A00031357080A128A15DD260A128A11F001A6
:10057A00F00A8312031359080A128A15DD260A1291
:10058A008A11F001F00A831203135B080A128A1512
:10059A00DD260A128A11F001831203135D080A127A
:1005AA008A15DD260A128A11792CF00183120313A7
:1005BA0057080A128A15DD260A128A11F001F00A72
:1005CA008312031359080A128A15DD260A128A11A0
:1005DA00F001F00A831203135B080A128A15DD265A
:1005EA000A128A11F001F00A831203135D080A1233
:1005FA008A15DD260A128A11792CF001F00A831273
:10060A00031357080A128A15DD260A128A11F00105
:10061A008312031359080A128A15DD260A128A114F
:10062A00F001831203135B080A128A15DD260A12E7
:10063A008A11F001831203135D080A128A15DD2656
:10064A000A128A11792CF001F00A8312031357084F
:10065A000A128A15DD260A128A11F001831203137F
:10066A0059080A128A15DD260A128A11F001831224
:10067A0003135B080A128A15DD260A128A11F00191
:10068A00F00A831203135D080A128A15DD260A127C
:10069A008A11792CF001F00A8312031357080A12FF
:1006AA008A15DD260A128A11F001831203135908EA
:1006BA000A128A15DD260A128A11F001F00A83123B
:1006CA0003135B080A128A15DD260A128A11F00141
:1006DA00831203135D080A128A15DD260A128A118B
:1006EA00792CF001F00A8312031357080A128A15AB
:1006FA00DD260A128A11F0018312031359080A121D
:10070A008A15DD260A128A11F001F00A83120313F0
:10071A005B080A128A15DD260A128A11F001F00A0C
:10072A00831203135D080A128A15DD260A128A113A
:10073A00792CF001F00A8312031357080A128A155A
:10074A00DD260A128A11F001F00A831203135908EE
:10075A000A128A15DD260A128A11F001831203137E
:10076A005B080A128A15DD260A128A11F001831221
:10077A0003135D080A128A15DD260A128A11792CDA
:10078A00F001F00A8312031357080A128A15DD26AC
:10079A000A128A11F001F00A8312031359080A1285
:1007AA008A15DD260A128A11F001831203135B08E7
:1007BA000A128A15DD260A128A11F001F00A83123A
:1007CA0003135D080A128A15DD260A128A11792C8A
:1007DA00F001F00A8312031357080A128A15DD265C
:1007EA000A128A11F001F00A8312031359080A1235
:1007FA008A15DD260A128A11F001F00A8312031300
:10080A005B080A128A15DD260A128A11F001831280
:10081A0003135D080A128A15DD260A128A11792C39
:10082A00F001F00A8312031357080A128A15DD260B
:10083A000A128A11F001F00A8312031359080A12E4
:10084A008A15DD260A128A11F001F00A83120313AF
:10085A005B080A128A15DD260A128A11F001F00ACB
:10086A00831203135D080A128A15DD260A128A11F9
:10087A00792C792C7608F400F5017508003A0319E9
:10088A00472C792C7408003A0319CE29013A031926
:10089A00F329033A0319192A013A03193F2A073A95
:1008AA000319662A013A03198C2A033A0319B32A4F
:1008BA00013A0319DA2A0F3A0319022B013A0319EA
:1008CA00282B033A03194F2B013A0319762B073ABF
:1008DA0003199E2B013A0319C52B033A0319ED2B71
:1008EA00013A0319152C792C0800F001F00A831239
:1008FA00031346080A128A15DD260A128A11F00124
:10090A008312031348080A128A15DD260A128A116D
:10091A00F001831203134A080A128A15DD260A1205
:10092A008A11F001831203134C080A128A15DD2674
:10093A000A128A11831203134E080A128A11A3207B
:10094A000A128A11003A0319AB2CAC2CCA2C831256
:10095A0003133108F1003008F0000A128A158E20BC
:10096A000A128A11831203134E080A128A11A3204B
:10097A000A128A11003A0319C32CC42CD02F8312ED
:10098A0003132008D02FD02FD02F8312031350081F
:10099A000A128A11A3200A128A11003A0319D62CC4
:1009AA00D72CF52C831203133108F1003008F0001C
:1009BA000A128A158E200A128A118312031350080A
:1009CA000A128A11A3200A128A11003A0319EE2C7C
:1009DA00EF2CD02F831203132408D02FD02FD02F1F
:1009EA008312031352080A128A11A3200A128A11C7
:1009FA00003A0319012D022D202D83120313310809
:100A0A00F1003008F0000A128A158E200A128A11A3
:100A1A008312031352080A128A11A3200A128A1196
:100A2A00003A0319192D1A2DD02F831203132808FF
:100A3A00D02FD02FD02F8312031354080A128A11F1
:100A4A00A3200A128A11003A03192C2D2D2D4B2DA1
:100A5A00831203133108F1003008F0000A128A15D4
:100A6A008E200A128A118312031354080A128A1159
:100A7A00A3200A128A11003A0319442D452DD02FBA
:100A8A00831203132C08D02FD02FD02FF0018312FA
:100A9A00031346080A128A15DD260A128A11F00182
:100AAA00F00A8312031348080A128A15DD260A126D
:100ABA008A11F001831203134A080A128A15DD26E5
:100ACA000A128A11F001831203134C080A128A15BA
:100ADA00DD260A128A11831203134E080A128A119A
:100AEA00A3200A128A11003A03197C2D7D2D9B2D11
:100AFA00831203133108F1003008F0000A128A1534
:100B0A008E200A128A11831203134E080A128A11BE
:100B1A00A3200A128A11003A0319942D952DD02F79
:100B2A00831203132108D02FD02FD02F831203133F
:100B3A0050080A128A11A3200A128A11003A0319CC
:100B4A00A72DA82DC62D831203133108F1003008F2
:100B5A00F0000A128A158E200A128A1183120313D0
:100B6A0050080A128A11A3200A128A11003A03199C
:100B7A00BF2DC02DD02F831203132508D02FD02FBD
:100B8A00D02F8312031352080A128A11A3200A12C1
:100B9A008A11003A0319D22DD32DF12D8312031392
:100BAA003108F1003008F0000A128A158E200A1264
:100BBA008A118312031352080A128A11A3200A12F5
:100BCA008A11003A0319EA2DEB2DD02F8312031351
:100BDA002908D02FD02FD02F8312031354080A12BA
:100BEA008A11A3200A128A11003A0319FD2DFE2D3B
:100BFA001C2E831203133108F1003008F0000A1288
:100C0A008A158E200A128A118312031354080A12B3
:100C1A008A11A3200A128A11003A0319152E162ED8
:100C2A00D02F831203132D08D02FD02FD02FF001ED
:100C3A008312031346080A128A15DD260A128A113C
:100C4A00F0018312031348080A128A15DD260A12D4
:100C5A008A11F001F00A831203134A080A128A154C
:100C6A00DD260A128A11F001831203134C080A12B4
:100C7A008A15DD260A128A11831203134E080A12F4
:100C8A008A11A3200A128A11003A03194D2E4E2EF8
:100C9A006C2E831203133108F1003008F0000A1297
:100CAA008A158E200A128A11831203134E080A1219
:100CBA008A11A3200A128A11003A0319652E662E98
:100CCA00D02F831203132208D02FD02FD02F8312B4
:100CDA00031350080A128A11A3200A128A11003A31
:100CEA000319782E792E972E831203133108F100F7
:100CFA003008F0000A128A158E200A128A1183120D
:100D0A00031350080A128A11A3200A128A11003A00
:100D1A000319902E912ED02F831203132608D02F59
:100D2A00D02FD02F8312031352080A128A11A3203C
:100D3A000A128A11003A0319A32EA42EC22E831274
:100D4A0003133108F1003008F0000A128A158E20C8
:100D5A000A128A118312031352080A128A11A32053
:100D6A000A128A11003A0319BB2EBC2ED02F831205
:100D7A0003132A08D02FD02FD02F8312031354081D
:100D8A000A128A11A3200A128A11003A0319CE2ED6
:100D9A00CF2EED2E831203133108F1003008F00034
:100DAA000A128A158E200A128A1183120313540812
:100DBA000A128A11A3200A128A11003A0319E62E8E
:100DCA00E72ED02F831203132E08D02FD02FD02F27
:100DDA00F0018312031346080A128A15DD260A1245
:100DEA008A11F0018312031348080A128A15DD26B4
:100DFA000A128A11F001831203134A080A128A1589
:100E0A00DD260A128A11F001F00A831203134C0834
:100E1A000A128A15DD260A128A11831203134E0852
:100E2A000A128A11A3200A128A11003A03191E2FE4
:100E3A001F2F3D2F831203133108F1003008F000F1
:100E4A000A128A158E200A128A11831203134E0877
:100E5A000A128A11A3200A128A11003A0319362F9C
:100E6A00372FD02F831203132308D02FD02FD02F40
:100E7A008312031350080A128A11A3200A128A1134
:100E8A00003A0319492F4A2F682F83120313310896
:100E9A00F1003008F0000A128A158E200A128A110F
:100EAA008312031350080A128A11A3200A128A1104
:100EBA00003A0319612F622FD02F831203132708D8
:100ECA00D02FD02FD02F8312031352080A128A115F
:100EDA00A3200A128A11003A0319742F752F932F2F
:100EEA00831203133108F1003008F0000A128A1540
:100EFA008E200A128A118312031352080A128A11C7
:100F0A00A3200A128A11003A03198C2F8D2FD02F91
:100F1A00831203132B08D02FD02FD02F8312031341
:100F2A0054080A128A11A3200A128A11003A0319D4
:100F3A009F2FA02FBE2F831203133108F100300810
:100F4A00F0000A128A158E200A128A1183120313DC
:100F5A0054080A128A11A3200A128A11003A0319A4
:100F6A00B72FB82FD02F831203132F08D02FD02FCB
:100F7A00D02F6E30D02FD02FD02FD02FD02FD02FD0
:100F8A00D02FD02FD02FD02FD02FD02FD02FD02F5F
:100F9A00D02FD02FD02F08008313D030FD00173068
:100FAA00FE005330FF00C03084000A168A117827E9
:100FBA000A128A113330FD001730FE008730FF0015
:100FCA00203084000A168A1178270A128A11A03062
:100FDA008400C0300A168A114B270A128A11463039
:100FEA00840057300A168A114B270A128A11830184
:100FFA000A168A119A2F08308A000408840A82077E
:10100A000034063405340434023403340834093411
:10101A000A340B340D340C340E34103400341134C9
:10102A0000341234003413340034143400341534C8
:10103A000034163400341734003420344534513423
:10104A005534493450344F342034203457346934B9
:10105A0043346F34523465342034003420344D34F0
:10106A006134723462346C346534203443346F34FE
:10107A0075346E3474346534723420340034203458
:10108A002734413427342034203474346F342034E4
:10109A002034533474346134723474342034003458
:1010AE00FF30831603139200053083120313920050
:1010BE004F309700080083120313B300B4013303BB
:1010CE00031D6A286B2877287C087F3EFD007D086B
:1010DE00B40034080A128A15DC200A128A158D28EB
:1010EE000230831203133306031D7E287F288D28BA
:1010FE007C08BF3EFD007D08B40034080A128A1534
:10110E00DC200A128A158D288D288D280800F301FF
:10111E00F4017408803AF2007108803A7202031DDD
:10112E009A2870087302031C9D289E28A028DB288D
:10113E00DB28F501F6017608803AFF0081307F0248
:10114E00031DAB2890307502031CAE28AF28B128C2
:10115E00C628C62800000130F5070318F60A00302D
:10116E00F6077608803AFF0081307F02031DC12802
:10117E0090307502031CC428C528B128C62801303A
:10118E00F3070318F40A0030F4077408803AF200EB
:10119E007108803A7202031DD62870087302031C70
:1011AE00D928DA28A028DB280800FA00FB01F9016B
:1011BE007A08F039F7007708FB007B08F700043057
:1011CE000310F70CFF3E031DE7287708F800780898
:1011DE00FB007A080F39F7007708F9007B080A122E
:1011EE008A11CC210A128A15F001831203136308A7
:1011FE000A128A15DD260A128A15F00183120313CC
:10120E005F080A128A15DD260A128A15F001F00A05
:10121E008312031361080A128A15DD260A128A1533
:10122E000530F0000030F1000A128A158E200A12E5
:10123E008A15F0018312031361080A128A15DD263E
:10124E000A128A150530F0000030F1000A128A15D4
:10125E008E200A128A1579080A128A11CC210A12D6
:10126E008A15F001F00A8312031361080A128A1517
:10127E00DD260A128A150530F0000030F1000A1240
:10128E008A158E200A128A15F00183120313610843
:10129E000A128A15DD260A128A150330F000003074
:1012AE00F1000A128A158E200A128A150800FA0019
:1012BE00FB01F9017A08F039F7007708FB007B088B
:1012CE00F70004300310F70CFF3E031D6929770861
:1012DE00F8007808FB007A080F39F7007708F90054
:1012EE007B080A128A11CC210A128A15F001F00A23
:1012FE008312031363080A128A15DD260A128A1551
:10130E00F001831203135F080A128A15DD260A12F2
:10131E008A15F001F00A8312031361080A128A1566
:10132E00DD260A128A150530F0000030F1000A128F
:10133E008A158E200A128A15F00183120313610892
:10134E000A128A15DD260A128A150530F0000030C1
:10135E00F1000A128A158E200A128A1579080A12CD
:10136E008A11CC210A128A15F001F00A8312031396
:10137E0061080A128A15DD260A128A150530F00058
:10138E000030F1000A128A158E200A128A15F00119
:10139E008312031361080A128A15DD260A128A15B2
:1013AE000330F0000030F1000A128A158E200A1266
:1013BE008A15080083120313B9003908FC00FD01D9
:1013CE007C08E3007D08E4003308FC00FD017C0886
:1013DE00E1007D08E2003408FC00FD017C08DF001E
:1013EE007D08E0003508FC00FD017C08DD007D086D
:1013FE00DE003608FC00FD017C08DB007D08DC0009
:10140E003708FC00FD017C08D9007D08DA00380899
:10141E00FC00FD017C08D7007D08D800F0013908DA
:10142E000A128A15BC250A128A15F00183120313BB
:10143E0033080A128A15BC250A128A15F001831286
:10144E00031334080A128A15BC250A128A15F001F4
:10145E008312031335080A128A15BC250A128A153F
:10146E00F0018312031336080A128A15BC250A12DC
:10147E008A15F0018312031337080A128A15BC2548
:10148E000A128A15F0018312031338080A128A15FC
:10149E00BC250A128A150F30F0000030F1000A1236
:1014AE008A158E200A128A1502300A128A15DC203D
:1014BE000A128A1528300A128A15DC200A128A1599
:1014CE0001300A128A15DC200A128A150C300A1213
:1014DE008A15DC200A128A1506300A128A15DC20BB
:1014EE000A128A15080083160313181183120313A8
:1014FE003908F9003A08FA003B08FB003C08FC00EA
:10150E0006300310F90DFA0DFB0DFC0DFF3E031D09
:10151E00882A7C08F3007B08F2007A08F10079082B
:10152E00F0000130F7003130F6002D30F5000030BC
:10153E00F4000A128A151F230A128A157008FF3E3C
:10154E0083120313BD0071080318013EFF3EBE0057
:10155E0001303E02003003193D02031CB72AB82A9F
:10156E00062B831603131815831203133908F9007B
:10157E003A08FA003B08FB003C08FC00043003105C
:10158E00F90DFA0DFB0DFC0DFF3E031DC62A7C085E
:10159E00F3007B08F2007A08F1007908F0000130C0
:1015AE00F7003130F6002D30F5000030F4000A124D
:1015BE008A151F230A128A157008FF3E8312031321
:1015CE00BD0071080318013EFF3EBE003D088316A4
:1015DE00031399001812831203139817831603131B
:1015EE0087170717831203131816831603139816FB
:1015FE008312031399019A011E2B1E2B1E2B3D08DD
:10160E008316031399001812831203139817831667
:10161E000313871707178312031318168316031362
:10162E0098168312031399019A011E2B1E2B080084
:10163E0083120313B401F31F252B262B332BF00932
:10164E00F109F209F309F00A0319F10A0319F20A72
:10165E000319F30AB401B40AF71F362B372B472BA5
:10166E00F409F509F609F709F40A0319F50A03193D
:10167E00F60A0319F70A0130F8007808B406472B6A
:10168E000030B8000030B7000030B6000030B500B2
:10169E0073087204710470040319562B572BAA2B6E
:1016AE00B301B30A682B0130F8000310F00DF10DF1
:1016BE00F20DF30DF80B5C2B0130F8007808B30730
:1016CE00682BF31F6B2B6C2B5A2B6E2B6E2B013052
:1016DE00F8000310B50DB60DB70DB80DF80B702B45
:1016EE0073087702031D852B72087602031D852B66
:1016FE0071087502031D852B70087402031C882B5C
:10170E00892B992B7008F4027108031C710FF502D6
:10171E007208031C720FF6027308031C730FF70294
:10172E003514992B01300310F30CF20CF10CF00C64
:10173E00FF3E031D9A2B0130B302031DA72BA82BCE
:10174E006E2BAA2BAA2B34080319AE2BAF2BBB2B57
:10175E00B509B609B709B809B50A0319B60A0319C6
:10176E00B70A0319B80ABB2B3808F3003708F20082
:10177E003608F1003508F000C42B0800831203135D
:10178E00B300B801B9013908803AFF0080307F02FA
:10179E00031DD32B04303802031CD62BD72BD92B89
:1017AE00442C442C831203133808F60076073307B3
:1017BE0084000A128A1500200A128A15F7000A12EE
:1017CE008A1500200A128A15F8003808F9007907E0
:1017DE004E3E8400770883138000840A78088000C8
:1017EE003808F6007607740784000A128A1500205E
:1017FE000A128A15F7000A128A1500200A128A1593
:10180E00F8003808F9007907463E84007708800012
:10181E00840A78088000F001F00A3808F60076078E
:10182E004E3E840000080A128A15BC250A128A153B
:10183E00F001831203133808F6007607463E840043
:10184E00831300080A128A15BC250A128A15013064
:10185E0083120313B8070318B90A0030B907390801
:10186E00803AFF0080307F02031D3F2C0430380287
:10187E00031C422C432CD92B442C83120313B4018A
:10188E00B5013508803AFF0080307F02031D512CD0
:10189E0004303402031C542C552C572CBC2CBC2C5D
:1018AE0083120313B601B7013708803AFF00803068
:1018BE007F02031D642C04303602031C672C682C37
:1018CE006A2CA62CA62C831203133408F6000130C2
:1018DE000310F60DFF3E031D6F2C0310760D7507DA
:1018EE00F70036087707F80078088400831300089D
:1018FE00F9003408FA0002300310FA0DFF3E031D02
:10190E00832C20307A07FB0036087B07FC007C080E
:10191E008400790880000130B6070318B70A00303A
:10192E00B7073708803AFF0080307F02031DA12CD5
:10193E0004303602031CA42CA52C6A2CA62C0130D4
:10194E0083120313B4070318B50A0030B507350820
:10195E00803AFF0080307F02031DB72C0430340222
:10196E00031CBA2CBB2C572CBC2C0800831203135F
:10197E00E501E50A0A3084000A128A1500200A12CF
:10198E008A15BF003F08B3000B3084000A128A1577
:10199E0000200A128A15C0004008B40009308400E5
:1019AE000A128A1500200A128A15C1004108B500D4
:1019BE00083084000A128A1500200A128A15C20005
:1019CE004208B600073084000A128A1500200A1257
:1019DE008A15C3004308B700063084000A128A1520
:1019EE0000200A128A15C4004408B8000C30840086
:1019FE000A128A1500200A128A150A128A15E12186
:101A0E000A128A150D3083120313BF003F08F4002B
:101A1E00C030C0004008F50015300A128A15C523E3
:101A2E000A128A15003083120313BC000030BB006B
:101A3E002530BA008030B9000A128A157A220A12AD
:101A4E008A15F001043084000A128A1500200A1249
:101A5E008A150A128A15BC250A128A15F00103305E
:101A6E0084000A128A1500200A128A150A128A1593
:101A7E00BC250A128A15F001023084000A128A155A
:101A8E0000200A128A150A128A15BC250A128A1516
:101A9E00F001F00A013084000A128A1500200A12A1
:101AAE008A150A128A15BC250A128A150A168A1177
:101ABE0044270A128A15FC01FC0A01300A128A1503
:101ACE0062200A128A151D300A168A11D5270A12AB
:101ADE008A15FC01FC0A02300A128A1562200A12CB
:101AEE008A1583120313C50110304502031C802D85
:101AFE00812D832D9F2D9F2D2E300A168A1163273F
:101B0E000A128A156430F0000030F1000A128A15AC
:101B1E008E200A128A15013083120313BF003F086C
:101B2E00C50710304502031C9D2D9E2D832D9F2D24
:101B3E000A168A1144270A128A15FC01FC0A013082
:101B4E000A128A1562200A128A152E300A168A1176
:101B5E00D5270A128A15FA30F0000030F1000A1269
:101B6E008A158E200A128A150800F300872E700C33
:101B7E0083160313031C871303188717DC2E700CB0
:101B8E0083160313031C071303180717DC2E700CA0
:101B9E0083160313031C871203188716DC2E700C92
:101BAE0083160313031C071203180716DC2E700C82
:101BBE0083160313031C871103188715DC2E700C74
:101BCE0083160313031C071103180715DC2E700C64
:101BDE0083160313031C871003188714DC2E700C56
:101BEE0083160313031C071003180714DC2E700C46
:101BFE0083160313031C061003180614DC2E700C38
:101C0E0083160313031C861003188614DC2E700C27
:101C1E0083160313031C061103180615DC2E700C15
:101C2E0083160313031C861103188615DC2E700C05
:101C3E0083160313031C061203180616DC2E700CF3
:101C4E0083160313031C861203188616DC2E700CE3
:101C5E0083160313031C061303180617DC2E700CD1
:101C6E0083160313031C861303188617DC2E700CC1
:101C7E0083160313031C081003180814DC2E700CB3
:101C8E0083160313031C881003188814DC2E700CA3
:101C9E0083160313031C081103180815DC2E700C91
:101CAE0083160313031C881103188815DC2E700C81
:101CBE0083160313031C081203180816DC2E700C6F
:101CCE0083160313031C881203188816DC2E700C5F
:101CDE0083160313031C081303180817DC2E700C4D
:101CEE0083160313031C881303188817DC2E700C3D
:101CFE0083160313031C051203180516DC2EDC2EA7
:101D0E007308F100F2017208003A03198F2EDC2ECF
:101D1E007108003A0319BE2D013A0319C62D033A74
:101D2E000319CE2D013A0319D62D073A0319DE2DCC
:101D3E00013A0319E62D033A0319EE2D013A031960
:101D4E00F62D0F3A0319FE2D013A0319062E033A0A
:101D5E0003190E2E013A0319162E073A03191E2ED9
:101D6E00013A0319262E033A03192E2E013A0319AE
:101D7E00362E1F3A03193E2E013A0319462E033A08
:101D8E0003194E2E013A0319562E073A03195E2EE9
:101D9E00013A0319662E033A03196E2E013A0319FE
:101DAE00762E0F3A03197E2EDC2E0800F300AA2F92
:101DBE00700C83120313031C871303188717FF2F4E
:101DCE00700C83120313031C071303180717FF2F3E
:101DDE00700C83120313031C871203188716FF2F30
:101DEE00700C83120313031C071203180716FF2F20
:101DFE00700C83120313031C871103188715FF2F12
:101E0E00831203139701700C031C07110318071597
:101E1E00FF2F831203139D01700C031C87100318F0
:101E2E008714FF2F700C83120313031C0710031863
:101E3E000714FF2F700C83120313031C06100318D4
:101E4E000614FF2F700C83120313031C8610031845
:101E5E008614FF2F700C83120313031C0611031834
:101E6E000615FF2F700C83120313031C8611031823
:101E7E008615FF2F700C83120313031C0612031812
:101E8E000616FF2F700C83120313031C8612031801
:101E9E008616FF2F700C83120313031C06130318F0
:101EAE000617FF2F700C83120313031C86130318DF
:101EBE008617FF2F700C83120313031C08100318D0
:101ECE000814FF2F700C83120313031C88100318C1
:101EDE008814FF2F700C83120313031C08110318B0
:101EEE000815FF2F700C83120313031C881103189F
:101EFE008815FF2F700C83120313031C081203188E
:101F0E000816FF2F700C83120313031C881203187C
:101F1E008816FF2F700C83120313031C081303186B
:101F2E000817FF2F700C83120313031C881303185A
:101F3E008817FF2F700C83120313031C051203184E
:101F4E000516FF2FFF2F7308F100F2017208003AF9
:101F5E000319B22FFF2F7108003A0319DF2E013A31
:101F6E000319E72E033A0319EF2E013A0319F72E40
:101F7E00073A0319FF2E013A0319072F033A0319E3
:101F8E00102F013A0319192F0F3A0319212F013A75
:101F9E000319292F033A0319312F013A0319392F47
:101FAE00073A0319412F013A0319492F033A03192E
:101FBE00512F013A0319592F1F3A0319612F013A74
:101FCE000319692F033A0319712F013A0319792F57
:101FDE00073A0319812F013A0319892F033A03197E
:101FEE00912F013A0319992F0F3A0319A12FFF2FA1
:021FFE000800D9
:102E7E004F30831203139D00080001300A128A1589
:102E8E00DC200A168A11080064008001840A0406F8
:102E9E000319003404064C2F3134323433344134A8
:102EAE0034343534363442343734383439344334A8
:102EBE002A34303423344434FC000830F00000301F
:102ECE00F1000A128A158E200A168A117C080A123F
:102EDE008A155E210A168A1108007E088A007F086C
:102EEE0082000A168A1174270A168A118000840A33
:102EFE0004087D0603190034FF0A0319FE0A782F11
:102F0E003034303430343034303430343034303493
:102F1E003034303430343034303430343034303483
:102F2E00643400346E340A168A11AF270A168A11D9
:102F3E000A128A15BD240A168A11A52F0A128A11A1
:102F4E0005200A168A11A52FA52F0A128A1100280C
:102F5E008130831203139F00C230831603139F0028
:102F6E0085013F30850086010030860087010030E4
:102F7E0087000A128A1557200A168A110A168A1114
:102F8E003F270A168A11880100308808831203131E
:102F9E008901073083160313890008008312031377
:102FAE00B500B301B401F12F3308350784000A12BE
:102FBE008A1500200A168A110A168A1163270A1624
:102FCE008A11013083120313B3070318B40A0030B9
:102FDE00B407F12F3308350784000A128A15002032
:102FEE000A168A11003A031DFD2FFE2FDB2FFF2F2D
:022FFE000800C9
:02400E00BA3FB7
:00000001FF
