:0400000042EF3CF09F
:1078840000017AEF3FF0710EC26E070EC16E120056
:10789400BD86BD84CA849494120009C001F00AC054
:1078A40002F0036A8E0E046E000E056E56EC3DF077
:1078B40001C009F002C00AF003C00BF0120001502D
:1078C4000302F3CF05F0F4CF06F001500402F350A5
:1078D400062602500302F350062605C001F006C036
:1078E40002F01200000E186E16AE06D0156C161EAD
:1078F400D8B0162A010E186E15C001F016C002F099
:10790400036A8E0E046E18C005F056EC3DF001C0FB
:1079140015F002C016F003C017F01200056E070E32
:10792400056405D0000E026E000E016E1200C50E35
:10793400C2160538E842F80BC212200E036E2A0E56
:10794400E82EFED7032EFCD7C282C2B2FED7C450A3
:10795400046E036AC3500324016E000E0420026EF9
:107964001200000E016E6C0E026EDC0E036E020E2F
:10797400046E55C011F056C012F057C013F058C031
:1079840014F0020ED8901136123613361436E82E3F
:10799400F9D711C005F012C006F013C007F014C0E7
:1079A40008F0ADEC3DF001C00FF002C010F0120081
:1079B400000E016E6C0E026EDC0E036E020E046E7F
:1079C4000FC013F010C014F011C015F012C016F05F
:1079D400020ED8901336143615361636E82EF9D71B
:1079E400020ED8901336143615361636E82EF9D70B
:1079F40013C005F014C006F015C007F016C008F057
:107A0400ADEC3DF00104CB6E0FC055F010C056F044
:107A140011C057F012C058F01200040E3A5CD8B0EE
:107A24001200B3EC3CF00FC015F010C016F074EC6B
:107A34003CF015C01EF016C01FF017C020F0C00E99
:107A44000F6E7F0E106E440E116E39C009F03AC0ED
:107A54000AF04FEC3CF009C00CF00AC00DF00BC06A
:107A64000EF013EC3EF00CC01BF00DC01CF00EC069
:107A74001DF086EC3EF01BC02AF01CC02BF01DC08C
:107A84002CF000EC3FF02AC039F02BC03AF039C09A
:107A94003BF03AC03CF0D8903C323B32D8903C3278
:107AA4003B323B50BE6E12000450D8B405D0015096
:107AB40002100310D8A40CD0000E016E000E026E4A
:107AC400000E036E1200042AD890033202320132EF
:107AD400000E0114066E000E0214076EFE0E03144F
:107AE400086E065007100810D8B40CD0ECD7042A3E
:107AF400010E0126000E0222000E0322D89003324A
:107B040002320132000E0114066E000E0214076EDA
:107B1400FF0E0314086E065007100810D8B406D0E0
:107B2400E6D70406D89001360236033602BE03D0E7
:107B3400020E0460F6D704A0029ED89004320450CA
:107B440003120550D8A4038E01C001F002C002F054
:107B540003C003F01200000E0A6E08AE0AD0081E1D
:107B6400071E061E056C000E062207220822010EBF
:107B74000A6E04AE0AD0041E031E021E016C000E1F
:107B8400022203220422010E0A1A000E0B6E000EBA
:107B94000C6E000E0D6E000E0E6E055006100710D2
:107BA4000810D8B42AD0010E096E06D0D890053634
:107BB400063607360836092A08AEF8D7D8900B36A9
:107BC4000C360D360E360550015C0650025807502F
:107BD400035808500458D8A009D00550015E065037
:107BE400025A0750035A0850045A0B80D89008329E
:107BF400073206320532092EE1D70A50D8B408D02C
:107C04000E1E0D1E0C1E0B6C000E0C220D220E22DD
:107C14000BC001F00CC002F00DC003F00EC004F064
:107C240012000EC012F0136A146A0D34123601E306
:107C340013801250196E1950D8A407D0000E0C6E80
:107C4400000E0D6E000E0E6E120011C012F0136ABB
:107C5400146A1034123601E3138012501A6E1A504B
:107C6400D8A407D0000E0C6E000E0D6E000E0E6E22
:107C74001200000E166E000E176E000E186E1A50CB
:107C8400890F195E0EC01AF011501A1A800E1A16B6
:107C94000D8EFF0E0C16FF0E0D16000E0E16108E16
:107CA400FF0E0F16FF0E1016000E1116180E156E8D
:107CB400D8901636173618360F500C5C10500D58E5
:107CC40011500E58D8A007D00F500C5E10500D5A0A
:107CD40011500E5A1680D8900C360D360E36152ECD
:107CE400E7D716C001F017C002F018C003F019C09E
:107CF40004F01AC005F056EC3DF001C00CF002C0CF
:107D04000DF003C00EF012001DC021F0226A236A98
:107D14001C34213601E322802150246E2450D8A43F
:107D240007D0000E1B6E000E1C6E000E1D6E12009E
:107D340020C021F0226A236A1F34213601E3228005
:107D44002150296E2950D8A407D0000E1B6E000EB6
:107D54001C6E000E1D6E120029507B0F24261DC0C0
:107D640029F02050291A800E29161C8E1F8EFF0E12
:107D74001E16FF0E1F16000E2016000E256E000E96
:107D8400266E000E276E070E286E1BA006D01E500E
:107D940025261F50262220502722D8901D321C321F
:107DA4001B32D8901E361F362036282EEED7090EE9
:107DB400286E1BA006D01E5025261F5026222050B8
:107DC4002722D8901D321C321B32D89027322632FB
:107DD4002532282EEED725C001F026C002F027C098
:107DE40003F024C004F029C005F056EC3DF001C0B6
:107DF4001BF002C01CF003C01DF012002CC02EF0BA
:107E04002F6A306A2B342E3601E32F802E50386EC1
:107E14003850D8A409D0000E2A6E000E2B6E000E26
:107E24002C6E000E2D6E1200170E2E6E2AC02FF02F
:107E34002BC030F02CC031F02E28326E04D0D890F4
:107E4400313230322F32322EFAD72F50336E2B8EFE
:107E5400FF0E2A16FF0E2B16000E2C162A50346E17
:107E64002B50356E2C50366E376A8E0E385E38AE17
:107E740016D03850800A8F0FD8B009D0000E2A6E61
:107E8400000E2B6E000E2C6E000E2D6E1200D8907C
:107E94003732363235323432383EF9D715D0170EF0
:107EA40038640FD0000E2A6E000E2B6E000E2C6E5E
:107EB400000E2D6E1200D8903436353636363736ED
:107EC40038063850D8A4F7D73350D8B408D0371E62
:107ED400361E351E346C000E35223622372234C04D
:107EE4002AF035C02BF036C02CF037C02DF012002C
:107EF400000E406E0F0E3F6E000E426E020E416E7B
:107F0400000E446E050E436E000E4C6E000E4B6E5A
:107F1400000E4E6E000E4D6E45EC3CF0880E0F6E5A
:107F2400130E106E000E116E000E126EDAEC3CF0A1
:107F34004AEC3CF0010E466EF40E456E000E90ECD9
:107F44003CF001C047F002C048F047C03DF048C0D3
:107F54003EF03D1E3E1E3D4A3E2A45503D24536E92
:107F640046503E20546E53C001F054C002F043C04A
:107F740003F044C004F061EC3CF04D5001244F6E1A
:107F84004E500220506E4BC03DF04CC03EF03D1EA2
:107F94003E1E3D4A3E2A53503D24016E54503E201D
:107FA400026E41C003F042C004F061EC3CF001C039
:107FB40049F002C04AF03FC001F040C002F053C093
:107FC40003F054C004F061EC3CF04F5001265050D3
:107FD400022249500124516E4A500220526E51C06F
:107FE40039F052C03AF00FEC3DF053C04BF054C09E
:0C7FF4004CF04FC04DF050C04EF09CD738
:020000040020DA
:08000000FFFFFFFFFFFFFFFF00
:020000040030CA
:0E0000000002191EFF8181FF0FC00FE00F40AC
:00000001FF
