:020000040000FA
:060000000A128A11E52F2F
:100674004F30831203139D00080064008001840A34
:100684000406031900340406402BFF3083160313B9
:10069400920005308312031392004F309700080034
:1006A4003034303430343034303430343034303426
:1006B4003034303430343034303430343034303416
:1006C400643400347E088A007F0882000A128A118A
:1006D40064230A128A118000840A04087D0603191F
:1006E4000034FF0A0319FE0A682B0A128A11BA237E
:1006F4000A128A110A128A11A3230A128A11822B5E
:100704000A128A11E0230A128A11822B822B0A12FE
:100714008A110028F001F00A831203138C1A932B18
:10072400942BA22B0C1E972B982B9F2B8316031311
:1007340098189D2B9E2BA22B9F2BF001A22BA22B52
:100744000800003083120313D9000030D80025308C
:10075400D7008030D6000A128A1156240A128A1150
:10076400F0010D300A128A11A1250A128A1108001B
:100774008130831203139F00C230831603139F003A
:1007840085013F30850086010030860087010030F6
:1007940087000A128A1147230A128A110A128A113F
:1007A4003A230A128A11880100308808831203133D
:1007B4008901073083160313890008000A128A117D
:1007C4008C230A128A11F001F00A0D300A128A11E0
:1007D400C2260A128A11F430F0000130F1000A1224
:1007E4008A1108240A128A11F0010D300A128A11A2
:1007F400C2260A128A11F430F0000130F1000A1204
:100804008A1108240A128A11072C0800F301F40142
:100814007408803AF2007108803A7202031D142CA5
:1008240070087302031C172C182C1A2C552C552CE9
:10083400F501F6017608803AFF0081307F02031D3E
:10084400252C90307502031C282C292C2B2C402C91
:10085400402C00000130F5070318F60A0030F607B3
:100864007608803AFF0081307F02031D3B2C9030D4
:100874007502031C3E2C3F2C2B2C402C0130F3071B
:100884000318F40A0030F4077408803AF20071087F
:10089400803A7202031D502C70087302031C532CFF
:1008A400542C1A2C552C0800831603131811831288
:1008B40003135608F9005708FA005808FB005908B2
:1008C400FC0006300310F90DFA0DFB0DFC0DFF3E84
:1008D400031D642C7C08F3007B08F2007A08F10005
:1008E4007908F0000130F7003130F6002D30F500C2
:1008F4000030F4000A128A11FB240A128A117008CB
:10090400FF3E83120313DA0071080318013EFF3E11
:10091400DB0001305B02003003195A02031C932CE4
:10092400942CE22C83160313181583120313560810
:10093400F9005708FA005808FB005908FC00043075
:100944000310F90DFA0DFB0DFC0DFF3E031DA22C47
:100954007C08F3007B08F2007A08F1007908F000C3
:100964000130F7003130F6002D30F5000030F4008E
:100974000A128A11FB240A128A117008FF3E83129C
:100984000313DA0071080318013EFF3EDB005A0826
:1009940083160313990018128312031398178316EE
:1009A40003138717071783120313181683160313E9
:1009B40098168312031399019A01FA2CFA2CFA2C33
:1009C4005A088316031399001812831203139817F5
:1009D4008316031387170717831203131816831636
:1009E400031398168312031399019A01FA2CFA2C13
:1009F400080083120313D101F31F012D022D0F2DC3
:100A0400F009F109F209F309F00A0319F10A0319CB
:100A1400F20A0319F30AD101D10AF71F122D132D7B
:100A2400232DF409F509F609F709F40A0319F50A5F
:100A34000319F60A0319F70A0130F8007808D106F9
:100A4400232D0030D5000030D4000030D300003016
:100A5400D20073087204710470040319322D332D0B
:100A6400862DD001D00A442D0130F8000310F00D7A
:100A7400F10DF20DF30DF80B382D0130F800780864
:100A8400D007442DF31F472D482D362D4A2D4A2DCE
:100A94000130F8000310D20DD30DD40DD50DF80B91
:100AA4004C2D73087702031D612D72087602031D15
:100AB400612D71087502031D612D70087402031CF9
:100AC400642D652D752D7008F4027108031C710FD7
:100AD400F5027208031C720FF6027308031C730FED
:100AE400F7025214752D01300310F30CF20CF10CC3
:100AF400F00CFF3E031D762D0130D002031D832D23
:100B0400842D4A2D862D862D510803198A2D8B2D6F
:100B1400972DD209D309D409D509D20A0319D30AC6
:100B24000319D40A0319D50A972D5508F30054085C
:100B3400F2005308F1005208F000A02D0800F30061
:100B44006C2E700C83160313031C8713031887176A
:100B5400C12E700C83160313031C07130318071705
:100B6400C12E700C83160313031C871203188716F7
:100B7400C12E700C83160313031C071203180716E7
:100B8400C12E700C83160313031C871103188715D9
:100B9400C12E700C83160313031C071103180715C9
:100BA400C12E700C83160313031C871003188714BB
:100BB400C12E700C83160313031C071003180714AB
:100BC400C12E700C83160313031C0610031806149D
:100BD400C12E700C83160313031C8610031886148D
:100BE400C12E700C83160313031C0611031806157B
:100BF400C12E700C83160313031C8611031886156B
:100C0400C12E700C83160313031C06120318061658
:100C1400C12E700C83160313031C86120318861648
:100C2400C12E700C83160313031C06130318061736
:100C3400C12E700C83160313031C86130318861726
:100C4400C12E700C83160313031C08100318081418
:100C5400C12E700C83160313031C88100318881408
:100C6400C12E700C83160313031C081103180815F6
:100C7400C12E700C83160313031C881103188815E6
:100C8400C12E700C83160313031C081203180816D4
:100C9400C12E700C83160313031C881203188816C4
:100CA400C12E700C83160313031C081303180817B2
:100CB400C12E700C83160313031C881303188817A2
:100CC400C12E700C83160313031C0512031805169A
:100CD400C12EC12E7308F100F2017208003A031903
:100CE400742EC12E7108003A0319A32D013A031979
:100CF400AB2D033A0319B32D013A0319BB2D073A5F
:100D04000319C32D013A0319CB2D033A0319D32D2B
:100D1400013A0319DB2D0F3A0319E32D013A0319A4
:100D2400EB2D033A0319F32D013A0319FB2D073A6E
:100D34000319032E013A03190B2E033A0319132E38
:100D4400013A03191B2E1F3A0319232E013A0319E2
:100D54002B2E033A0319332E013A03193B2E073A7B
:100D64000319432E013A03194B2E033A0319532E48
:100D7400013A03195B2E0F3A0319632EC12E0800A2
:100D8400F3008F2F700C83120313031C87130318B3
:100D94008717E42F700C83120313031C0713031823
:100DA4000717E42F700C83120313031C8712031814
:100DB4008716E42F700C83120313031C0712031805
:100DC4000716E42F700C83120313031C87110318F6
:100DD4008715E42F831203139701700C031C07116A
:100DE40003180715E42F831203139D01700C031CD1
:100DF400871003188714E42F700C83120313031C49
:100E0400071003180714E42F700C83120313031C38
:100E1400061003180614E42F700C83120313031C2A
:100E2400861003188614E42F700C83120313031C1A
:100E3400061103180615E42F700C83120313031C08
:100E4400861103188615E42F700C83120313031CF8
:100E5400061203180616E42F700C83120313031CE6
:100E6400861203188616E42F700C83120313031CD6
:100E7400061303180617E42F700C83120313031CC4
:100E8400861303188617E42F700C83120313031CB4
:100E9400081003180814E42F700C83120313031CA6
:100EA400881003188814E42F700C83120313031C96
:100EB400081103180815E42F700C83120313031C84
:100EC400881103188815E42F700C83120313031C74
:100ED400081203180816E42F700C83120313031C62
:100EE400881203188816E42F700C83120313031C52
:100EF400081303180817E42F700C83120313031C40
:100F0400881303188817E42F700C83120313031C2F
:100F1400051203180516E42FE42F7308F100F201FB
:100F24007208003A0319972FE42F7108003A031945
:100F3400C42E013A0319CC2E033A0319D42E013AD4
:100F44000319DC2E073A0319E42E013A0319EC2E97
:100F5400033A0319F52E013A0319FE2E0F3A031929
:100F6400062F013A03190E2F033A0319162F013ADB
:100F740003191E2F073A0319262F013A03192E2F9E
:100F8400033A0319362F013A03193E2F1F3A031966
:100F9400462F013A03194E2F033A0319562F013AEB
:100FA40003195E2F073A0319662F013A03196E2FAE
:100FB400033A0319762F013A03197E2F0F3A0319C6
:100FC400862FE42F080083135030FD000330FE0009
:100FD4005230FF003E3084000A128A1168230A123C
:100FE4008A11203084003E300A128A113F230A12EB
:0C0FF4008A11FD0183010A128A11772B7B
:02400E00BA3FB7
:00000001FF
