:020000040000FA
:100000000A128A11E82F00308A000408840A820745
:10001000003449347A347134753469346534723457
:100020006434613400344134643465346C34613494
:100030006E34743465340034443465347234653459
:100040006334683461340034443465347434653462
:100050006E346534723400344334613473346F3435
:100060002034463400344334613473346F342034E4
:100070004A3400344134743472346134733400349B
:1001E6004F30831203139D00080030340D340B3456
:1001F6000A340934083406340534FF3083160313F1
:10020600920005308312031392004F3097000800C6
:100216000C29831203138C1E112912290C29132968
:100226001A0815290800F0001829831203130C1E5A
:100236001D291E2918291F297008990008007E0803
:100246008A007F0882000A128A1122210A128A1164
:100256008000840A04087D0603190034FF0A031986
:10026600FE0A26290A128A1161210A128A110A1225
:100276008A11E1220A128A1140290A128A11B82328
:100286000A128A11402940290A128A110028F0010F
:10029600F00A831203138C1A5129522960290C1E65
:1002A600552956295D298316031398185B295C295D
:1002B60060295D29F00160296029080081308312D8
:1002C60003139F00C230831603139F0085013F303E
:1002D60085008601003086008701003087000A12FB
:1002E6008A1100210A128A110A128A11F3200A12AF
:1002F6008A118801003088088312031389010730A8
:100306008316031389000800F300F101F2019F2907
:100316007108730784000A128A1103200A128A11CF
:100326000A128A1116210A128A110130F1070318DE
:10033600F20A0030F2079F297108730784000A1237
:100346008A1103200A128A11003A031DAB29AC292F
:100356008B29AD290A300A128A1116210A128A112E
:100366000800F0017D080A128A11C5260A128A11B0
:10037600F001831203133F080A128A11C5260A12D6
:100386008A11F001831203133E080A128A11C52648
:100396000A128A11F001831203133D080A128A1108
:1003A600C5260A128A110030F000F10083120313E9
:1003B6003C080A128A116C230A128A110030F000D6
:1003C600F100831203133B080A128A116C230A12E6
:1003D6008A110800F001F00A7D080A128A11C52662
:1003E6000A128A11F001831203133F080A128A11B6
:1003F600C5260A128A11F001F00A831203133E0879
:100406000A128A11C5260A128A11F00183120313F1
:100416003D080A128A11C5260A128A117708F100C8
:100426007608F000831203133C080A128A116C2323
:100436000A128A117708F1007608F0008312031376
:100446003B080A128A116C230A128A110800F0016D
:100456007D080A128A11C5260A128A11F001F00ACD
:10046600831203133F080A128A11C5260A128A113B
:10047600F001831203133E080A128A11C5260A12D6
:100486008A11F001F00A831203133D080A128A1139
:10049600C5260A128A117708F1007608F000831241
:1004A60003133C080A128A116C230A128A11770870
:1004B600F1007608F000831203133B080A128A1132
:1004C6006C230A128A110800F0017D080A128A11AB
:1004D600C5260A128A11F001F00A831203133F0897
:1004E6000A128A11C5260A128A11F001F00A83122D
:1004F60003133E080A128A11C5260A128A11F00150
:10050600831203133D080A128A11C5260A128A119C
:100516007708F1007608F000831203133C080A12EC
:100526008A116C230A128A117708F1007608F00006
:10053600831203133B080A128A116C230A128A11CA
:100546000800F001F00A7D080A128A11C5260A126F
:100556008A11F001831203133F080A128A11C52675
:100566000A128A11F001831203133E080A128A1135
:10057600C5260A128A11F001F00A831203133D08F8
:100586000A128A11C5260A128A117708F10076081E
:10059600F000831203133C080A128A116C230A1214
:1005A6008A117708F1007608F000831203133B08DE
:1005B6000A128A116C230A128A110800003083126B
:1005C6000313A9000030A8002530A7008030A6003C
:1005D6000A128A1159240A128A1183120313370840
:1005E600AC002C08F4003608AD002D08F5003508DF
:1005F600AE002E08F6003A08AF00B0012F08F7004B
:100606003008F8003908B100B2013108F9003208A3
:10061600FA0038080A128A1125230A128A11F001F3
:100626008312031334080A128A11A4250A128A11A6
:10063600F0018312031334080A128A11C5260A121E
:100646008A110800FC00F0017C080A128A11A42510
:100656000A128A11F00174080A128A11A4250A12D4
:100666008A11F00175080A128A11A4250A128A1144
:10067600F00176080A128A11A4250A128A11F001DD
:1006860077080A128A11A4250A128A11F00179083C
:100696000A128A11A4250A128A117C08FB007B081B
:1006A600FD007408FB007B0883120313BF00750866
:1006B600FB007B08BE007608FB007B08BD007708C0
:1006C600FB007B08BC007908FB007B08BB006B2B9A
:1006D6000800F500F401A72B7108F3007008F2007A
:1006E6000310F30CF20C0310F30CF20C72088312D5
:1006F60003139B009D127018812B852B8312031305
:100706001D16882B831203131D12B72B8316031392
:1007160007117108F3007008F2000310F30CF20CD5
:100726000310F30CF20C7208831203139500971250
:1007360070189E2BA22B831203131716A52B831258
:1007460003131712B72BB72B7508F200F3017308C2
:10075600003A0319AF2BB72B7208163A03196F2B01
:10076600013A0319892BB72B08000A128A114A216C
:100776000A128A110A128A110B210A128A11F8002A
:10078600780883120313B300362CF430F6000130D8
:10079600F7000A128A11ED210A128A110B300A1289
:1007A6008A1187210A128A11582CF430F60001307A
:1007B600F7000A128A112A220A128A1132300A1204
:1007C6008A1187210A128A11582CF430F60001305A
:1007D600F7000A128A11A4220A128A1101300A129B
:1007E6008A1187210A128A11582CF430F60001303A
:1007F600F7000A128A1167220A128A1114300A12A5
:100806008A1187210A128A11582C0A128A11B421D8
:100816000A128A111C300A128A1187210A128A11B9
:10082600582CF001F00A8312031334080A128A11B5
:10083600C5260A128A1124300A128A1187210A1241
:100846008A11582CF0018312031334080A128A11F4
:10085600C5260A128A112B300A128A1187210A121A
:100866008A11582C582C831203133308F800F90107
:100876007908003A0319402C582C7808613A031974
:10088600E82B023A0319082C073A0319F82B023A07
:100896000319142C0C3A0319252C193A0319D82BD1
:1008A600043A0319C82B582C582C08008316031336
:1008B6001811831203132608F9002708FA002808DE
:1008C600FB002908FC0006300310F90DFA0DFB0D9C
:1008D600FC0DFF3E031D672C7C08F3007B08F2002D
:1008E6007A08F1007908F0000130F7003130F6009F
:1008F6002D30F5000030F4000A128A11FE240A1287
:100906008A117008FF3E83120313AA0071080318A8
:10091600013EFF3EAB0001302B02003003192A02D4
:10092600031C962C972CE52C83160313181583129B
:1009360003132608F9002708FA002808FB002908EF
:10094600FC0004300310F90DFA0DFB0DFC0DFF3E03
:10095600031DA52C7C08F3007B08F2007A08F10041
:100966007908F0000130F7003130F6002D30F5003F
:100976000030F4000A128A11FE240A128A11700845
:10098600FF3E83120313AA0071080318013EFF3EBF
:10099600AB002A0883160313990018128312031357
:1009A600981783160313871707178312031318164E
:1009B6008316031398168312031399019A01FD2CCB
:1009C600FD2CFD2C2A088316031399001812831296
:1009D6000313981783160313871707178312031336
:1009E60018168316031398168312031399019A0196
:1009F600FD2CFD2C080083120313A101F31F042D07
:100A0600052D122DF009F109F209F309F00A03196F
:100A1600F10A0319F20A0319F30AA101A10AF71F41
:100A2600152D162D262DF409F509F609F709F40AF0
:100A36000319F50A0319F60A0319F70A0130F80033
:100A46007808A106262D0030A5000030A40000304D
:100A5600A3000030A2007308720471047004031925
:100A6600352D362D892DA001A00A472D0130F8001D
:100A76000310F00DF10DF20DF30DF80B3B2D0130C7
:100A8600F8007808A007472DF31F4A2D4B2D392D66
:100A96004D2D4D2D0130F8000310A20DA30DA40D10
:100AA600A50DF80B4F2D73087702031D642D7208F0
:100AB6007602031D642D71087502031D642D7008EE
:100AC6007402031C672D682D782D7008F4027108D6
:100AD600031C710FF5027208031C720FF6027308ED
:100AE600031C730FF7022214782D01300310F30C48
:100AF600F20CF10CF00CFF3E031D792D0130A00223
:100B0600031D862D872D4D2D892D892D210803192D
:100B16008D2D8E2D9A2DA209A309A409A509A20A35
:100B26000319A30A0319A40A0319A50A9A2D25086D
:100B3600F3002408F2002308F1002208F000A32D98
:100B46000800F3006F2E700C83160313031C871323
:100B560003188717C42E700C83160313031C071380
:100B660003180717C42E700C83160313031C871271
:100B760003188716C42E700C83160313031C071262
:100B860003180716C42E700C83160313031C871153
:100B960003188715C42E700C83160313031C071144
:100BA60003180715C42E700C83160313031C871035
:100BB60003188714C42E700C83160313031C071026
:100BC60003180714C42E700C83160313031C061097
:100BD60003180614C42E700C83160313031C861008
:100BE60003188614C42E700C83160313031C0611F7
:100BF60003180615C42E700C83160313031C8611E6
:100C060003188615C42E700C83160313031C0612D4
:100C160003180616C42E700C83160313031C8612C3
:100C260003188616C42E700C83160313031C0613B2
:100C360003180617C42E700C83160313031C8613A1
:100C460003188617C42E700C83160313031C081092
:100C560003180814C42E700C83160313031C881083
:100C660003188814C42E700C83160313031C081172
:100C760003180815C42E700C83160313031C881161
:100C860003188815C42E700C83160313031C081250
:100C960003180816C42E700C83160313031C88123F
:100CA60003188816C42E700C83160313031C08132E
:100CB60003180817C42E700C83160313031C88131D
:100CC60003188817C42E700C83160313031C051211
:100CD60003180516C42EC42E7308F100F20172081B
:100CE600003A0319772EC42E7108003A0319A62D6F
:100CF600013A0319AE2D033A0319B62D013A031929
:100D0600BE2D073A0319C62D013A0319CE2D033A13
:100D16000319D62D013A0319DE2D0F3A0319E62DD4
:100D2600013A0319EE2D033A0319F62D013A031978
:100D3600FE2D073A0319062E013A03190E2E033A21
:100D46000319162E013A03191E2E1F3A0319262ED1
:100D5600013A03192E2E033A0319362E013A0319C6
:100D66003E2E073A0319462E013A03194E2E033A30
:100D76000319562E013A03195E2E0F3A0319662EF1
:100D8600C42E0800F300922F700C83120313031C69
:100D9600871303188717E72F700C83120313031C9E
:100DA600071303180717E72F700C83120313031C8E
:100DB600871203188716E72F700C83120313031C80
:100DC600071203180716E72F700C83120313031C70
:100DD600871103188715E72F831203139701700CE9
:100DE600031C071103180715E72F831203139D0130
:100DF600700C031C871003188714E72F700C8312DE
:100E06000313031C071003180714E72F700C831233
:100E16000313031C061003180614E72F700C831225
:100E26000313031C861003188614E72F700C831215
:100E36000313031C061103180615E72F700C831203
:100E46000313031C861103188615E72F700C8312F3
:100E56000313031C061203180616E72F700C8312E1
:100E66000313031C861203188616E72F700C8312D1
:100E76000313031C061303180617E72F700C8312BF
:100E86000313031C861303188617E72F700C8312AF
:100E96000313031C081003180814E72F700C8312A1
:100EA6000313031C881003188814E72F700C831291
:100EB6000313031C081103180815E72F700C83127F
:100EC6000313031C881103188815E72F700C83126F
:100ED6000313031C081203180816E72F700C83125D
:100EE6000313031C881203188816E72F700C83124D
:100EF6000313031C081303180817E72F700C83123B
:100F06000313031C881303188817E72F700C83122A
:100F16000313031C051203180516E72FE72F7308A2
:100F2600F100F2017208003A03199A2FE72F7108AF
:100F3600003A0319C72E013A0319CF2E033A0319B3
:100F4600D72E013A0319DF2E073A0319E72E013A85
:100F56000319EF2E033A0319F82E013A0319012F4C
:100F66000F3A0319092F013A0319112F033A0319EE
:100F7600192F013A0319212F073A0319292F013A8C
:100F86000319312F033A0319392F013A0319412F57
:100F96001F3A0319492F013A0319512F033A03192E
:100FA600592F013A0319612F073A0319692F013A9C
:100FB6000319712F033A0319792F013A0319812F67
:100FC6000F3A0319892FE72F080083133B30FD00E2
:100FD6000030FE00F830FF00333084000A128A1118
:100FE60026210A128A11BB01BC01BD01BE01BF0147
:0A0FF600FD0183010A128A1135295A
:02400E00BA3FB7
:00000001FF
